:020000040800F2
:10000000E0860024AD020008412C0008852B000882
:10001000E52B000849040008093900080000000029
:10002000000000000000000000000000AD2D0008EE
:10003000CD04000800000000612D0008AF2D00086D
:10004000C7020008C7020008C7020008C70200086C
:10005000C7020008C7020008C7020008C70200085C
:10006000C7020008C7020008C7020008C70200084C
:10007000C7020008C7020008C7020008C70200083C
:10008000C7020008C7020008C7020008C70200082C
:10009000C7020008C7020008C7020008C70200081C
:1000A000C7020008C7020008C7020008C70200080C
:1000B000C7020008C7020008C7020008C7020008FC
:1000C000C7020008C7020008C7020008C7020008EC
:1000D000C7020008C7020008C7020008FD38000870
:1000E000C7020008C702000800000000C70200089D
:1000F000C7020008C7020008C7020008C7020008BC
:10010000C7020008C7020008C7020008C7020008AB
:10011000C7020008C7020008C7020008C70200089B
:10012000C7020008C7020008C7020008C70200088B
:10013000C702000875050008C7020008C7020008CA
:1001400000000000000000000000000000000000AF
:10015000C7020008C7020008C7020008C70200085B
:10016000C7020008C7020008C7020008C70200084B
:10017000C7020008C7020008C7020008000000000C
:10018000C7020008C7020008C7020008C70200082B
:10019000C7020008C7020008C7020008C70200081B
:1001A000C7020008C7020008C7020008C70200080B
:1001B000C7020008C7020008C7020008C7020008FB
:1001C000C7020008C7020008C7020008C7020008EB
:1001D000C7020008C7020008C7020008C7020008DB
:1001E000C7020008C7020008C7020008C7020008CB
:1001F000C7020008C7020008C7020008C7020008BB
:10020000C7020008C7020008C7020008C7020008AA
:10021000C7020008C7020008C7020008C70200089A
:10022000C7020008C7020008C7020008000000005B
:10023000C7020008C702000800000000C70200084B
:10024000C7020008C7020008C7020008C70200086A
:10025000C7020008C7020008C7020008C70200085A
:10026000C7020008C7020008C7020008C70200084A
:10027000C7020008C7020008C7020008000000000B
:10028000C702000800000000C702000800000000CC
:1002900000000000C7020008DFF80CD000F0C2F830
:1002A0000048004785750008E0860024064880471E
:1002B00006480047FEE7FEE7FEE7FEE7FEE7FEE74B
:1002C000FEE7FEE7FEE7FEE7812E00089902000840
:1002D0002DE9F05F0546002092469B46884606467B
:1002E000814640241BE0284641464746224600F00E
:1002F00089F853465A46C01A914110D31146184600
:10030000224600F070F82D1A67EB01084F4622468E
:100310000120002100F067F817EB00094E41201E74
:10032000A4F10104DFDC484631462A464346BDE8D5
:10033000F09F00000649074A0868504343F239021B
:100340001044086040087047014908607047000089
:10035000D00000246D4EC64140EA01039B0703D044
:1003600009E008C9121F08C0042AFAD203E011F8F4
:10037000013B00F8013B521EF9D27047D2B201E0B6
:1003800000F8012B491EFBD270470022F6E710B59A
:1003900013460A4604461946FFF7F0FF204610BDF3
:1003A00030B504460020034600E05B1C934203D2B4
:1003B000E05CCD5C401BF8D030BD30B50B4601464B
:1003C00000202022012409E021FA02F59D4205D3F4
:1003D00003FA02F5491B04FA02F52844151EA2F19E
:1003E0000102F1DC30BD202A04DB203A00FA02F1E0
:1003F000002070479140C2F1200320FA03F3194313
:1004000090407047202A04DB203A21FA02F00021B4
:10041000704721FA02F3D040C2F120029140084314
:1004200019467047064C074D06E0E06840F00103AE
:1004300094E8070098471034AC42F6D3FFF730FF3A
:10044000C4C80008E4C80008FEE70000F0B5BFF328
:100450004F8FBFF36F8F1B4900200860BFF34F8F92
:10046000BFF36F8F184E316841F400313160BFF334
:100470004F8FBFF36F8F144970310860BFF34F8FF8
:10048000081F0068C0F34E310E4A43F6FF77103262
:10049000C0F3C905284607EA411343EA8074146093
:1004A000401E441CF9D1491E481CF3D1BFF34F8FA5
:1004B000306840F480303060BFF34F8FBFF36F8FF0
:1004C000F0BD000050EF00E014ED00E0704710B503
:1004D00000220023016902EB420401EBC4010B601E
:1004E0004B608B60CB600B614B6100EB8204E1627F
:1004F000521C042AEED3C36303644364C36483645D
:100500000322016801F58051C1F8302101680269B8
:1005100001F58051C1F81C2101690068483100F5DE
:100520008050C0F8281110BD10B500220023C1680A
:1005300002EB420401EBC4010B604B608B60CB60AB
:1005400000EB8204A161521C042AF0D383620322CF
:10055000016801F58051C1F82C210168C26801F5DC
:100560008051C1F81421C168006800F58050C0F8BE
:10057000201110BD10B506F0B3FF06484FF400413E
:10058000006800F58B50016040210160012101608D
:1005900010BD00001401002470B5A2B0064601256C
:1005A0008DF83350002412948DF841408DF843406B
:1005B0008DF828508DF856508DF832508DF84C40FB
:1005C0008DF8845068030F908DF85C4018948DF876
:1005D00085408DF886404FF4C36016908DF830400A
:1005E0000B948DF835508DF836408DF840401D94B1
:1005F0001B9414948DF864408DF87A408DF8425025
:10060000202020908DF844508DF855404FF04050F8
:100610000990A8030E908DF8314002201F908DF8AC
:1006200078408DF879408DF854408DF834501A9404
:100630008DF8705009A9304600F03AFA8DF8045050
:10064000029500948DF81C408DF80D408DF80C40FB
:10065000690506918DF8144004918DF81D404FF402
:10066000067008906946304600F0D2F922B070BD9D
:1006700070B505462868D0F8000220F4706401F0D7
:100680001BFD1149114A0144914202D244F4007405
:1006900016E00F490F4A0144914202D244F44074DB
:1006A0000EE00D490D4A0144914209D30C4908441A
:1006B0000C49884202D244F4807401E044F480641E
:1006C0002868C0F8004270BD00D3CEFEC0E1E4004F
:1006D00040F1E9FD40787D0100796CFC005A62022E
:1006E000001F0AFA80F0FA0210B50B4602460548D0
:1006F000002100F0ADFE10B14FF0FF3010BD002022
:1007000010BD0000140100240B4610B50021024664
:10071000044800F0DDFF10B14FF0FF3010BD0020A5
:1007200010BD0000140100242DE9F04700F1180766
:100730003D692E464FF0000C57F825308C68D3F8F1
:100740000C80B8F1000F02DA0220BDE8F08791F8C2
:1007500000905FEA497937D5D1F824906FF30F08FC
:1007600048EA090848F48038C3F80C80D0F80080C3
:10077000D8F8609049F48019C8F8609091F800802A
:100780005FEA087820D5B1F82C80A3F80A80D3F866
:100790000C8048F40038C3F80C80D1F8309028F46D
:1007A000402848EA0908C3F80C80D0F80080D8F83F
:1007B000649049F48019C8F864900068D0F85080BB
:1007C00048F08068C0F850800878C0060BD598685B
:1007D000D1F818806FF30D0040EA08009860D868DF
:1007E00040F08060D860087810F0140F18D0D868F6
:1007F00040F0804040F00040D8606D1C042D00D3D4
:100800002D1F57F825304FF0010CD868002807DA63
:1008100057F82600C16821F00041C160022094E72A
:100820000CF1010C206818609868D4F804806FF30C
:100830000D0040EA08009860D4F808804FF0000AE4
:10084000DFF8C891B8F1000F0CD04446D4F800800E
:10085000C3F8048000EA0900B4F8048040EA0840C4
:10086000986004E0C3F804A000EA090098600878E2
:10087000C00611D5D868B1F8208020F4F00040EA15
:10088000C840D860D1F81C806FF3110040EA08001E
:1008900040F48020D8601EE0D868D1F804806FF35F
:1008A0000E0040EA0800D86091F800805FEAC8783E
:1008B00006D0D1F8148020F4403040EA0800D86017
:1008C0000878800607D5D868D1F8108020F04060FD
:1008D00040EA0800D8600878400707D59868D1F842
:1008E000288020F4404040EA08009860D86840F032
:1008F000005020F0804040F00040D86091F8008027
:100900005FEA88786ED5D1F80C8020F0607040EAFC
:100910000800D86066E06D1C042D00D32D1F57F829
:100920002530D868002812DA57F8261000200AE08F
:10093000CA6822F00042CA60761C042E00D3361F1B
:1009400057F82610401C6045F2D30220FDE60CF15A
:10095000010C206818609868D4F804806FF30D00CB
:1009600040EA08009860D4F80880B8F1000F0CD075
:100970004446D4F80080C3F8048000EA0900B4F8C3
:10098000048040EA0840986004E0C3F804A000EA4C
:10099000090098600878C0060AD5D868D1F81C808C
:1009A0006FF3110040EA080040F48020D86013E0A3
:1009B000D868D1F804806FF30E0040EA0800D860D0
:1009C00091F800805FEAC87806D0D1F8148020F44E
:1009D000403040EA0800D860D86840F0004020F07D
:1009E0008040D860A468002C95D122B1986840F06E
:1009F0000040986003E0986820F000409860D86854
:100A000040F08050D8603D6100209EE6FFFF00C0AE
:100A100030B5026802F58052136847F60204A3431A
:100A20000C68234313600A790B7B120342EAC33339
:100A30008A681343026802F5805254684DF201053A
:100A4000AC431C4354604B7B0A6A42EA034302688E
:100A500002F58052D2F80041124D2C401C43C2F8DE
:100A600000410A7D4B7F120142EA03330A691343B6
:100A7000026802F58052D2F804410B4D2C401C4311
:100A8000C2F804418A69097F42EAC171006800F531
:100A90008050D0F80821054B1A400A43C0F80821BD
:100AA00030BD000000C0FEFFEFEFC0FFFFFFC07FC2
:100AB00030B50B688A680C7B1A430B79DB0643EA76
:100AC000C4531A434B7B42EA83528B7B42EA435224
:100AD000CB7B42EA03530A7C002A7CD0002243EA03
:100AE000C2434A7C002A77D0002243EA42428B7CF0
:100AF00042EA03424B691A438B691A430B7F42EA6D
:100B000003324B7F42EAC3238A7F002A65D000224A
:100B100043EA8222CB7F42EA432391F82020002A35
:100B20007CD0002243EA022251F8243F1A430B7979
:100B300042EA03138A681343026814683F4D2C404D
:100B40001C4314600A7E0B7D520642EA03620B7B53
:100B500042EA83424B7B42EA43438A7B2439002AA0
:100B600065D0002243EA02434A6B1343026854688B
:100B7000334D2C401C43546091F840304A6C42EA9B
:100B800003230268D46840F20F15AC431C43D460C1
:100B900091F854300A6D42EA430391F84C20E2B3D5
:100BA000002231F8484FD20142EA0442134302685E
:100BB000146F4FF60D752C401C4314674B7B8A7BDA
:100BC00042EA4303026852F8904F24F003041C43A6
:100BD0001460026802E022E023E024E0D2F8003D45
:100BE0000C6923F072032343C2F8003D0A7E4B696F
:100BF000483902B3002243EA821211F8613F497872
:100C00001B0143EAC1010A430068D0F8301D21F0FE
:100C10007B011143C0F8301D30BD0AE005E0012220
:100C20005DE7012261E7012272E701227AE70122F2
:100C300098E70122B5E70122DDE700008380040088
:100C40000080F8C008B50020009001206946FFF739
:100C50004BFD01206946FFF747FD0098400701D48E
:100C6000012008BD00206946FFF73EFD0098C10441
:100C70000FD44FF40451814303D0810403D50320E2
:100C800008BD022008BDC00501D5042008BD05200F
:100C900008BD1F206946FFF727FD0098C10401D455
:100CA000062008BDC0F38200062805D0022805D022
:100CB000052805D0052008BD022008BD032008BD79
:100CC000042008BD70B5054600F030FE064C2168D2
:100CD000401A642807D300F029FE20602846BDE8AA
:100CE000704004F0E5BF70BD0000002410B500287E
:100CF00007D090F83510022905D0802141650120E8
:100D000010BD012010BD214A4FF4956401688B1875
:100D1000A34207D8042280F83520086820F001009B
:100D2000086030E00B6823F00E030B6001680A4492
:100D3000A24204D80A6822F001020A6003E00A68AD
:100D400022F001020A60016E0A6822F480720A60D1
:100D500090F85C10012404FA01F20D490A60D0E910
:100D600019215160C16E31B10A6822F480730B60A1
:100D7000D0E91C215160002180F8341080F8354002
:100D8000016D01B18847002010BD0000F0FFFDBFDC
:100D90000454025870B5044600F0C8FD0546601CB6
:100DA00002D004480078044400F0C0FD401BA0427B
:100DB000FAD370BD0800002470B500F12C035A6905
:100DC00053F822109D69002D04D0DC6904B16D1C1C
:100DD000002423E0012070BD0E690E604FF0807684
:100DE000CE604E692EB14E698E60CE6846F00076B8
:100DF000CE60CE6846F00046CE601E6A1EB1CE6858
:100E000046F08046CE609E69761EA64205D9521CE9
:100E1000042A00D3121F53F82210641CAC42DBD307
:100E2000006800F58050C0F828110020986170BD5E
:100E300010B500EB8104E46A002A01D0042903D331
:100E400001214165012010BD22602261E06840F06F
:100E50008070E06023B1A360636140F00070E060E7
:100E6000E06840F00040E060002010BD00297DD027
:100E70000268126802F00C02CA6202681268C2F3C9
:100E8000001281F828200268126802F060024A62AB
:100E90000268126842F30022521C81F82020026886
:100EA0001268C2F34022CA770268126842F38022B5
:100EB000521C8A7702681268C2F3C0224A7702681D
:100EC0001268C2F300320A770268126802F4005214
:100ED0008A610268126802F480424A6102681268FC
:100EE000C2F300428A740268126842F34042521C04
:100EF0004A740268126842F3C042521C0A740268C3
:100F00001268C2F30052CA7302681268C2F34052F8
:100F10008A7302681268C2F380524A7302681268C8
:100F2000C2F3C0520A730268126802F0E0628A607B
:100F300002681268C2F3C0620A710268126802F0A5
:100F4000E0420A6002685268C2F30D024A63026816
:100F5000526842F30042521C81F832200268526803
:100F6000C2F3404281F83120026800E062E052683A
:100F7000C2F3804281F8302002685268C2F30062F6
:100F800081F8382002685268C2F34462CA6302687A
:100F9000D268C2F3002281F840200268D26802F0D1
:100FA0000F024A640268126FC2F3400281F85420B3
:100FB0000268126F42F3C012521C81F84C20026882
:100FC000126F02F070020A650268126F120C8A64D6
:100FD0000268D2F8902002F0010281F856200268DF
:100FE000D2F89020C2F3400281F855200268D2F86E
:100FF000002D02F072028A650268D2F8302D02F0EC
:101000002302CA650268D2F8302DC2F3C00281F80B
:1010100062200268D2F8302DC2F3001281F86120FC
:101020000068D0F8300D40F38010401C81F860005B
:1010300000207047012070472DE9F04307460C4619
:1010400007F12C08D8F814604FF0000958F8265022
:10105000D8F81800002803D1384600F003F908B189
:10106000002023E00120BDE8F083696979B154B123
:101070002969216079696160A46834B16969216076
:101080007969616007E00120EDE70120EBE729695C
:10109000216079696160E968C1F30E09761C042E4C
:1010A00000D3361F58F82650A468401CD8F81810F2
:1010B000491E8142D9D85CB1E868C0F30E00A0EBAC
:1010C00009007969814205D32969216060600EE0D9
:1010D0000120C8E7696971B1296921607969616096
:1010E000A16831B16A690A607A69801A4860002093
:1010F000B9E70120B7E70120B5E770B50E4600F16A
:101100002C046569A169002902D100F0ABF868B12F
:10111000A0696D1E2844042800D3001F54F8200045
:10112000C068C0F30E003060002070BD012070BDAB
:10113000F8B50446002C03D094F8510010B104E037
:101140000120F8BD204600F0F5F8232084F8510076
:101150004248016841F002010160006800F00200AD
:101160000090207A88B14FF4000001F07BFB2068EA
:1011700000F58050016841F00101016000F0D6FBEC
:101180000546E0264FF4FA770EE0002001F06AFBF6
:10119000EDE700F0CBFB401BB84205D904206065A9
:1011A00084F851600120F8BD206800F58050006887
:1011B000C007EED12046FFF75BFA00F07DFF28491B
:1011C000B0FBF1F02168401EC1F8DC002046FFF7BB
:1011D000E3F9206800F58050D0F8001121F4E01107
:1011E00041F40021C0F800116169880704D0012092
:1011F000606584F85160F8BD206800F58050D0F833
:10120000082147F6FE739A4342EA4101C0F80811EB
:101210002046FFF789F92046FFF759F96068017900
:10122000407941EA00202168C1F800036068C27873
:10123000017841EA026182784078120442EA002093
:1012400001432068C0F8041300206065102084F872
:10125000510084F852000020F8BD0000F444025808
:1012600040420F0070B52C30016950F82150002227
:10127000002400238669002E30D0002070BD521C4F
:10128000EE0019D5641C012C00D10B46491C042921
:1012900000D3091F50F82120D268002A07DB520032
:1012A00005D50122C261491C042900D3091F01612F
:1012B00043618461012070BDAD0008D50B46012457
:1012C000491C042900D3091F50F8215006E0641C72
:1012D000491C042900D3091F50F82150ED68002D46
:1012E00001DB042ACBD304B350F8232000211AE0F9
:1012F000156915604FF08075D56055691DB1956011
:101300004FF04075D560D56845F00045D560066A58
:1013100016B145F08045D5605B1C042B00D31B1F24
:1013200050F82320491CA142E2D300218161002012
:1013300070BD000070B586B00446142101A8FFF707
:1013400024F83D492068884274D13C48016841F046
:1013500004010160016801F004010091016841F09D
:1013600001010160016801F001010091016841F093
:1013700080010160016801F080010091016841F085
:1013800040010160006800F0400000902B480838E0
:10139000016841F400410160016801F400410091DD
:1013A000016841F480310160016801F480310091ED
:1013B000016841F400310160006800F400300090E1
:1013C00032200190022402940025039504940B26F8
:1013D000059601A91A4800F0ADF986200190029403
:1013E00003950494059601A9164800F0A3F94FF45B
:1013F00060500190029403950494059601A9124847
:1014000000F098F9114E01220421304600F088FACC
:1014100004210191012102910395049401A9304610
:1014200000F088F9002201213D2000F04FFB3D2013
:1014300000F03EFB06B070BD00800240E044025860
:10144000000802580000025800180258001C0258F8
:101450002DE9F04104461F462068D0F80032DB0732
:1014600002D00120BDE8F081D0F8003223F078737B
:1014700043EA415121F4F81141EA024141F00C01E3
:1014800041F00101C0F8001200F050FA05464FF497
:101490007A7606E000F04AFA401BB04201D90120FA
:1014A000E0E72068D0F80002C007F3D12068D0F848
:1014B000040280B238600020D4E710B5002905D0BE
:1014C00090F85220102A03D0012010BD012010BD39
:1014D000FFF7EEFA002010BD70B505462868D0F879
:1014E000000220F4706400F0E7FD1149114A014444
:1014F000914202D244F4007416E00F490F4A0144AD
:10150000914202D244F440740EE00D490D4A014468
:10151000914209D30C4908440C49884202D244F450
:10152000807401E044F480642868C0F8004270BD13
:1015300000D3CEFEC0E1E40040F1E9FD40787D013A
:1015400000796CFC005A6202001F0AFA80F0FA026D
:1015500010B50021C26A90F85130102B01D0012043
:1015600010BD232380F851300023D46844F0804418
:10157000D460491C042900D3091F00EB8102D26A00
:101580005B1C042BF1D30121C16401680A6842F09D
:1015900002020A6001680A6842F001020A600168FA
:1015A000D1F8002D42F00102C1F8002D016801F5CB
:1015B0008051D1F8042142F00102C1F804210168F0
:1015C00001F58051D1F8082142F00102C1F808214B
:1015D000016801F58051D1F8602142F48172C1F8AF
:1015E0006021102180F85110222180F852100068EB
:1015F00000F58050D0F834114DF241021143C0F88B
:101600003411002010BD2DE9F04104461546002993
:1016100006D094F85100102808D00120BDE8F081D0
:10162000606D40F0010060650120F7E70022204670
:10163000FFF77AF828B1606D40F002006065012084
:10164000ECE7A06A04EB80018F69401CA0620428CB
:1016500001D3001FA062A06A04EB800081692068AA
:1016600000F58050C0F8201100F060F906464FF0F8
:1016700010081DE0206800F58050D0F86001C0041B
:101680000ED5606D40F008006065206800F5805060
:10169000D0F86001A065E02084F851000120BDE78A
:1016A000681C05D000F042F9801BA84207D835B16C
:1016B000F8680028DEDB84F851800020AEE7606D1A
:1016C00040F00400606584F851800120A6E7000026
:1016D00070B505462868D0F80042E40701D0012023
:1016E00070BDD0F8000220F0787040EA415020F43C
:1016F000F81040EA024020F00C00001D40F001000C
:101700000B499AB24A60086000F010F904464FF4A1
:101710007A7606E000F00AF9001BB04201D90120F8
:1017200070BD2868D0F80002C007F3D170BD00007A
:10173000008202402DE9F84F00226D4C4FF0B04A74
:101740004FF001094FF0030E4FF00F0809FA02F7AE
:101750000B683B40BB4270D14D68022D01D0122D69
:1017600012D1D50800EB850CDCF820605507ED0E92
:1017700008FA05FB26EA0B06D1F810B00BFA05FBB8
:101780004BEA060BCCF820B0D0F800C055000EFA9A
:1017900005F62CEA060C91F804B00BF0030B0BFADB
:1017A00005FB4BEA0C0BC0F800B0D1F804C0BCF14B
:1017B000010F08D0BCF1020F05D0BCF1110F02D00F
:1017C000BCF1120F16D1D0F808C02CEA060CD1F8E3
:1017D0000CB00BFA05FB4BEA0C0BC0F808B0D0F8C4
:1017E00004C02CEA070C0F79C7F30017974047EAAB
:1017F0000C074760C768B7438E68AE403E43C6607B
:101800004D68ED006DD53B4D2E6846F002062E600A
:101810002D6805F00205009522F0030606F1B0469A
:10182000D6F808C495072F0F08FA07F52CEA050C1F
:10183000314DA84202D100252EE052E02F4DA842A2
:1018400001D1012528E02E4DA84201D1022523E037
:101850002C4DA84201D103251EE02B4DA84201D1F9
:10186000042519E0294DA84201D1052514E0284D91
:10187000A84201D106250FE0264DA84201D1072537
:101880000AE0254DA84201D1082505E0234DA842D4
:1018900001D1092500E00A25BD4045EA0C05C6F83E
:1018A000085425689D434E68F60300D51D43256006
:1018B00065689D434E68B60300D51D436560DAF840
:1018C00000509D434E68F60200D51D43CAF80050F3
:1018D000DAF804509D434E68B60200D51D43CAF89D
:1018E0000450521C102AFFF431AFBDE8F88F0000FD
:1018F00080000058F44402580000025800040258C6
:1019000000080258000C0258001002580014025837
:1019100000180258001C02580020025800240258E7
:10192000002A01D0018370474183704701488068D5
:1019300070470000080000240248816802781144C2
:10194000816070470800002410B5032000F0DEF825
:10195000002000F007F808B1012010BD00F070F879
:10196000002010BD70B504460D4D4FF47A712878F3
:10197000B1FBF0F00B490968B1FBF0F000F08BFF10
:1019800008B1012070BD102C07D200222146501E44
:1019900000F09CF86C60002070BD012070BD00005C
:1019A0000800002414000024144A41781160111D1D
:1019B00003780A1D002B1CD043680B60017BC37A9F
:1019C000090741EA0361837A41EAC341437B41EA63
:1019D0008341837B41EA4341C37B41EA0341437A2C
:1019E00041EA0321037A007841EA4301014311608F
:1019F00070470020086010607047000098ED00E01C
:101A0000BFF35F8F0448016821F48031016002490F
:101A1000002070310860704724ED00E0074940F075
:101A20000100086005487038016841F480310160A8
:101A3000BFF34F8FBFF36F8F7047000094ED00E04E
:101A400008B51A48016841F002010160006800F021
:101A500002000090032000F059F800226FF00B0004
:101A6000114600F033F800226FF00A00114600F032
:101A70002DF800226FF00900114600F027F800222F
:101A8000501F114600F022F80022101F114600F0EE
:101A90001DF80022901E114600F018F80022BDE843
:101AA0000840501E114600F011B80000F4440258DE
:101AB000002809DB012100F01F029140400980004D
:101AC00000F1E020C0F8001170470000F0B40D46AE
:101AD0000D4B1B68C3F30223C3F10704042C00D988
:101AE0000424191D072901D2002300E0DB1E012672
:101AF00006FA04F1491E294099409E40761E164080
:101B00003143F0BC02F01AB80CED00E000F0070120
:101B1000054A10684FF6FF03184040EA01200349C8
:101B200008431060704700000CED00E00000FA056B
:101B300010B500F007FB084909684FF4807292FA6B
:101B4000A2F201F47061B2FA82F2D140034A515C10
:101B5000C8400349086010BD18440258F4C5000885
:101B60001400002410B500F0A7FA074909681022F4
:101B700092FAA2F201F07001B2FA82F2D140034A65
:101B8000515CC84010BD000020440258F4C5000854
:101B900030B55F490A6802F003020968C1F30531F4
:101BA0005B4B1B1D1B6803F01003594C1434246855
:101BB000C4F3CC0414FB03F300EE103AB8EE400A71
:101BC000DFED540A524BB7EE001A1033002A42D010
:101BD000514C012A73D0022A70D0B4FBF1F101EE0E
:101BE000901A1968B8EE612AC1F3080101EE901A43
:101BF000F8EE611A40EE201A31EE810A22EE000A58
:101C00001968C1F34621491C00EE901AF8EE600AEB
:101C100080EE201AFCEEC10AC0ED000A1968C1F37B
:101C20000641491C00EE901AF8EE600A80EE201A78
:101C3000FCEEC10AC0ED010A1968C1F30661491C36
:101C400000EE901AF8EE600A80EE201ABCEEC10A8F
:101C500080ED020A30BD2E4C283C226895062F4AA2
:101C600017D52468C4F3C104E240B2FBF1F101EEE0
:101C7000901A1968B8EE612AC1F3080101EE901AB2
:101C8000F8EE611A40EE201A31EE810A22EE000AC7
:101C9000B6E7B2FBF1F101EE901A1968B8EE612ACD
:101CA000C1F3080101EE901AF8EE611A40EE201A15
:101CB00031EE810A22EE000AA2E700E013E0B4FB55
:101CC000F1F101EE901A1968B8EE612AC1F308012A
:101CD00001EE901AF8EE611A40EE201A31EE810AF8
:101CE00022EE000A8CE70E4AB2FBF1F101EE901AE7
:101CF0001968B8EE612AC1F3080101EE901AF8EEF6
:101D0000611A40EE201A31EE810A22EE000A77E7CE
:101D1000284402580000003900093D000090D0031B
:101D200040787D0130B55F490A6802F00302096816
:101D3000C1F305515B4B1B1D1B6803F48073594CA9
:101D40001C342468C4F3CC0414FB03F300EE103AF3
:101D5000B8EE400ADFED540A524BB7EE001A1833C2
:101D6000002A42D0514C012A73D0022A70D0B4FB11
:101D7000F1F101EE901A1968B8EE612AC1F3080179
:101D800001EE901AF8EE611A40EE201A31EE810A47
:101D900022EE000A1968C1F34621491C00EE901A90
:101DA000F8EE600A80EE201AFCEEC10AC0ED000ACF
:101DB0001968C1F30641491C00EE901AF8EE600A5A
:101DC00080EE201AFCEEC10AC0ED010A1968C1F3C9
:101DD0000661491C00EE901AF8EE600A80EE201AA7
:101DE000BCEEC10A80ED020A30BD2E4C283C2268B0
:101DF00095062F4A17D52468C4F3C104E240B2FB0C
:101E0000F1F101EE901A1968B8EE612AC1F30801E8
:101E100001EE901AF8EE611A40EE201A31EE810AB6
:101E200022EE000AB6E7B2FBF1F101EE901A196852
:101E3000B8EE612AC1F3080101EE901AF8EE611ABA
:101E400040EE201A31EE810A22EE000AA2E700E0FD
:101E500013E0B4FBF1F101EE901A1968B8EE612AB3
:101E6000C1F3080101EE901AF8EE611A40EE201A53
:101E700031EE810A22EE000A8CE70E4AB2FBF1F144
:101E800001EE901A1968B8EE612AC1F3080101EE5B
:101E9000901AF8EE611A40EE201A31EE810A22EE15
:101EA000000A77E7284402580000003900093D0085
:101EB0000090D00340787D01704700002DE9F04785
:101EC00004460E46DFF8CC81D8F8000000F0070089
:101ED000B0420FD2D8F8000020F007003043C8F815
:101EE0000000D8F8000000F00700B04202D0012046
:101EF000BDE8F0872078684F800705D53868E1682D
:101F000020F00F00084338602078C00770D0386890
:101F1000A16820F47060084338605F496068183930
:101F2000022808D003280BD001280ED009684907E1
:101F300010D40120DCE7096889030BD40120D7E71E
:101F40000968890106D40120D2E70968C90501D4CE
:101F50000120CDE7DFF84091A9F10809D9F8001078
:101F600021F007010143C9F80010FFF7DFFC054627
:101F7000606841F2883A02280BD0032817D0012864
:101F800023D030E0FFF7D2FC401B504501D903209D
:101F9000AEE7D9F80000C0F3C2000228F2D127E072
:101FA000FFF7C4FC401B504501D90320A0E7D9F836
:101FB0000000C0F3C2000328F2D119E0FFF7B6FC1D
:101FC000401B504501D9032092E7D9F80000C0F327
:101FD000C2000128F2D10BE0FFF7A8FC401B5045DE
:101FE00001D9032084E7D9F8000010F0380FF3D1AD
:101FF000D8F8000000F00700B0420ED9D8F8000071
:1020000020F007003043C8F80000D8F8000000F0C6
:102010000700B04201D001206AE72078400705D5CB
:102020003868216920F070000843386020781B4927
:10203000000705D50868626920F070001043086049
:102040002078C00605D50868A26920F4E060104336
:1020500008602078800607D51049091D0868E269E4
:1020600020F070001043086000F06CF839684FF4FD
:10207000807292FAA2F201F47061B2FA82F2D14057
:10208000074A515CC840074908600020FFF76AFC16
:1020900000202DE700200052184402581C4402582A
:1020A000F4C50008140000240248016841F400212E
:1020B000016070470044025810B5FFF739FD084928
:1020C0000968012292FAA2F201F00F01B2FA82F23B
:1020D000D140044A515CC8400349086010BD00006B
:1020E00018440258F4C500081800002410B5FFF782
:1020F000E3FF07490968102292FAA2F201F0700189
:10210000B2FA82F2D140034A515CC84010BD0000CF
:102110001C440258F4C5000810B5FFF7CDFF07496D
:1021200009684FF4807292FAA2F201F4E061B2FA07
:1021300082F2D140024A515CC84010BD1C44025892
:10214000F4C50008F0B55C4800685D4D10F038013A
:102150005A4809D0041108290ED05A4E10290DD022
:1021600018290DD02046F0BD29688906FBD52968BD
:10217000C1F3C101C840F0BD2046F0BD3046F0BDFE
:102180004D4918310A6802F003020968C1F30511CC
:10219000494B1C331B6803F00103474F24373F684A
:1021A000C7F3CC0717FB03F300EE103AB8EE400A72
:1021B000DFED450A404BB7EE001A20332AB3012A5F
:1021C00052D0022A64D0B4FBF1F001EE900A1868F4
:1021D000B8EE612AC0F3080001EE900AF8EE611A29
:1021E00040EE201A31EE810A22EE000A1868C0F390
:1021F0004620401C00EE900AF8EE600A80EE201A9D
:10220000BCEEC10A10EE100AF0BD2A68920617D57E
:102210002A68C2F3C102D040B0FBF1F001EE900A8F
:102220001868B8EE612AC0F3080001EE900AF8EED3
:10223000611A40EE201A31EE810A22EE000AD5E73B
:10224000B0FBF1F001EE900A1868B8EE612AC0F315
:10225000080001EE900AF8EE611A40EE201A31EE05
:10226000810A22EE000AC1E7B4FBF1F001EE900A08
:102270001868B8EE612AC0F3080001EE900AF8EE83
:10228000611A40EE201A31EE810A22EE000AADE713
:10229000B6FBF1F001EE900A1868B8EE612AC0F3BF
:1022A000080001EE900AF8EE611A40EE201A31EEB5
:1022B000810A22EE000A99E7104402580090D003E8
:1022C0000044025840787D010000003910B50648EE
:1022D0000068400506D5FFF7EFFD03494FF4806025
:1022E000091D086010BD0000644402582DE9F04744
:1022F0000446FC4FFC4EFD4D2078C0075FD0386887
:10230000C0F3C20002281FD03868C0F3C2000328FF
:1023100004D1306800F00300022815D06068B0F5E1
:10232000803F19D0E8B1B0F5A02F23D0286820F461
:1023300080302860286820F480202860606870B3AE
:10234000FFF7F4FA804626E02868800337D56068F6
:1023500020BB0120BDE8F087286840F48030286069
:10236000ECE7286820F480302860286820F480207A
:102370002860E3E7286840F480202860286840F45B
:1023800080302860DAE7FFF7D1FAA0EB0800642874
:1023900001D90320DEE728688003F4D50FE0FFE7CA
:1023A000FFF7C4FA804607E0FFF7C0FAA0EB080089
:1023B000642801D90320CDE728688003F4D420786D
:1023C000DFF82C9380076FD538684FF47C3A10F013
:1023D000380F12D03868C0F3C200032802D1306829
:1023E00080070AD0E06890B3296821F01901014301
:1023F0002960FFF79BFA804632E02868400701D544
:10240000E06848B12868E16820F0190008432860B6
:10241000FFF78CFA804609E001209BE7FFF786FA78
:10242000A0EB0800022801D9032093E728684007A1
:10243000F4D5D9F800009AFAAAF220F47C31206988
:10244000B2FA82F290400143C9F800102CE018E083
:10245000FFF76CFAA0EB0800022801D9032079E706
:1024600028684007F4D5D9F800009AFAAAF2216941
:10247000B2FA82F220F47C3091400843C9F800009F
:1024800012E0286820F001002860FFF74FFA80462C
:1024900007E0FFF74BFAA0EB0800022801D9032060
:1024A00058E728684007F4D42078C0065DD538681E
:1024B0004FF0F84AC0F3C200012813D03868C0F3C7
:1024C000C200032804D1306800F00300012809D0BD
:1024D000E069B0B3286840F080002860FFF726FA72
:1024E00080461DE02868C00504D5E069802801D039
:1024F00001202FE7D9F800009AFAAAF2216AB2FA6D
:1025000082F220F0F84091400843C9F800002CE026
:10251000FFF70CFAA0EB0800022801D9032019E705
:102520002868C005F4D5D9F800009AFAAAF2216A01
:10253000B2FA82F220F0F84091400843C9F8000056
:1025400013E0FFE7286820F080002860FFF7EEF92D
:10255000804607E0FFF7EAF9A0EB0800022801D95E
:102560000320F7E62868C005F4D42078000732D5A8
:10257000DFF87491606909F14C09B0B1D9F8000035
:1025800040F00100C9F80000FFF7D0F9804607E0ED
:10259000FFF7CCF9A0EB0800022801D90320D9E607
:1025A000D9F800008007F3D515E0D9F8000020F035
:1025B0000100C9F80000FFF7B9F9804607E0FFF70E
:1025C000B5F9A0EB0800022801D90320C2E6D9F82A
:1025D00000008007F3D42078800628D5A06998B140
:1025E000286840F480502860FFF7A0F9804607E093
:1025F000FFF79CF9A0EB0800022801D90320A9E607
:1026000028688004F4D512E0286820F480502860FF
:10261000FFF78CF9804607E0FFF788F9A0EB080088
:10262000022801D9032095E628688004F4D4207894
:1026300040077ED5DFF8BC80D8F8000040F48070F9
:10264000C8F80000FFF772F9814607E0FFF76EF95E
:10265000A0EB0900642801D903207BE6D8F800002C
:10266000C005F3D5DFF88080A06808F1480801288C
:1026700016D0E0B1052827D0D8F8000020F00100DE
:10268000C8F80000D8F8000020F00400C8F80000E6
:10269000A06841F2883A20B3FFF748F9814633E059
:1026A000D8F8000040F00100C8F80000F0E7D8F8C2
:1026B000000020F00100C8F80000D8F8000020F069
:1026C0000400C8F80000E3E7D8F8000040F0040078
:1026D000C8F80000D8F8000040F00100C8F8000079
:1026E000D6E716E010440258284402580044025825
:1026F0000444025800480258FFF718F9A0EB0900FB
:10270000504501D9032025E6D8F800008007F3D50D
:102710000FE0FFF70BF9814607E0FFF707F9A0EBA1
:102720000900504501D9032014E6D8F800008007BD
:10273000F3D4606AE8B33968C1F3C201032975D0E4
:10274000022807D0286820F080702860FFF7EEF894
:1027500004467EE0286820F080702860FFF7E6F8E5
:10276000074606E0FFF7E2F8C01B022801D9032064
:10277000F0E528688001F5D4306840F2F3318843F1
:10278000E16A40EA0110A16A08433060208E4FF6EA
:10279000FF72616B401E491EC0F3080002EA41212E
:1027A0000843218F4FF4FE02491E02EA014108430B
:1027B00000E051E094F83C10491E120202EA016167
:1027C000084327490860081D01684FF6F872A36C9A
:1027D000914392FAA2F2B2FA82F293401943016055
:1027E0001F48001F0168226C21F00C011143016099
:1027F0000168626C21F0020111430160016841F43B
:1028000080310160016841F400310160016841F4E8
:1028100080210160016841F001010160286840F0F9
:1028200080702860FFF782F8044607E016E0FFF7A3
:102830007DF8001B022801D903208BE52868800160
:10284000F5D509E0FFF772F8001B022801D9032033
:1028500080E528688001F5D400207BE5012079E53A
:102860003044025803490A6822F4600202430A60B5
:10287000704700000404005804284FF0E02104D001
:10288000086920F0040008617047086940F00400FE
:1028900008617047704710B5401EB0F1807F01D3CA
:1028A000012010BD4FF0E02460610F21601701F09E
:1028B00045F90020A06107202061002010BD10B55F
:1028C000FFF7E8FF10BD7047704700002DE9F041A9
:1028D00004462368D8691A68996800F00F05002D2E
:1028E0000CD186060AD502F0200601F080573E433F
:1028F00004D02046BDE8F04100F0BBBB002D74D0F1
:10290000524D02F490760D4035436ED0C50707D086
:10291000D50505D501251D62E36F43F00103E3678B
:10292000830708D5CB0706D0256802232B62E36F07
:1029300043F00403E367430708D5CB0706D02568B7
:1029400004232B62E36F43F00203E36703070ED512
:1029500002F0200301F080552B4301D1CB0706D0B4
:10296000256808232B62E36F43F00803E367E36FF6
:10297000002B2DD0800608D502F0200001F08051F8
:10298000084302D0204600F074FBE06F000703D438
:1029900020688068400621D5204600F04FFB206863
:1029A0008168490616D5816821F040018160606F19
:1029B00058B127490165606FFEF798F9002807D0E4
:1029C000606F016DBDE8F04108472046FFF77CFFCE
:1029D000BDE8F0812046FFF777FFF9E72046FFF7D3
:1029E00073FF0020E067F3E7FFE7C5020ED54D0255
:1029F0000CD54FF480101862202084F8790084F8F8
:102A00007A002046BDE8F041FFF75DBF05060AD514
:102A100002F0800501F400010D4304D02046BDE81A
:102A2000F04100F0FEBE410606D5510604D5204611
:102A3000BDE8F04100F010BB0002C9D55000C7D579
:102A4000186820F080401860C2E700000100001004
:102A50002930000810B50446002C03D094F8790002
:102A600010B107E0012010BD002084F87800204656
:102A700000F028F8242084F879002068016821F00B
:102A800001010160204600F031FB012818D0606B85
:102A900010B1204600F036FA2068416821F49041D8
:102AA00041602068816821F02A0181602068016806
:102AB00041F0010101602046BDE8104000F086BAF7
:102AC000012010BD704770472DE9F84304460D46BC
:102AD00091461E4694F87900202802D00220BDE8D5
:102AE000F883B5B1B9F1000F13D094F8780001283C
:102AF00011D0012084F878000027E767212084F8AE
:102B00007900FEF713FF8046A4F86090A4F8629065
:102B10001CE00120E3E70220E1E7B4F86200401E78
:102B2000A4F862000022434680212046009600F06F
:102B3000B2FE08B10320D2E7A068B0F5805F01D1F2
:102B4000206988B1216815F8010B0885B4F8620086
:102B50000028E2D10022434640212046009600F0A2
:102B60009AFE40B10320BAE7216835F8020BC0F3A2
:102B700008000885EAE7202078346070277000207C
:102B8000ADE77047FEE708B5002000906946FDF705
:102B9000ABFD009840F48050009081B20020FDF71A
:102BA000B3FD08BD10B500F073FF0D480B4901607F
:102BB0004FF4E131416000218160C16001610C226C
:102BC00042618161C161016241628162C1620163EE
:102BD0004163BDE81040FFF73DBF000000480040E2
:102BE00000020024FEE700001FB5002400940194B9
:102BF00002940394FEF704FF01208DF800000F49B2
:102C0000019107218DF8081003218DF80B108DF824
:102C10000F008DF80E408DF80D0005208DF8010095
:102C20008DF80A408DF809408DF80C406846FEF793
:102C3000BBFE0420FEF7F2FE1FBD000000000430C2
:102C4000FFF744BB10B586B0002407E0641CE4B273
:102C50000A2C03D900241FA000F04CFF00F056FE00
:102C60000028F3D104F053FC1F4805906FF07F401B
:102C700004901E4803908A2003230090A822C021BC
:102C80001BA000F037FFFF2300241A4620A019469E
:102C9000009400F02FFF012000900323A822C02100
:102CA00023A000F027FF2B4903AB294804AA029078
:102CB0002948CDE9004105A904F0C6FF264805F0E2
:102CC0006FF8254803F052F82449234805F0B4F87A
:102CD00006B010BD4C414E38373230B3F5CABCBBDC
:102CE000AFCAA7B0DC0A0000C0A8038AC0A80301CD
:102CF000BEB2CCAC4950B5D8D6B72E2E2E2E2E2E25
:102D00002E25642E25642E25642E25640D0A0000D0
:102D1000D7D3CDF8D1DAC2EB2E2E2E2E2E20202E98
:102D20002E25642E25642E25642E25640D0A0000B0
:102D3000C4ACC8CFCDF8B9D82E2E2E2E2E2E2E20D4
:102D40002E25642E25642E25642E25640D0A000090
:102D50000D5C0008015F0008D80000246D5D0008CC
:102D60007047000070B50F4900200860BFF34F8F17
:102D7000081F0068C0F34E310B4A43F6FF76C0F3DC
:102D8000C905284606EA411343EA80741460401ED0
:102D9000441CF9D1491E481CF3D1BFF34F8FBFF338
:102DA0006F8F70BD84ED00E074EF00E0704710B5E8
:102DB000FEF7C2FDBDE81040FFF781BD30B59DB004
:102DC0004C210AA8FDF7E1FA202102A8FDF7DDFA5F
:102DD0002848016821F004010160002425480C30D6
:102DE000016841F440410160016801F440410191F2
:102DF00001688904FCD52048016821F00301891C81
:102E0000016001200A9000040B900220139014909E
:102E100005211591A0211691179018901990082559
:102E20001A951B941C940AA8FFF760FA3F200290A1
:102E3000032003900494059540200690079001011B
:102E400008910990022102A8FFF738F8FFF72CF942
:102E50000A484FF47A710068B0FBF1F0FFF71BFDF0
:102E60000420FFF709FD0022501E1146FEF72EFE3A
:102E70001DB030BD0C4802582844025814000024EC
:102E80001C48016841F4700101601B49086840F06A
:102E900001000860184A0020103210600A68174BC1
:102EA0001A400A60144A18321060121D1060121D78
:102EB0001060114A28321060121D1060121D10603F
:102EC000121D1060121D1060121D1060121D106086
:102ED000121D10600A6822F480220A6006496031DF
:102EE0000860012006490860C00602498039086070
:102EF0007047000088ED00E0004402587FEDF6EADC
:102F00000881005190F83410C90706D001684A685A
:102F1000836B22F400321A434A6090F83410890718
:102F200006D501684A68C36B22F480321A434A60AE
:102F300090F83410490706D501684A68036C22F4FA
:102F400080221A434A6090F83410090706D50168B8
:102F50004A68436C22F400421A434A6090F83410E5
:102F6000C90606D501688A68836C22F480521A4328
:102F70008A6090F83410890606D501688A68C36CA7
:102F800022F400521A438A6090F83410490611D591
:102F900001684A68036D22F480121A434A60016D89
:102FA000B1F5801F06D101684A68436D22F4C00262
:102FB0001A434A6090F83410090606D501684A6839
:102FC000806D22F4002202434A607047F8B504463F
:102FD0000026E667FEF7AAFC0746206800686FF047
:102FE0007E4500070AD500223B464FF400112046DB
:102FF000009500F050FC08B10320F8BD206800687F
:1030000040070AD500223B464FF480012046009538
:1030100000F041FC08B10320F8BD20207834607036
:10302000A07026700020F8BD10B5806B0021A0F8BC
:103030006A10A0F86210FFF747FC10BD01680A682B
:1030400022F490720A6001688A6822F001028A60A4
:10305000202180F87A10704710B501680A6822F0C4
:1030600040020A60202180F87910FFF78AFD0020D5
:1030700010BD10B5B0F86C2090F87A300168222BA2
:1030800005D0088B40F008000883022010BD898C11
:103090008368B3F5805F01D1036973B11140426E5B
:1030A000531C43661170B0F86A10491E0904090CDC
:1030B000A0F86A1008D0002010BD436E114019809E
:1030C000416E891C4166EEE701680A6822F490723D
:1030D0000A6001688A6822F001028A60202180F873
:1030E0007A10FFF7F0FC002010BD00002DE9F04F32
:1030F00087B00446802500210027FD4B2068AE05DF
:10310000A26AD4F808C0D4F81080D4F81C904CEA15
:10311000080CD4F8148048EA09084CEA080C42EA82
:103120000C02D0F800C0DFF8CC830CEA080C4CEAA3
:10313000020CC0F800C020684268D4F80CC022F429
:10314000405242EA0C024260A06922689A4203D0CF
:10315000D4F820C04CEA0000D4F828C0B44504D10B
:10316000D4E90B6C46EA0C0630439668DFF888C356
:1031700006EA0C06064396602068C26A666A22F078
:103180000F023243C262DD4E2068DD4AB0421CD1DC
:10319000126802F03802182A11D005DC4AB1082A58
:1031A00009D0102A06D108E0202A0AD0282A01D105
:1031B00009E00125D8E00425D6E04025D4E0082523
:1031C000D2E01025D0E02025CEE0CE4EB04215D181
:1031D000126802F00702062A05D2DFE802F00305B2
:1031E00007090B0D0025BFE00425BDE04025BBE02D
:1031F0000825B9E01025B7E02025B5E0C24EB04261
:1032000015D1126802F00702062A05D2DFE802F0A3
:10321000030507090B0D0025A6E00425A4E04025C1
:10322000A2E00825A0E010259EE020259CE0B74EF6
:10323000B04215D1126802F00702062A05D2DFE873
:1032400002F0030507090B0D00258DE004258BE036
:10325000402589E0082587E0102585E0202583E0CA
:10326000AB4EB04215D1126802F00702062A7BD29B
:10327000DFE802F0030507090B0D002574E00425C3
:1032800072E0402570E008256EE010256CE02025F6
:103290006AE0A04EB0421CD1126802F03802182A2F
:1032A00011D005DC4AB1082A09D0102A5CD108E007
:1032B000202A0AD0282A57D109E0012554E0042504
:1032C00052E0402550E008254EE010254CE0202536
:1032D0004AE0914EB04215D1126802F00702062A68
:1032E00042D2DFE802F0030507090B0D00253BE0A1
:1032F000042539E0402537E0082535E0102533E086
:10330000202531E0854EB04215D1126802F0070247
:10331000062A29D2DFE802F0030507090B0D002574
:1033200022E0042520E040251EE008251CE01025B1
:103330001AE0202518E0984216D1714A121D126831
:1033400002F00702062A0FD2DFE802F003050709A0
:103350000B0D022508E0042506E0402504E00825C1
:1033600002E0102500E02025DFF8B891DFF890A1F9
:1033700098426B4E4FEA291BAAF1540A7ED10020D5
:10338000102D33D006DC022D16D0042D17D0082DB9
:1033900004D11EE0202D2BD0402D15D00127002870
:1033A00009D0D4F8048008EB4801814202D8B0EB80
:1033B000083F20D90127ACE1FEF7D4FBEFE704A8D2
:1033C000FEF7E6FB0598EAE701A8FEF7ABFC0298DA
:1033D000E5E7DAF80000800606D5DAF80000C0F369
:1033E000C10029FA00F0DAE74846D8E75846D6E7A0
:1033F0004FF40040D3E729460025102975D006DC9C
:10340000022911D0042924D0082904D151E020290F
:103410006CD0402936D00127434AA0F54071914233
:1034200065D82168C86074E1FEF79CFB626A0023DE
:10343000294636F81220FCF74BFF626809020302A6
:1034400041EA10615008181869410023FCF740FF59
:10345000E2E704A8FEF79CFB616A0023059836F8B2
:1034600011201946FCF734FF62680902030241EAA1
:103470001061500818186941002300E09BE0FCF738
:1034800027FFC9E701A8FEF74DFC616A00230298F7
:1034900036F811201946FCF71BFF62680902030287
:1034A00041EA10615008181869410023FCF710FF29
:1034B000B2E7DAF8000080063BD5DAF80000002316
:1034C000616AC0F3C10036F81120194629FA00F0EC
:1034D000FCF7FEFE0902020241EA10614FEA5800C1
:1034E000101842466941002320E037E04BE060E0DD
:1034F000000C0058F369FFCFFFF4FF1100100140EA
:10350000544402580044004000480040004C004031
:10351000005000400014014000780040007C004052
:10352000DCC500080090D003FFFC0F00FCF7D0FEC4
:1035300072E7606A0023194636F810204846FCF707
:10354000C7FE0902020241EA10614FEA5800101852
:10355000424669410023FCF7BBFE5DE7606A002339
:10356000194636F810205846FCF7B2FE090202024E
:1035700041EA10614FEA58001018424669410023A1
:10358000FCF7A6FE48E7606A0023194636F81020CB
:103590004FF40040FCF79CFE0902020241EA106170
:1035A0004FEA58001018424669410023FCF790FE8C
:1035B00032E70127ADE0E3694FF4004293426ED158
:1035C000082D55D005DC9DB1012D20D0042D06D14C
:1035D0002CE0102D73D0202D7ED0402D37D0012728
:1035E00021F00F00C1F3420108432168C86090E058
:1035F000FEF77CFD616A36F81110B0FBF1F0410076
:10360000606801EB5001B1FBF0F081B2E8E7FEF732
:1036100083FD616A36F81110B0FBF1F0410060687B
:1036200001EB5001B1FBF0F081B2D9E704A8FEF73D
:10363000AFFA616A059836F81110B0FBF1F041005D
:10364000606801EB5001B1FBF0F081B2C8E701A85E
:10365000FEF768FB616A029836F81110B0FBF1F0D2
:103660004100606801EB5001B1FBF0F081B2B7E7B7
:10367000DAF80000800613D5DAF80000C0F3C100C4
:1036800029FA00F9606A36F81000B9FBF0F0410041
:10369000606801EB5001B1FBF0F081B2A0E728E0D7
:1036A000606A36F81000B9FBF0F04100606801EB89
:1036B0005001B1FBF0F081B292E700E00CE0606AEB
:1036C00036F81000BBFBF0F04100606801EB5001E0
:1036D000B1FBF0F081B283E7606A36F81000B2FB0C
:1036E000F0F04100606801EB5001B1FBF0F081B2F5
:1036F00076E7082D55D005DC7DB1012D1DD0042DB8
:1037000006D12AE0102D72D0202D7DD0402D36D04C
:10371000012707B03846BDE8F08FFEF7E7FC616A85
:1037200036F81110B0FBF1F1606801EB5001B1FB0C
:10373000F0F0216880B2C860EBE7FEF7EDFC616A4B
:1037400036F81110B0FBF1F1606801EB5001B1FBEC
:10375000F0F0216880B2C860DBE704A8FEF718FA31
:10376000616A059836F81110B0FBF1F1606801EB61
:103770005001B1FBF0F0216880B2C860C9E701A830
:10378000FEF7D0FA616A029836F81110B0FBF1F139
:10379000606801EB5001B1FBF0F0216880B2C860B5
:1037A000B7E7DAF80010890612D5DAF80010C1F38D
:1037B000C10129FA01F9616A36F81110B9FBF1F279
:1037C000616802EB5102B2FBF1F189B2C160A0E77E
:1037D000616A36F81110B9FBF1F2616802EB51022F
:1037E000B2FBF1F189B2C16093E700E00CE0616ADD
:1037F00036F81110BBFBF1F2616802EB5102B2FB2B
:10380000F1F189B2C16084E7616A36F81110B2FB48
:10381000F1F2616802EB5102B2FBF1F189B2C160D1
:1038200077E790F87910212901D002207047B0F88D
:10383000621021B18168B1F5805F14D015E0016894
:103840000A68920004D58A6822F400028A6003E0C4
:103850000A6822F080020A600068016841F04001B5
:10386000016000207047016959B1C16D4A1CC265F1
:1038700002680978118530F8621F491E0180002016
:103880007047C16D02680988C1F308011185C16DD7
:10389000891CC165EFE72DE9F04104460E46174645
:1038A0009846069D1DE0681C1BD02DB1FEF73EF822
:1038B000A0EB0800A84214D92068016821F4D07157
:1038C00001602068816821F001018160202084F876
:1038D000790084F87A00002084F878000320BDE89D
:1038E000F0812068C06936EA000004D00020B842A8
:1038F000D9D00020F3E70120F9E700000148FEF7E6
:10390000E5BF000000020024FEE70000FEB5002431
:10391000002002900025FFF767F937A003C8CDE922
:103920000001384836490160C0F804D00121017215
:10393000354901613549C1604FF4BF614161FDF70F
:10394000F7FB3048FDF7C8FD00204FF40041FCF7BD
:10395000DBFE00284FF4FA761BDB002002A9FCF7FF
:10396000C3FE671F00280EDA11E0002002A9FCF751
:10397000BBFE002801DA3D460DE00A20FDF70AFAF9
:10398000641CB44207D202980004EED403E03D4622
:1039900001E06FF00305FFF7F6F81DB94FF47A70F8
:1039A000FDF7F8F9002407E00A20FDF7F3F9641C9D
:1039B000B44201D3012503E0FDF744F90128F3D90E
:1039C000FDF740F9022806D0032808D004280AD0C1
:1039D00005280CD00EE00EA000F08CF80AE014A030
:1039E00000F088F806E01AA000F084F802E020A0B9
:1039F00000F080F82846FEBD020000000000000034
:103A000000800240140100240000043060000430F3
:103A10004C414E38373230413A3130304D622F739D
:103A20002046756C6C4475706C65780D0A0000005A
:103A30004C414E38373230413A3130304D622F737D
:103A40002048616C664475706C65780D0A00000052
:103A50004C414E38373230413A31304D622F73206D
:103A600046756C6C4475706C65780D0A000000003A
:103A70004C414E38373230413A31304D622F73204D
:103A800048616C664475706C65780D0A0000000032
:103A900000B587B01548016841F4802101600068D5
:103AA00000F48020019011480838016841F00201BB
:103AB0000160006800F0020001904FF44060029045
:103AC0000220039000200490032005900720069018
:103AD000074802A9FDF72EFE002227201146FDF718
:103AE000F5FF2720FDF7E4FF07B000BDE8440258CA
:103AF000000402580FB4054B10B503A9044A0298FC
:103B000000F03CF810BC5DF814FB0000BD5F00083D
:103B1000D40000240FB4084B10B504A902AA0398DE
:103B200000F02CF8044602A9002000F003F920461A
:103B300010BC5DF814FB0000353D00080907090EB4
:103B4000002804DB00F1E02080F80014704700F04A
:103B50000F0000F1E02080F8141D704702E008C853
:103B6000121F08C1002AFAD170477047002001E0F7
:103B700001C1121F002AFBD1704700002DE9FF4F41
:103B80008BB09A460F460546002606E025280BD046
:103B900052460D9990476D1C761C28780028F5D167
:103BA0000FB03046BDE8F08F0024A04601226049E6
:103BB00000E0044315F8013F203B02FA03F00842FD
:103BC000F7D128782E2817D115F8010F44F00404F6
:103BD0002A280ED06FF02F022878A0F13001092991
:103BE0000AD808EB880102EB410100EB01086D1CCB
:103BF000F2E757F8048B6D1C287869283ED006DC64
:103C00000028CDD063280BD0642804D136E0732877
:103C100010D075284BD052460D999047761C85E000
:103C200017F8040B8DF8000000208DF80100E9461C
:103C3000012003E057F8049B4FF0FF3061074FF07D
:103C4000000401D40AE0641C44450DDA8442FADB26
:103C500019F804100029F6D106E0641C8442FCDB4C
:103C600019F804100029F8D1264404E019F8010BD2
:103C700052460D999047641EF8D257E001CF4FF09D
:103C80000A0B002802DA40422D2102E0210504D56A
:103C90002B218DF82410012103E0E10705D020211C
:103CA000F7E70DF1200908910CE00021F9E701CFB9
:103CB0004FF00A0BF9E75946FCF77FFB01F13002A0
:103CC00009F8012D0028F6D1ADEB090000F1200B19
:103CD000600701D44FF00108D84502DDA8EB0B00C6
:103CE00000E000208046002406E009A85246005D5E
:103CF0000D999047641C761C08988442F5DB04E01B
:103D0000302052460D999047761CB8F10001A8F179
:103D10000108F5DC05E019F8010B52460D999047B2
:103D2000761CBBF10001ABF1010BF4DC6D1C34E738
:103D3000092801000A68531C0B60107070470000CE
:103D400010B504466068804720682246BDE81040F0
:103D5000014905F0A1B80000413D000800280BD042
:103D6000826A002A0FD0537A082B0CD10968926A14
:103D7000914208D100F0BABA03A340F27B3210A1FD
:103D800013A0FFF7B7BE70472E2E5C4D6964646CBC
:103D90006577617265735C54686972645F506172C3
:103DA00074795C4C7749505C7372635C636F7265C5
:103DB0005C697076345C646863702E630000000098
:103DC0006E6574696620213D204E554C4C00000004
:103DD000417373657274696F6E20222573222066A9
:103DE00061696C6564206174206C696E652025646E
:103DF00020696E2025730A002DE9FC410546002D3F
:103E00001AD0AC6A002C20D000272784636B4FF4B3
:103E100080384FF03C024FF0010C581C4FF6FF76F3
:103E20001DD01E33B3FBF2F0404500D3304683B2C1
:103E30006384002B11D012E030A340F2FE323DA18A
:103E400043A0FFF757FEBDE8FC812CA34FF480622E
:103E500049A13FA0FFF74EFEF5E7A4F822C0A36BEF
:103E6000581C0CD01E33B3FBF2F1414500D3314650
:103E70008BB223830BB9A4F818C0208BA083E36B0B
:103E8000581C0CD01E33B3FBF2F2424500D332462D
:103E900093B263830BB9A4F81AC0608BE083208BC4
:103EA000638B984201D303B12783E07A10B1E06AB3
:103EB00001900DE094F828307F2B02D8FF2001906C
:103EC00006E0C02B03D36FF07F40019000E0019625
:103ED000206B009028B9A06A0199084040F08070DA
:103EE00000900A21204600F08FFF01AA6B4604F1E2
:103EF0002801284603F02EFFA5E700002E2E5C4D7A
:103F00006964646C6577617265735C546869726436
:103F10005F50617274795C4C7749505C7372635C7A
:103F2000636F72655C697076345C646863702E637D
:103F300000000000646863705F62696E643A206E1E
:103F40006574696620213D204E554C4C00000000F0
:103F5000417373657274696F6E2022257322206627
:103F600061696C6564206174206C696E65202564EC
:103F700020696E2025730A00646863705F62696E51
:103F8000643A206468637020213D204E554C4C00FB
:103F900070B50546AC6A0821204600F035FF0022C6
:103FA000284604F1280101F0AFFBA07AFF2801D2D6
:103FB000401CA0724FF4FA7040F2E731B1FBF0F010
:103FC000E08270BD10B51748046828E0A16A09B303
:103FD000487AF8B1488C68B1088C401C80B20884DB
:103FE0004A8C904206D1204600F0E0FD204600F0C9
:103FF00055FA13E0C88B18B1421ECA83012806D0B7
:10400000888B38B1421E8A83012804D006E02046FE
:1040100000F028FF02E0204600F00FFF2468002C8B
:10402000D4D110BD700000242DE9F04105460C46A6
:104030001646002D2CD0002C35D0E068002806D084
:104040005CA340F21F7269A172A0FFF753FD2069C3
:10405000002806D057A34FF4E46278A16DA0FFF7C3
:1040600049FD00224FF49A771046394603F032FF9B
:10407000E060002821D04089B84206D24DA340F22A
:10408000277278A163A0FFF735FD032E1BD117E03F
:1040900048A340F21D7283A15EA0FFF72BFD6FF0D5
:1040A0000F00BDE8F08143A340F21E7285A159A024
:1040B000FFF720FD6FF00500F3E74FF0FF30F0E76A
:1040C000607A032807D1A07A864F10B9FCF732F93D
:1040D000786078682060E0684068206101210170A4
:1040E00020694170216995F83000887000272069A7
:1040F000C770206803F0FAF92169486020690781D8
:10410000206947812069C760082E0AD0042E08D094
:10411000072E06D0032E07D1607A052801D0042887
:1041200002D121696868C860206907612069476118
:1041300020698761002095F83010814205D9062852
:1041400003D2291891F8311000E00021236900F111
:104150001C029954401C80B21028ECD30020226924
:1041600000F12C015754401C80B24028F7D30020A6
:10417000226900F16C015754401C80B28028F7D3AB
:1041800021695948C1F8EC00A7820020226900F19A
:10419000F0015054401C80B24428F7D3012220463D
:1041A000352100F015FA3146204600F061FA002072
:1041B00077E700002E2E5C4D6964646C6577617250
:1041C00065735C54686972645F50617274795C4CA9
:1041D0007749505C7372635C636F72655C6970767B
:1041E000345C646863702E63000000006468637070
:1041F0005F6372656174655F6D73673A20646863BD
:10420000702D3E705F6F7574203D3D204E554C4CB7
:1042100000000000417373657274696F6E2022257F
:104220007322206661696C6564206174206C696E1C
:104230006520256420696E2025730A006468637018
:104240005F6372656174655F6D73673A206468636C
:10425000702D3E6D73675F6F7574203D3D204E5528
:104260004C4C0000646863705F6372656174655FE5
:104270006D73673A20636865636B207468617420AE
:10428000666972737420706275662063616E20685F
:104290006F6C642073747275637420646863705FFC
:1042A0006D736700646863705F6372656174655FF6
:1042B0006D73673A206E6574696620213D204E5506
:1042C0004C4C0000646863705F6372656174655F85
:1042D0006D73673A206468637020213D204E554C11
:1042E0004C0000001C000024638253637CB506462A
:1042F000B46A0C21204600F087FD04222146304696
:10430000FFF792FE0546280021D1042220463221E3
:1043100000F05EF9A06A03F0E9F80146204600F0DB
:1043200009FA204600F0CEFAA08AF03081B2E068A7
:1043300004F0B8FB0D4843230D4ACDE900600D4859
:10434000E168806808F0A8F8204600F015F8A07A27
:10435000FF2801D2401CA0724FF4FA7142F60310FC
:10436000B0FBF1F0E08228467CBD000004C60008E6
:1043700008C600081C00002410B50446002C03D019
:10438000E068002809D00FE0BDE810400FA340F21C
:104390006D721CA123A0FFF7ADBB0CA340F26E729F
:1043A0002AA120A0FFF7A6FB2069002806D107A3B9
:1043B00040F26F722FA11BA0FFF79CFBE06808B1D1
:1043C00004F008FA0020E060206110BD2E2E5C4D44
:1043D0006964646C6577617265735C546869726462
:1043E0005F50617274795C4C7749505C7372635CA6
:1043F000636F72655C697076345C646863702E63A9
:1044000000000000646863705F64656C6574655FDC
:104410006D73673A206468637020213D204E554CCF
:104420004C000000417373657274696F6E20222521
:104430007322206661696C6564206174206C696E0A
:104440006520256420696E2025730A006468637006
:104450005F64656C6574655F6D73673A206468635B
:10446000702D3E705F6F757420213D204E554C4C71
:1044700000000000646863705F64656C6574655F6C
:104480006D73673A20646863702D3E6D73675F6F6C
:10449000757420213D204E554C4C00002DE9FC4107
:1044A0008046D8F828400020A0620621204600F06F
:1044B000ABFC012221464046FFF7B6FD0746380017
:1044C0002FD102222046392100F082F8B8F82E10B0
:1044D000204600F0A9F903222046372100F078F8A1
:1044E00000251F4E2046715D00F0C2F86D1CEDB234
:1044F000032DF7D3204600F0E5F9A08AF03081B211
:10450000E06804F0CFFA17484323174ACDE900804A
:104510001348E168401E806807F0BEFF2046FFF7A1
:104520002BFFA07AFF2801D2401CA072A17A062995
:1045300002D20120884000E03C2000EB4001C1EBAA
:10454000C0104FF6FF7101EAC00000F2F3104FF403
:10455000FA71B0FBF1F0E0823846BDE8FC81000062
:104560001D00002404C6000808C6000870B50B48EA
:10457000046800250EE0A16A59B1C88A012803D950
:10458000A0F10100C88204E003D1CD82204600F0F2
:1045900080FC2468002CEED170BD00007000002467
:1045A000826A002A13D0517A002304290CD004DC3B
:1045B00000290CD0032904D106E0052904D00A29DA
:1045C00002D09372FFF76ABF937200F087BA704708
:1045D00070B504460E461546A81CA28A104444280D
:1045E00006D9184909A34FF4AE6217A0FFF782FA63
:1045F000A08A411CA1822169F0300E54A08A411C7E
:10460000A1822169F0300D5470BD00002E2E5C4D4A
:104610006964646C6577617265735C54686972641F
:104620005F50617274795C4C7749505C7372635C63
:10463000636F72655C697076345C646863702E6366
:104640000000000068C70008417373657274696FE9
:104650006E2022257322206661696C656420617476
:10466000206C696E6520256420696E2025730A0020
:1046700070B504460D46A08A442806D306A340F22E
:104680007B5213A121A0FFF735FAA08A411CA18219
:104690002169F0300D5470BD2E2E5C4D6964646C40
:1046A0006577617265735C54686972645F506172AA
:1046B00074795C4C7749505C7372635C636F7265AC
:1046C0005C697076345C646863702E63000000007F
:1046D000646863705F6F7074696F6E5F6279746530
:1046E0003A20646863702D3E6F7074696F6E735FFB
:1046F0006F75745F6C656E203C20444843505F4F7B
:104700005054494F4E535F4C454E00004173736502
:104710007274696F6E2022257322206661696C6550
:1047200064206174206C696E6520256420696E20A8
:1047300025730A0070B504460D46A08A001D442862
:1047400006D911A340F28A521DA12DA0FFF7D2F97C
:10475000A08A2A0E411CA1822169F0300A54A08A45
:104760002A0C411CA1822169F0300A54A08A2A0A2D
:10477000411CA1822169F0300A54A08A411CA18207
:104780002169F0300D5470BD2E2E5C4D6964646C4F
:104790006577617265735C54686972645F506172B9
:1047A00074795C4C7749505C7372635C636F7265BB
:1047B0005C697076345C646863702E63000000008E
:1047C000646863705F6F7074696F6E5F6C6F6E6743
:1047D0003A20646863702D3E6F7074696F6E735F0A
:1047E0006F75745F6C656E202B2034203C3D204437
:1047F0004843505F4F5054494F4E535F4C454E0015
:10480000417373657274696F6E202225732220666E
:1048100061696C6564206174206C696E6520256433
:1048200020696E2025730A0070B504460D46A08AE3
:10483000801C442806D9184909A318A040F28252C6
:10484000FFF758F9A08A2A0A411CA1822169F03099
:104850000A54A08A411CA1822169F0300D5470BD18
:104860002E2E5C4D6964646C6577617265735C546F
:10487000686972645F50617274795C4C7749505C0E
:104880007372635C636F72655C697076345C6468D4
:1048900063702E630000000024C700084173736535
:1048A0007274696F6E2022257322206661696C65BF
:1048B00064206174206C696E6520256420696E2017
:1048C00025730A0010B50446002C03D02069002887
:1048D00009D00FE0BDE8104016A340F2827223A178
:1048E0002BA0FFF707B913A340F2837232A128A0CF
:1048F000FFF700F9A08A442806D30EA340F2847281
:1049000038A123A0FFF7F6F8A08AFF22411CA1825C
:104910002169F0300A54002204E0411CA18221697F
:10492000F0300A54A08A442801D3810701D04428DA
:10493000F3D310BD2E2E5C4D6964646C6577617293
:1049400065735C54686972645F50617274795C4C21
:104950007749505C7372635C636F72655C697076F3
:10496000345C646863702E630000000064686370E8
:104970005F6F7074696F6E5F747261696C65723AB3
:10498000206468637020213D204E554C4C0000008F
:10499000417373657274696F6E20222573222066DD
:1049A00061696C6564206174206C696E65202564A2
:1049B00020696E2025730A00646863705F6F7074ED
:1049C000696F6E5F747261696C65723A20646863C6
:1049D000702D3E6D73675F6F757420213D204E55BD
:1049E0004C4C0A00646863705F6F7074696F6E5F2F
:1049F000747261696C65723A20646863702D3E6FF1
:104A00007074696F6E735F6F75745F6C656E203C58
:104A100020444843505F4F5054494F4E535F4C45DC
:104A20004E0A00002DE9F8430746BD6A04212846D6
:104A300000F0EAF9032229463846FFF7F5FA8046E6
:104A40005FEA08002CD1022228463921FFF7C0FD79
:104A5000F98D2846FFF7E8FE032228463721FFF7A5
:104A6000B7FD00241B4E2846315DFFF701FE641C94
:104A7000E4B2032CF7D32846FFF724FFA88AF030CE
:104A800081B2E86804F00EF8124843230097401EF4
:104A9000114AE968806807F0E3FC2846FFF76CFCE0
:104AA000A87AFF2801D2401CA872A87A0A2803D24B
:104AB0004FF47A71484301E042F2107080B200F284
:104AC000F3104FF4FA71B0FBF1F0E8824046BDE814
:104AD000F88300001D00002408C600082DE9F843F3
:104AE0000746BC6A0321204600F08EF903222146C6
:104AF0003846FFF799FA80465FEA080039D102226A
:104B000020463921FFF764FD4FF410712046FFF76E
:104B10008BFE042220463221FFF75AFDA06A02F0E4
:104B2000E5FC01462046FFF705FE0322204637211B
:104B3000FFF74EFD00251B4E2046715DFFF798FDE7
:104B40006D1CEDB2032DF7D32046FFF7BBFEA08A04
:104B5000F03081B2E06803F0A5FF124843230097CC
:104B6000401E114AE168806807F07AFC2046FFF792
:104B700003FCA07AFF2801D2401CA072A07A0A2868
:104B800003D24FF47A71484301E042F2107080B2D0
:104B900000F2F3104FF4FA71B0FBF1F0E0824046FE
:104BA000BDE8F8831D00002408C600087CB5054652
:104BB000AC6A002C1ED0606A0190284600F02CF9E7
:104BC00006462046002100F01FF900206062A06226
:104BD000E0622063E063A063606360842084E0831C
:104BE000A08356B1072221462846FFF71DFA064644
:104BF0002EB124E06FF00F007CBD00207CBD0422AC
:104C000020463621FFF7E4FC019802F06FFC0146D4
:104C10002046FFF78FFD2046FFF754FEA08AF030B4
:104C200081B2E06803F03EFF09484323009501AAE2
:104C3000E168806807F014FC2046FFF79DFB054BF8
:104C400028461A46114603F085F830467CBD000020
:104C50001C00002404C600082DE9F8430746BC6A7E
:104C60000521204600F0D0F8032221463846FFF700
:104C7000DBF980465FEA08002DD102222046392167
:104C8000FFF7A6FCF98D2046FFF7CEFD0322204654
:104C90003721FFF79DFC00251B4E2046715DFFF775
:104CA000E7FC6D1CEDB2032DF7D32046FFF70AFE9B
:104CB000A08AF03081B2E06803F0F4FE124843238A
:104CC000009704F12402401EE168806807F0C8FBE9
:104CD0002046FFF751FBA07AFF2801D2401CA072AA
:104CE000A07A0A2803D24FF4FA61484301E044F65F
:104CF000206080B200F2F3104FF4FA71B0FBF1F0D3
:104D0000E0824046BDE8F8831D0000242DE9FC4107
:104D10008046D8F828400121204600F075F803228B
:104D200021464046FFF780F90746380047D1022266
:104D300020463921FFF74CFCB8F82E102046FFF72B
:104D400073FD042220463221FFF742FCA06A02F0E4
:104D5000CDFB01462046FFF7EDFC0422204636211C
:104D6000FFF736FC606A02F0C1FB01462046FFF700
:104D7000E1FC032220463721FFF72AFC00251F4EC5
:104D80002046715DFFF774FC6D1CEDB2032DF7D367
:104D90002046FFF797FDA08AF03081B2E06803F06B
:104DA00081FE17484323174ACDE900801348E16884
:104DB000401E806807F070FB2046FFF7DDFAA07AFE
:104DC000FF2801D2401CA072A17A062902D201203C
:104DD000884000E03C2000EB4001C1EBC0104FF6E2
:104DE000FF7101EAC00000F2F3104FF4FA71B0FB5A
:104DF000F1F0E0823846BDE8FC8100001D0000248F
:104E000004C6000808C60008427A8A4203D04172EC
:104E100000218172C182704700280CD0806A50B195
:104E2000407A0A2805D0052803D0042801D00020A4
:104E30007047012070470020704710B5846A617A7E
:104E4000012903D00A2901D005290AD1FFF704FF5F
:104E5000608B218C401A022803DB00EBD0704008E5
:104E6000A08310BD10B5846A617A012905D00A2992
:104E700003D0052901D004290AD1FFF7D3FD608CA6
:104E8000218C401A022803DB00EBD0704008E0833D
:104E900010BD10B50446A16A4A7A0C2A0FD0062A22
:104EA0000DD0012A10D0082A1ED0032A2ED1887ACC
:104EB000022826D22046BDE81040FFF70FBE20464C
:104EC000BDE81040FFF7EABA887A052804D82046E2
:104ED000BDE81040FFF71ABF2046FFF767FE2046E7
:104EE000BDE81040FFF7DABA887A012804D82046D6
:104EF000BDE81040FFF74CB82046BDE81040FEF773
:104F00007BBF2046BDE81040FFF7C8BA10BD0000C7
:104F100070B505460C46A00706D006A34FF4CE7226
:104F200010A118A0FEF7E6FDA86800682060A86838
:104F3000046070BD2E2E5C4D6964646C657761728F
:104F400065735C54686972645F50617274795C4C1B
:104F50007749505C7372635C636F72655C6D656DFD
:104F6000702E63006D656D705F667265653A206DC9
:104F7000656D2070726F7065726C7920616C696705
:104F80006E656400417373657274696F6E202225CB
:104F90007322206661696C6564206174206C696E9F
:104FA0006520256420696E2025730A0010B580688D
:104FB0000468002C0CD021680160A00706D005A36E
:104FC0004FF4A4720FA118A0FEF794FD204610BD67
:104FD000002010BD2E2E5C4D6964646C6577617293
:104FE00065735C54686972645F50617274795C4C7B
:104FF0007749505C7372635C636F72655C6D656D5D
:10500000702E63006D656D705F6D616C6C6F633ADF
:10501000206D656D702070726F7065726C792061A3
:105020006C69676E65640000417373657274696FC3
:105030006E2022257322206661696C65642061748C
:10504000206C696E6520256420696E2025730A0036
:1050500070B505460024094E04EB440006EBC00081
:10506000017D29B18068A84202D1204600F03CF9B8
:10507000641CE4B20A2CEFD370BD0000800200244F
:105080002DE9F74F84B080460A20029083460A2714
:10509000002401904FF000094FF0000A002000901A
:1050A000524904EB4400039001EBC006357D0A2F02
:1050B00001D1002D18D0002D23D0012D08D0022DB4
:1050C00006D24BA340F2251257A167A0FEF712FDAE
:1050D000B8F1000F0AD0D8F800007168884205D1F5
:1050E00060B207B0BDE8F08F67B20AE0012D14D0BE
:1050F000022D06D3708A0099884202D34FFA84FBAE
:105100000090641CE4B20A2CCAD305984FF0FF311A
:1051100080071CD40A2F13D015E03448039950F8A7
:10512000310030B1708A4845EBD361B201918146BC
:10513000E7E7708A5045E4D361B202918246E0E726
:105140000598C00703D00A2F03DAFCB22BE008460B
:10515000C7E7BBF10A0F0FDA0BF0FF04234804EB9B
:10516000440150F8310090B121A340F26F1248A1E0
:105170003DA0FEF7BFFC0AE002980A2802DA029876
:10518000C4B204E001980A282EDA0198C4B20A2CAD
:1051900006D317A340F2811243A133A0FEF7AAFC65
:1051A000204600F0A1F80A2C06D311A340F2851284
:1051B0003DA12DA0FEF79EFC0C4804EB440100EB42
:1051C000C105287D30B10AA34FF4C3723BA126A0CC
:1051D000FEF790FCB8F1000F02D0D8F8000068602C
:1051E0000020688260B27CE708467AE780020024EB
:1051F0002E2E5C4D6964646C6577617265735C54D6
:10520000686972645F50617274795C4C7749505C74
:105210007372635C636F72655C697076345C65742D
:10522000686172702E6300007374617465203D3D87
:10523000204554484152505F53544154455F5045B6
:105240004E44494E47207C7C207374617465203E37
:105250003D204554484152505F53544154455F539B
:105260005441424C45000000417373657274696F8C
:105270006E2022257322206661696C65642061744A
:10528000206C696E6520256420696E2025730A00F4
:105290006172705F7461626C655B695D2E71203D47
:1052A0003D204E554C4C000069203C204152505F3F
:1052B0005441424C455F53495A4500006172705F4A
:1052C0007461626C655B695D2E7374617465203D09
:1052D0003D204554484152505F53544154455F4529
:1052E0004D5054590000000070B5084D00EB4004CB
:1052F000002655F83400002803D003F06BFA45F877
:10530000346005EBC400067570BD00008002002407
:105310002DE9F04387B007460D46002D09D07C6883
:105320004FF480782088404513D12079062810D189
:1053300009E026A34FF4227232A136A0FEF7DAFB71
:1053400007B0BDE8F0836079042802D1608808289E
:1053500003D0384603F03EFAF2E7D4F80E00069088
:10536000A0690590696819B1884203D1012602E05D
:10537000002600E000260EB1012300E002232846AB
:1053800004F1080206A9914600F0B2FBE08840450E
:1053900003D0B0F5007F14D10FE096B106AA022128
:1053A000281DCDE9019205F131034A4603911946C2
:1053B0000090284600F09EFA03E006A92846FEF772
:1053C000CDFC384603F006FABAE700002E2E5C4DFD
:1053D0006964646C6577617265735C546869726452
:1053E0005F50617274795C4C7749505C7372635C96
:1053F000636F72655C697076345C65746861727045
:105400002E6300006E6574696620213D204E554C68
:105410004C000000417373657274696F6E20222521
:105420007322206661696C6564206174206C696E0A
:105430006520256420696E2025730A00FEB50546A7
:105440000E461446002D06D143A340F21B3250A154
:1054500053A0FEF74FFB36B93FA34FF447725AA152
:105460004FA0FEF747FB200006D13BA340F21D32C0
:1054700058A14BA0FEF73EFB2068294600F06EFFC6
:1054800008B1584B3DE02068C0F303110E2923D02A
:10549000A9686B6800EA01020B409A4208D080B20A
:1054A000A0F57E41A93903D0E868A0B305F10C044A
:1054B0004D4B4E4A187800EB400102EBC1010F7DC5
:1054C000022F2CD3276849688F4228D102463146E3
:1054D000284600F08DF8FEBD01208DF80400002064
:1054E0008DF805005E208DF80600607800F07F00E2
:1054F0008DF80700A0788DF80800E0788DF8090095
:1055000001AB4FF40060314605F1310200902846AE
:1055100000F07CFCFEBDFFE76FF00300FAE700211E
:1055200001EB410002EBC000077D022F0AD3276880
:105530004068874206D1CAB21A703146284600F048
:1055400057F8E7E7491C49B20A29E9DB3246214608
:10555000284600F0D9F8DDE72E2E5C4D6964646CB6
:105560006577617265735C54686972645F506172DB
:1055700074795C4C7749505C7372635C636F7265DD
:105580005C697076345C6574686172702E630000CB
:105590006E6574696620213D204E554C4C0000001C
:1055A000417373657274696F6E20222573222066C1
:1055B00061696C6564206174206C696E6520256486
:1055C00020696E2025730A007120213D204E554C24
:1055D0004C00000069706164647220213D204E55CA
:1055E0004C4C00000CC6000830000024800200244F
:1055F0002DE9F84306460F4615461E4805EB4501C2
:1056000000EBC104207D022806D21BA34FF43B729D
:1056100027A133A0FEF76EFA164A05EB4501207D5F
:1056200002EBC1050C35022818D1618A4FF003083E
:10563000B1F58E7F07D9211D304600F013FA68B905
:1056400084F814800AE0B1F5877F07D3211D2A462C
:10565000304600F00DFA08B984F814804FF4006069
:1056600006F131022B4639460090304600F0CEFB61
:10567000BDE8F883800200242E2E5C4D6964646CC2
:105680006577617265735C54686972645F506172BA
:1056900074795C4C7749505C7372635C636F7265BC
:1056A0005C697076345C6574686172702E630000AA
:1056B0006172705F7461626C655B6172705F696476
:1056C000785D2E7374617465203E3D2045544841D9
:1056D00052505F53544154455F535441424C45002E
:1056E000417373657274696F6E2022257322206680
:1056F00061696C6564206174206C696E6520256445
:1057000020696E2025730A002DE9FC5F82468946D8
:1057100017460AF1310001904FF0FF344FF0000BB3
:10572000D9F80000514600F019FE98B9D9F80000E8
:10573000C0F303110E290DD0B9F1000F0AD048B102
:10574000012152464846FFF79BFC0646300004D52F
:10575000BDE8FC9F6FF00F00FAE73B4806EB4608F8
:1057600000EBC805297D29B94FF0010B01212975EE
:10577000C5F808A0287D012808D0022806D233A346
:1057800040F2C7323FA149A0FEF7B4F9BBF1000FC8
:1057900000D12FB94946504600F064F9044697B14C
:1057A000287DDFF8A49002280FD34A4806704FF4F2
:1057B0000060019A05F10C0339460090504600F054
:1057C00025FB04463EE02046C2E701283AD10025E9
:1057D0003C464FF47B7611E060892189884207D1ED
:1057E000206828B119A332463BA130A0FEF782F908
:1057F000207B012801D0012502E02468002CEBD198
:1058000085B121890022022002F064FB05466DB1BA
:105810003946284602F04EFE40B1284602F0DAFF33
:10582000002503E03D46284603F00AFA45B159F841
:10583000380008B102F0CEFF49F83850002401E0EA
:105840004FF0FF34204683E7800200242E2E5C4D6B
:105850006964646C6577617265735C5468697264CD
:105860005F50617274795C4C7749505C7372635C11
:10587000636F72655C697076345C657468617270C0
:105880002E6300006172705F7461626C655B695DBC
:105890002E7374617465203D3D2050454E44494E41
:1058A00047206F7220535441424C45004173736549
:1058B0007274696F6E2022257322206661696C659F
:1058C00064206174206C696E6520256420696E20F7
:1058D00025730A00300000246E6F207061636B65D1
:1058E000742071756575657320616C6C6F77656484
:1058F000210000002DE9FF4F81B006461F46DDE97B
:105900000FABDDF838904FF00008002E06D12BA326
:105910004FF48B6237A13BA0FEF7ECF800221C216C
:10592000022002F0D7FA0546280044D068891C28D6
:1059300006D222A340F263423CA132A0FEF7DAF87D
:105940006C68119801F0DEFDE08096F830000628C2
:1059500006D0434919A32BA040F26A42FEF7CAF8C9
:105960003868A060B888A081DAF80000C4F8120096
:10597000BAF80400E082D9F80000C4F80E00DBF8A1
:105980000000A0614FF48070208008206080062015
:1059900020710420607140F60600DDE902232946EB
:1059A0000090304600F032FA284602F013FF4046DD
:1059B00005B0BDE8F08F4FF0FF30F9E72E2E5C4DBB
:1059C0006964646C6577617265735C54686972645C
:1059D0005F50617274795C4C7749505C7372635CA0
:1059E000636F72655C697076345C6574686172704F
:1059F0002E6300006E6574696620213D204E554C73
:105A00004C000000417373657274696F6E2022252B
:105A10007322206661696C6564206174206C696E14
:105A20006520256420696E2025730A00636865631C
:105A30006B2074686174206669727374207062757B
:105A4000662063616E20686F6C6420737472756386
:105A500074206574686172705F6864720000000091
:105A6000B0C70008014A00F003B800000CC60008E7
:105A70007FB5064D0124031DCDE90214CDE90035A3
:105A80002D331946FFF736FF04B070BD12C600086B
:105A900070B50024154D04EB440005EBC002117DE8
:105AA000F9B1508A401C80B25082B0F5967F03D283
:105AB000012905D1052803D32046FFF715FC10E086
:105AC000032904D0042905D0012906D009E00420C7
:105AD000107506E00220107503E09068111DFFF7B5
