:020000040800F2
:100000007888002459EB0008CDD60008D5D6000822
:10001000D7D60008D9D60008DBD6000800000000BB
:10002000000000000000000000000000DDD6000815
:10003000DFD6000800000000E1D60008E3D6000883
:1000400099EC00089DEC0008A1EC0008A5EC000864
:10005000A9EC0008ADEC0008B1EC0008B5EC000814
:10006000B9EC0008BDEC0008C1EC0008C5EC0008C4
:10007000C9EC0008CDEC0008D1EC0008D5EC000874
:10008000D9EC0008DDEC0008E1EC0008E5EC000824
:10009000E9EC0008EDEC0008F1EC0008F5EC0008D4
:1000A000F9EC0008FDEC000801ED000805ED000882
:1000B00009ED00080DED000811ED000815ED000830
:1000C00019ED00081DED000821ED000825ED0008E0
:1000D00029ED00082DED000831ED0008EFD60008ED
:1000E00035ED000839ED0008000000003DED000886
:1000F00041ED000845ED000849ED00084DED000810
:1001000051ED000855ED000859ED00085DED0008BF
:1001100061ED000865ED000869ED00086DED00086F
:1001200071ED000875ED000879ED00087DED00081F
:1001300081ED000885ED000889ED00088DED0008CF
:1001400000000000000000000000000000000000AF
:1001500091ED000895ED000899ED00089DED00086F
:10016000A1ED0008A5ED0008A9ED0008ADED00081F
:10017000B1ED0008B5ED0008B9ED00080000000081
:10018000BDED0008C1ED0008C5ED0008C9ED00088F
:10019000CDED0008D1ED0008D5ED0008D9ED00083F
:1001A000DDED0008E1ED0008E5ED0008E9ED0008EF
:1001B000EDED0008F1ED0008F5ED0008F9ED00089F
:1001C000FDED000801EE000805EE000809EE00084C
:1001D0000DEE000811EE000815EE000819EE0008FB
:1001E0001DEE000821EE000825EE000829EE0008AB
:1001F0002DEE000831EE000835EE000839EE00085B
:100200003DEE000841EE000845EE000849EE00080A
:100210004DEE000851EE000855EE000859EE0008BA
:100220005DEE000861EE000865EE000800000000C9
:1002300069EE00086DEE00080000000071EE000895
:1002400075EE000879EE00087DEE000881EE0008EA
:1002500085EE000889EE00088DEE000891EE00089A
:1002600095EE000899EE00089DEE0008A1EE00084A
:10027000A5EE0008A9EE0008ADEE000800000000A1
:10028000B1EE000800000000B5EE0008000000001C
:1002900000000000B9EE000870B5DFF8AC49207826
:1002A00000282ED1DFF87C5A2868002808D0DFF813
:1002B000783AD922DFF8741ADFF8740A01F0E6FA06
:1002C00001F021FD28602868002802D15FF0FF308E
:1002D0001BE02868007A50F0200029680872DFF8D7
:1002E000546A44223100286801F075FC4322310031
:1002F000286801F0B7FC0022DFF8B01B286801F085
:10030000E4FC2078401C2070002070BD10B5DFF8A0
:1003100038492078002808D1DFF80C3AF322DFF8BA
:10032000181ADFF80C0A01F0B1FA2078401E20708C
:100330002078002806D1DFF8EC49206801F0C8FCDD
:100340000020206010BD10B50400606A0C2100F090
:100350007DFDDFF8E0190B000A00200001F05AFDD6
:10036000200000F0B0FA10BD38B50400656A08211D
:10037000280000F06BFD002215F12801200002F09A
:100380000EFAA87AFF2802D0A87A401CA8724FF46F
:10039000FA7080B200F2F3104FF4FA7190FBF1F0B2
:1003A000E88231BD38B50400656ADFF89C0A8078C0
:1003B00000280BD0DFF8800B806802F08FFB6862AA
:1003C00069680869A862200000F001F831BDFEB537
:1003D0000600746A0121200000F038FD032221008C
:1003E000300001F09FF80500280040B200284DD1F0
:1003F00002223921200000F034FD718D200000F030
:1004000075FD04223221200000F02BFDA06A02F0CD
:1004100065FB0100200000F091FD04223621200040
:1004200000F01FFD606A02F059FB0100200000F09F
:1004300085FD03223721200000F013FD002708E08E
:10044000DFF86C0A3900C9B2415C200000F032FDCF
:100450007F1C3800C0B20328F2D3200001F07DF9E0
:10046000A18AF03189B2E06802F0D2FCDFF8C4085A
:10047000019000964323DFF8702AE168DFF8A408B2
:10048000006801F035FB200001F03CF9A07AFF285C
:1004900002D0A07A401CA072A07A062805DA0121B9
:1004A00094F90A0011FA00F000E03C204FF47A7150
:1004B00010FB01F080B200F2F3104FF4FA7190FBE0
:1004C000F1F0E082280040B2FEBD10B5DFF8DC0A92
:1004D000046819E0888B002815D0888B421E8A8317
:1004E00080B201280FD1200000F07EF80BE0C88B0D
:1004F0000028EFD0C88B421ECA8380B20128E9D100
:10050000200000F08EF82468002C16D0616A0029C3
:10051000F9D0487A0028F6D0488C0028E7D0088C1B
:10052000401C0884088C4A8C9042E0D1200000F0E6
:1005300005FC200000F0C7F9E5E710BD10B5DFF8B5
:100540006C0A046813E0C18A01290FD1C18A491ECF
:10055000C182200000F00EF808E0606A002805D093
:10056000C18A0229EFDBC18A491EC1822468002C9E
:10057000F3D110BD10B50400606A417A0C2902D095
:10058000417A062903D1200000F09DF92BE0417A41
:1005900001290DD1807A062803DA2000FFF717FF22
:1005A00021E0200000F0CAFB200000F08CF91AE0E6
:1005B000417A08290AD1807A022803DA2000FFF75D
:1005C000D3FE10E0200000F0E7F90CE0417A0329A7
:1005D00009D1807A022803DA200000F037FB02E01C
:1005E000200000F070F910BD10B5446A617A01294D
:1005F00005D0617A0A2902D0617A052910D100F06C
:1006000065FA618B208C091A022091FBF0F0012819
:1006100006DB618B208C091A022091FBF0F0A0838D
:1006200010BD10B5446A617A012908D0617A0A299F
:1006300005D0617A052902D0617A042910D100F031
:10064000A4FA618C208C091A022091FBF0F0012899
:1006500006DB618C208C091A022091FBF0F0E0830C
:1006600010BD38B5446A0020E06200202063DFF846
:10067000D857E878002803D0DFF8BC08C06860636A
:100680002879002804D0DFF8B0080069A06302E0F0
:10069000606B4008A0636879002804D0DFF89808F0
:1006A0004069E06304E0616B07204143C908E163EE
:1006B00061680869A062A879002808D0DFF8780886
:1006C000806902F00BFAE0620120E07201E0002094
:1006D000E072E879002805D0DFF85C08C06902F014
:1006E000FDF9206331BD70B50500002D0CD1DFF898
:1006F000383640F2D622DFF8B818DFF8340601F0B9
:10070000C5F87FF00F0061E095F83300C0070CD406
:10071000DFF8143640F2D722DFF89818DFF8100619
:1007200001F0B4F87FF00F0050E06C6A688DB0F50E
:10073000107F02DA5FF0FF3048E0002C0AD1402041
:1007400003F007F80400002C02D15FF0FF303DE019
:100750006C621EE0E068002809D0DFF8CC354FF469
:100760003C72DFF85418DFF8C80501F08FF86068B4
:10077000002809D0DFF8B03540F2F122DFF83C184C
:10078000DFF8AC0501F082F8207A002801D0FFF7ED
:10079000BDFD402100222600300003F0A7F8FFF73E
:1007A0007BFD002802D05FF0FF300FE001202072B7
:1007B000280000F088F8010049B2002905D028007F
:1007C00000F019FB5FF0FF3000E040B270BD80B573
:1007D000416A002911D04A7A002A09D0D21E022A81
:1007E00001D9D21F05D100228A7200F02FFA04E04D
:1007F00003E000228A7200F066F801BD80B500288F
:100800000AD1DFF8243540F27B32DFF8A417DFF895
:10081000200501F03BF80BE0426A002A08D0537A29
:10082000082B05D10968926A914201D100F001F8C4
:1008300001BD7CB50600746A00200C21200000F088
:1008400005FB04222100300000F06CFE05002800AA
:1008500040B2002824D104223221200000F001FB04
:10086000A06A02F03BF90100200000F067FB2000C5
:1008700000F073FFA18AF03189B2E06802F0C8FA93
:10088000DFF8B004019000964323DFF85C26E168AE
:10089000DFF89004006801F02BF9200000F032FF2F
:1008A000A07AFF2802D0A07A401CA07242F21070F9
:1008B00080B200F2F3104FF4FA7190FBF1F0E08295
:1008C000280040B276BDFEB505006C6A002000200D
:1008D000A0620621200000F0B9FA012221002800C0
:1008E00000F020FE0600300040B2002835D1022280
:1008F0003921200000F0B5FA698D200000F0F6FAE9
:1009000003223721200000F0ACFA002708E0DFF8CE
:10091000A0053900C9B2415C200000F0CBFA7F1C71
:100920003800C0B20328F2D3200000F016FFA18ADD
:10093000F03189B2E06802F06BFADFF8F803019059
:1009400000954323DFF8A025E168DFF8D8030068AD
:1009500001F0CEF8200000F0D5FEA07AFF2802D0EA
:10096000A07A401CA072A07A062805DA012194F929
:100970000A0011FA00F000E03C204FF47A7110FBFD
:1009800001F080B200F2F3104FF4FA7190FBF1F035
:10099000E082300040B2FEBD3EB50400002C0AD11A
:1009A000DFF8843340F2FE32DFF8701BDFF880039B
:1009B00000F06CFF89E0656A002D0AD1DFF868332A
:1009C0004FF48062DFF8581BDFF8640300F05EFF2D
:1009D0007BE000202884686B10F1010F0FD0686B5A
:1009E0001E303C21B0FBF1F0B0F5803F01D34FF653
:1009F000FF706884688C002801D101206884A86B8E
:100A000010F1010F11D0A86B1E303C21B0FBF1F0AA
:100A1000B0F5803F01D34FF6FF702883288B002864
:100A200001D101202883288BA883E86B10F1010FE6
:100A300011D0E86B1E303C21B0FBF1F0B0F5803FE7
:100A400001D34FF6FF706883688B002801D1012025
:100A50006883688BE883288B698B884204D3688B12
:100A6000002801D000202883E87A002802D0E86A14
:100A7000019012E095F828000100C9B2802902DA3D
:100A8000FF20019009E0C0B2C02803DB7FF07F4067
:100A9000019002E04FF6FF700190286B00900098E3
:100AA000002807D1A96A019801400091009850F0F0
:100AB000807000900A21280000F0C8F96B4601AA56
:100AC00015F12801200001F0A5F937BDF8B50600A1
:100AD000746A0521200000F0B9F9032221003000DA
:100AE00000F020FD0500280040B2002831D102228C
:100AF0003921200000F0B5F9718D200000F0F6F9E1
:100B000003223721200000F0ACF9002708E0DFF8CD
:100B1000A0033900C9B2415C200000F0CBF97F1C72
:100B20003800C0B20328F2D3200000F016FEA18ADC
:100B3000F03189B2E06802F06BF90096432314F1BA
:100B40002402E1687748006800F0AFFF200000F061
:100B5000D9FDA07AFF2802D0A07A401CA072A07A0A
:100B60000A2805DAA07A4FF4FA6110FB01F001E0DF
:100B700044F6206080B200F2F3104FF4FA7190FB5B
:100B8000F1F0E082280040B2F2BDF8B50600746AC8
:100B90000421200000F05AF903222100300000F067
:100BA000C1FC0500280040B2002830D102223921C2
:100BB000200000F056F9718D200000F097F9032213
:100BC0003721200000F04DF9002707E0B848390030
:100BD000C9B2415C200000F06DF97F1C3800C0B242
:100BE0000328F3D3200000F0B8FDA18AF03189B2C8
:100BF000E06802F00DF900964323BB4AE168DFF894
:100C0000D80B006800F051FF200000F07BFDA07AB7
:100C1000FF2802D0A07A401CA072A07A0A2805DA28
:100C2000A07A4FF47A7110FB01F001E042F21070EB
:100C300080B200F2F3104FF4FA7190FBF1F0E08211
:100C4000280040B2F2BD00006C780024F8B5060020
:100C5000746A0321200000F0F9F80322210030001B
:100C600000F060FC0500280040B200283DD10222BF
:100C70003921200000F0F5F84FF41071200000F049
:100C800035F904223221200000F0EBF8A06A01F0CF
:100C900025FF0100200000F051F903223721200038
:100CA00000F0DFF8002707E081483900C9B2415C55
:100CB000200000F0FFF87F1C3800C0B20328F3D3F7
:100CC000200000F04AFDA18AF03189B2E06802F00C
:100CD0009FF800964323844AE168DFF8FC0A006825
:100CE00000F0E3FE200000F00DFDA07AFF2802D006
:100CF000A07A401CA072A07A0A2805DAA07A4FF4E4
:100D00007A7110FB01F001E042F2107080B200F243
:100D1000F3104FF4FA7190FBF1F0E082280040B23A
:100D2000F2BD0000D0770024B4C60008CCD900087A
:100D3000A4D9000890EC000888DF00087CB5050005
:100D40006C6A002C02D17FF00F0053E0606A0190C2
:100D5000280000F085FD06000021200000F076F854
:100D6000002060620020A0620020E062002020637A
:100D70000020E063A0636063002060842084E0833F
:100D8000A083F6B2002E01D1002033E0072221001B
:100D9000280000F0C7FB0600300040B2002820D138
:100DA00004223621200000F05CF8019801F096FE44
:100DB0000100200000F0C2F8200000F0CEFCA18A63
:100DC000F03189B2E06802F023F80095432301AACC
:100DD000E168DFF8040A006800F067FE200000F018
:100DE00091FCDFF8F82913001100280001F012F837
:100DF000300040B276BD10B500280AD1DFF8E039E6
:100E000040F24252DFF8DC19DFF8DC0900F03EFD69
:100E100019E0446A002C16D06068002808D0DFF87A
:100E2000C03940F24F526549DFF8BC0900F02EFD91
:100E30000021200000F00AF8207A002803D0FFF7F4
:100E400065FA0020207210BDC47700240A00437A9E
:100E5000D2B29A4204D04172002181720021C18233
:100E6000704770B504000E001500A08A50FA85F096
:100E7000801C452809D3DFF868394FF4AE62DFF8EB
:100E80006C19DFF8640900F001FDA08A411CA18201
:100E9000216980B2084480F8F060A08A411CA182D8
:100EA000216980B2084480F8F05070BDDF1300085B
:100EB0000000002438B504000D00A08A442809D39E
:100EC000DFF81C3940F27B52DFF82419DFF81809EB
:100ED00000F0DCFCA08A411CA182216980B2084498
:100EE00080F8F05031BD000094EC000838B50400E3
:100EF0000D00A08A801C452809D3DFF8E43840F2B1
:100F00008252DFF8F018DFF8E00800F0BFFCA08A9A
:100F1000411CA182290089B2090A226980B21044C9
:100F200080F8F010A08A411CA182216980B2084497
:100F300080F8F05031BD00005877002438B5040027
:100F40000D00A08A001D452809D3DFF8943840F22F
:100F50008A52DFF8A418DFF8900800F097FCA08A06
:100F6000411CA1822900090E226980B2104480F838
:100F7000F010A08A411CA1822900090C226980B2CC
:100F8000104480F8F010A08A411CA1822900090AAF
:100F9000226980B2104480F8F010A08A411CA1821E
:100FA000216980B2084480F8F05031BD10780024E7
:100FB00048EA0008ACDF0008F0E6000820E9000875
:100FC0002DE9F34F85B0040000200390002002902B
:100FD00008210022DFF82458280002F087FC069838
:100FE00040892C2802D27FF00100F5E10698406884
:100FF0006060F0250698018903E0002003906C25CD
:10100000EC21069C04E060892D1A6089091A246885
:10101000002C04D02800628980B29042F3D2002CC8
:1010200002D17FF00100D7E1A946ADF80010606859
:10103000049001E060680490002C00F0A68148460E
:10104000BDF8001080B2884280F09F810498494624
:1010500089B2405CFF2800F098810498494689B223
:10106000415C00205FF0FF3719F10206484680B26C
:10107000401C6289904205DA04984A4692B21044B4
:10108000407807E02068002803D020684068007896
:1010900000E000208046C9B2002913D0012916D0F3
:1010A000032927D033293CD034294DD035296FD09E
:1010B000362900F080803A2900F090803B2900F02A
:1010C000A080B1E000208046B9F10109AEE0010046
:1010D000C9B204290CD0DFF8083740F2F652DFF825
:1010E0002017DFF8040700F0D1FB7FF0050073E163
:1010F00006279BE05FF0040801004246C9B2D2B265
:1011000091420CD2DFF8D83640F2FB52DFF8F416E9
:10111000DFF8D40600F0BAFB7FF005005CE107279A
:1011200084E00100C9B204290CD0DFF8B43640F2E3
:101130000962DFF8CC16DFF8B00600F0A7FB7FF0FD
:10114000050049E1032771E00100C9B201290CD073
:10115000DFF88C3640F21762DFF8AC16DFF888064D
:1011600000F094FB7FF0050036E1290089B2F029F8
:101170000CD0DFF86C3640F21962DFF89016DFF819
:10118000680600F083FB7FF0050025E100274DE0B5
:101190000100C9B201290CD0DFF8443640F21D62CB
:1011A000DFF86416DFF8400600F070FB7FF0050002
:1011B00012E101273AE00100C9B204290CD0DFF89E
:1011C000203640F22162DFF83816DFF81C0600F006
:1011D0005DFB7FF00500FFE0022727E00100C9B2B8
:1011E00004290CD0DFF8F83540F22562DFF810163C
:1011F000DFF8F40500F04AFB7FF00500ECE004277F
:1012000014E00100C9B204290CD0DFF8D43540F253
:101210002962DFF8EC15DFF8D00500F037FB7FF02E
:101220000500D9E0052701E05FF00008C0B2801C8E
:1012300010EB09094046C0B200287CD00020019084
:101240001AE04046C0B205284FDB4046C0B2042138
:1012500090FBF1F201FB1200002839D101200AF8BD
:101260000700019801F03AFCDFF8A41541F82700C7
:10127000B8F10408361D7F1C381E082809D3DFF892
:10128000603540F23662DFF88C15DFF85C0500F05F
:10129000FDFADFF868A51AF8070000284BD1404690
:1012A000C0B2042803DAC3465FFA8BFB01E05FF0AB
:1012B000040B33009BB25A4692B201A9200002F0FF
:1012C00036F81FFA8BFB5845BBD07FF0010083E056
:1012D000DFF80C3540F23E62DFF83C15DFF8080518
:1012E00000F0D4FA7FF0050076E04046C0B2042852
:1012F00004D1019801F0F2FB019014E05FFA88F844
:10130000B8F1010F0CD0DFF8D8344FF4C962DFF820
:101310000C15DFF8D40400F0B9FA7FF005005BE0AB
:101320009DF80400019001200AF807000198DFF8F9
:10133000E01441F827004846618980B28842FFF4F2
:101340007BAE6089B9EB0009BDF800106089091A0D
:10135000ADF800104846BDF8001080B2884214D2A3
:10136000BDF80000002810D02468002C7FF462AE85
:10137000DFF86C3440F25462DFF8A414DFF868043C
:1013800000F084FA7FF0050026E0DFF8701408789A
:10139000002814D0DFF87804006800220A700128C1
:1013A00002D1012003900AE0022802D1012002901C
:1013B00005E0032803D10120029001200390039847
:1013C00000287FF41AAE0298002804D00020029072
:1013D0002C256C2115E6002007B0BDE8F08FF8B58C
:1013E0001500DFF840044668746A6F68002C02D06C
:1013F000207A002800D188E06068002809D0DFF852
:10140000E0334FF4D562DFF82014DFF8DC0300F09E
:101410003DFA68892C2878DB3878022875D10020BD
:1014200000E0401C010096F82C20C9B2914213D272
:101430000100C9B206290FD20100C9B210290BD28E
:101440000100C9B2314491F82D100200D2B23A44E1
:10145000127F9142E5D058E0786801F03FFB2168A7
:10146000884252D129002000FFF7AAFD00284CD164
:10147000DFF888034078002847D0DFF894034068FD
:101480000100C9B2052921D1607A01280ED13000AE
:10149000FFF7E7F896F83300000703D53000FEF7B2
:1014A00063FF32E03000FFF777FA2EE0607A03281E
:1014B00005D0607A042802D0607A052825D1300052
:1014C000FFF7CFF83000FFF767FA1EE00100C9B25E
:1014D00006290FD1617A032908D0617A012905D044
:1014E000617A042902D0617A052903D13000FEF720
:1014F0002AFF0AE0C0B2022807D1607A062804D188
:101500000020E0823000FEF74DFF002C01D00020CB
:101510006060280001F08BFDF1BD0000A8E4000828
:1015200008E7000870B504000D001600002C09D172
:10153000AB4B40F21D72BD49AB4800F0A7F97FF0FC
:101540000F00DEE0002D09D1A54B40F21E72B84914
:10155000A54800F09BF97FF00500D2E0E86800287C
:1015600006D09F4B40F21F72B2499F4800F08EF99F
:101570002869002806D09A4B4FF4E462AE499A4895
:1015800000F084F900224FF49A71002001F0B4FABF
:10159000E860E868002802D15FF0FF30B1E0E86859
:1015A0004089B0F59A7F06D28D4B4FF4E562A3498E
:1015B0008D4800F06BF93000C0B2032802D1687A80
:1015C000032809D1A87A002803D102F0C7F99C4961
:1015D00008609B4800682860E8684068286101202E
:1015E0002969087001202969487094F82C0029693C
:1015F000887000202969C870286801F06FFA29698D
:10160000486000202969088100202969488100205C
:101610002969C8603100C9B2082911D03100C9B2A6
:1016200004290DD03100C9B2072909D03100C9B24F
:10163000032908D1697A052902D0697A042902D1DF
:1016400029696268CA60296908612969486129694C
:101650008861002017E000210FE0010094F82C20A1
:1016600089B292B29142F6D2010089B20629F2D231
:10167000010089B2214491F82D102A6903009BB220
:101680001A441177401C010089B21029E5D30020CB
:1016900007E000212A6903009BB21A4482F82C104B
:1016A000401C010089B24029F3D3002007E000214B
:1016B0002A6903009BB21A4482F86C10401C010096
:1016C00089B28029F3D328695E49C0F8EC10002064
:1016D000A882002006E02969020092B2114481F834
:1016E000F000401C010089B24429F4D301223521C5
:1016F0002800FFF7B6FB3100C9B22800FFF7DAFB7C
:10170000002070BD10B50400002C07D1344B40F20E
:101710006D724D49344800F0B9F81DE0E0680028CA
:1017200006D12F4B40F26E7248492F4800F0AEF8B8
:101730002069002806D12A4B40F26F7244492A489A
:1017400000F0A4F8E068002802D0E06801F06FFC27
:101750000020E0600020206110BD10B50400002CC6
:1017600007D11F4B40F282723A491F4800F08EF8B1
:1017700030E02069002806D1194B40F283723649C7
:10178000194800F083F8A08A442806D3144B40F28D
:1017900084723249144800F079F8A08A411CA18271
:1017A000FF21226980B2104480F8F01008E0A08A7E
:1017B000411CA1820021226980B2104480F8F010FF
:1017C000A08A442803D3207D10F0030F02D0A08A02
:1017D0004428ECD310BD0000D077002490EC000822
:1017E000B4C60008C4E40008A4D9000840CF00082B
:1017F00094D1000888CF000854D00008C477002492
:1018000068EB000834E9000874EB000820E70008E2
:101810005877002448E9000838E700085CE9000828
:1018200070E900087877002420E90008F4E1000856
:1018300014E20008F4D900081CDA000894D000086B
:10184000D47700246382536334E2000844DA00084A
:101850006CDA0008D0DF000814D70008D4D00008E4
:10186000002811D0416A00290ED0406A417A0A2925
:1018700005D0417A052902D0407A042801D10120FF
:1018800000E00020C0B200E0002070470EB4C0B5F8
:10189000024603A800210190009101AB01210448F8
:1018A00078440C3002F0ACF806BC5DF810FB00BFC9
:1018B00039D00000704710B40021FFE7DFF89C2406
:1018C0001088431C13804FF6FF7380B2984202D1F8
:1018D0004FF440401080DFF88804006800E0C068E2
:1018E00000280BD0438A1488A342F8D1491C080071
:1018F00080B2B0F5804FE1DB002000E0108810BC22
:101900007047D2B2002A14D0002810D00268002AF2
:101910000DD0DFF85024536913F1010F07D003688D
:101920008868034052698868024093420ED10120C2
:101930000DE0002808D00168002905D00068DFF814
:1019400024144969884201D1012000E00020704739
:101950002DE9FE4F06008B4600207089082803DA27
:10196000300001F064FB9EE07468DFF8F8733968BA
:10197000786902F0DDFA8046208801F0A7F88146F8
:10198000608801F0A3F8ADF80000002000250020D9
:101990000190DFF8CCA3DAF8004001E02500E4680C
:1019A000002C28D0608ABDF800108842F6D142464B
:1019B000D2B259462000FFF7A4FF0028EED0207CC9
:1019C000400703D40198002800D10194A08A494619
:1019D00089B28842E2D16068002803D06068396922
:1019E0008842DBD1002D06D0E068E860DAF800001C
:1019F000E060CAF80040002C00D1019C002C01D00E
:101A0000012007E0DBF804007969884201D1012058
:101A100000E00020C0B2002842D07FF00701300073
:101A200001F0F9FA00280DD0DFF83C3340F25512EE
:101A3000DFF83813DFF83803FFF728FF300001F034
:101A4000F6FA30E0002C12D0A06900280BD01FFA63
:101A500089F9CDF8009017F1100332002100E069F8
:101A6000A469A0471FE0300001F0E1FA1BE05FFA33
:101A700088F8B8F1000F0FD1387D10F0F000E028A1
:101A80000AD0B7F90C10083109B2300001F0C9FAD8
:101A90000321300002F0A6FB300001F0C8FA02E09A
:101AA000300001F0C4FABDE8F78F7CB5002801D002
:101AB000002A02D17FF0050019E0069D002807D01A
:101AC0000468002C04D0047814F0F004E02C01D158
:101AD0002C1D07E004686E68B44202D07FF003005A
:101AE00005E00400019400959BB200F001F876BD7A
:101AF0002DE9FE4F05000E001F00002D02D014003E
:101B0000002C02D17FF0050063E0688A00280AD12A
:101B10006A8A2900280000F05EF8010049B2002915
:101B200001D040B255E0B0460821404601F073FABA
:101B3000002813D000220821012000F0DDFF06005C
:101B4000002E02D15FF0FF3043E0B8F80800002813
:101B500005D04146300001F039FB00E0464670896F
:101B6000082806D2804B4FF4377282498048FFF72D
:101B70008DFEDDF83490DDF830A0D6F804B0688A28
:101B800000F0A4FFABF80000380080B200F09EFF28
:101B9000ABF802000020ABF80600308900F096FF99
:101BA000ABF804001120AB7ACDF808A0C0B20190C8
:101BB000687A0090DBB222004946300002F0DCFC7B
:101BC0000400464503D0300001F031FA0020200027
:101BD00040B2BDE8FE8FF8B505000C00002C00D126
:101BE000654C002D01D0002C02D17FF0050038E0BB
:101BF00000275B4E306800E0C068002802D08542B4
:101C0000FAD10127100080B2002809D1FFF753FE56
:101C10000200100080B2002815D17FF0070020E0FC
:101C2000306800E0C06800280DD08542FAD0418AB3
:101C300013009BB29942F5D1016823689942F1D112
:101C40007FF007000DE0002C01D1002000E02068AB
:101C500028606A82FFB2002F02D13068E8603560E8
:101C60000020F2BD70B505000C001600002D01D05B
:101C7000002C02D17FF0050026E0688A00280AD1F6
:101C80006A8A29002800FFF7A6FF010049B200294F
:101C900001D040B218E0002C01D1002000E0206803
:101CA0006860AE82287C50F0040028742C490868D3
:101CB00000E0C068002803D08542FAD1002003E08C
:101CC0000868E8600D60002070BD8161C2617047E6
:101CD00080B50100224802688A4203D10268D268B6
:101CE00002600CE0026800E0D268002A07D0D068E9
:101CF0000028F9D0D0688842F6D1C868D0600020AA
:101D000002F01FFD01BD38B5002002F0F1FC040017
:101D1000002C07D0202100222500280001F0E6FD3C
:101D2000FF20A072200032BD10B4002813D002683A
:101D3000002A10D000290ED00A68002A0BD0084AC9
:101D4000126806E013680468A34201D10B681360AF
:101D5000D268002AF6D110BC70470000AC00002405
:101D60005478002478770024E8CD000824EA00089D
:101D7000CCDE00089CD6000890EC000870472DE9E6
:101D8000F84F82460C00914698460B9D280000288B
:101D900005D14F4BFB224F494F48FFF777FD0C9E73
:101DA0000A9F0020CAF804000020CAF8080000209A
:101DB000CAF80C0000208AF83300042100221AF12E
:101DC000240B584601F092FD03208AF828000020D9
:101DD000CAF81C00CAF82070404801788AF836100A
:101DE0000178491C0170CAF8106043464A46210038
:101DF000504600F00FF85046A847002801D00020B8
:101E000006E037480168CAF80010C0F800A0504644
:101E1000BDE8F28FF8B505000C0016001F00002C7D
:101E200002D0206800280CD12100280000F016F80C
:101E30003100280000F041F83900280000F036F8A1
:101E40000BE03100280000F038F83900280000F0DD
:101E50002DF82100280000F001F8F1BD38B505008B
:101E60000C00002C02D02068009002E01E480068A0
:101E7000009000986968884217D06946281D03F0D1
:101E8000DAFA6946281DFFF74FFF002C01D1002028
:101E900000E0206868600121280000F042F8E8694D
:101EA000002802D02800E969884731BD002901D106
:101EB000002100E00968C1607047002901D10021BC
:101EC00000E00968816070470649086070470000BB
:101ED000B8CB0008B0E7000874DC00086E78002476
:101EE000107800241478002490EC000810B5040049
:101EF00094F83300C00713D494F8330050F0010075
:101F000084F83300E069002802D02000E1698847A6
:101F100094F83300400703D50321200000F001F8B6
:101F200010BD80B5C90709D54168002906D090F8D1
:101F30003310090702D5011D00F09CFD01BD10B54D
:101F4000040094F83300C00712D594F8330010F061
:101F5000FE0084F8330094F83300000702D5200017
:101F600000F072FAE069002802D02000E169884799
:101F700010BD10B5040094F83300400710D494F855
:101F8000330050F0040084F833002000FEF71FFCFB
:101F900094F83300C00703D503212000FFF7C1FFE9
:101FA00010BD30B4002513E050F8042BD30744BF14
:101FB000A9F101039A18091F042942F8045BFAD217
:101FC00013468C0744BF15809B1CC90748BF1D7072
:101FD00050F8041B0029E7D130BC704770B50400ED
:101FE0001825DFF89C6A05FB04F03058002808D05B
:101FF00005FB04F0305801F01AF8002005FB04F14D
:10200000705000206C4306EB0401087570BD10B5DC
:10201000002425E02000C0B250431844007D012870
:102020001DD12000C0B250431844011D2000C0B291
:1020300002FB00F203EB0200806800F01BFD0EE0E3
:102040002000C0B250431844007D0428E2D1200093
:10205000C0B202FB00F203EB020002210175641C16
:102060002000C0B20A2840DA1822DFF8143A200013
:10207000C0B250431844007DC0B20028EFD0200009
:10208000C0B2504318442100C9B251431944498A8F
:10209000491C41822000C0B250431844408AB0F528
:1020A000967F0DDA2000C0B250431844007D01280D
:1020B0000BD12000C0B250431844408A052804DBED
:1020C0002000C0B2FFF78AFFC9E72000C0B250432A
:1020D0001844007D0328B3D12000C0B202FB00F2F7
:1020E00003EB020004210175B9E710BD2DE9F34FA0
:1020F00083B00A260A245FF00A0800200A208DF81F
:1021000000000020ADF804000020ADF8020000251A
:1021100000272EE05FFA89F9B9F1020F28DB3800B9
:10212000C0B20AFB00F05844408A290089B28842B4
:102130001ED33C0064B23800C0B20AFB00FA0BEBBD
:102140000A00458A14E03800C0B20AFB00F0584487
:10215000408ABDF8021088420AD33E0076B23800A9
:10216000C0B20AFB00FA0BEB0A00408AADF802008D
:102170007F1C3800C0B20A2860DA5FF0180ADFF866
:1021800000B93800C0B20AFB00F0584490F814902F
:10219000404640B20A2807D14846C0B2002803D1C1
:1021A000B8464FFA88F8E3E74846C0B20028DFD0C7
:1021B0004846C0B201280DD04846C0B2022809DA0C
:1021C000DFF8C0384FF49372DFF8BC18DFF8BC08B2
:1021D000FFF75CFB0398002809D0039800683900DA
:1021E000C9B20AFB01F159444968884223D04846E4
:1021F000C0B201288ED13800C0B20AFB00F05BF8F3
:10220000000000289FD03800C0B20AFB00F05844FC
:10221000408ABDF804108842AAD3380040B28DF835
:1022200000003800C0B20AFB00FA0BEB0A00408A3B
:10223000ADF804009CE7380040B274E09DF810004F
:10224000810705D4414649B20A2904D1C00702D406
:102250005FF0FF3067E0404640B20A2803DA5FFAD9
:1022600088F8444629E0200040B20A285EDAE4B249
:10227000DFF80C182200D2B21820424388580028F8
:1022800009D0DFF8003840F26F12DFF80418DFF8E9
:10229000FC07FFF7FBFA2000C0B20A2809DBDFF8D1
:1022A000E43740F28112DFF8EC17DFF8E007FFF7C0
:1022B000EDFA2000C0B2FFF791FE2000C0B20A285C
:1022C00009DBDFF8C03740F28512DFF8C817DFF806
:1022D000BC07FFF7DBFA1825DFF8A4672000C0B2BF
:1022E00068433044007D002809D0DFF8983740F279
:1022F0008712DFF8A417DFF89407FFF7C7FA0398EF
:10230000002806D02000C0B2684330440399096811
:1023100041602000C0B205FB00F506EB050000217E
:102320004182200040B205B0BDE8F08F300040B2DD
:102330000A2802DAF6B23400ADE79DF900000A2857
:1023400003DA9DF90040E4B2A5E75FF0FF30EAE769
:102350002DE9F84306000C0015001F0096F82C002C
:10236000062809D0DFF81C3740F2AB12DFF82C1733
:10237000DFF81807FFF78AFA002C0DD02068002834
:102380000AD03100206801F0D3FD002804D1207864
:1023900010F0F000E02802D17FF00F0052E0320090
:1023A0003900C9B22000FFF7A1FE0400200040B2AE
:1023B000002802D5200040B244E01827DFF8C0868C
:1023C000200040B210FB07F04044022101752000BC
:1023D00040B210FB07F0404486600622290020002E
:1023E00040B210FB07F0404410F10C09484603F0DE
:1023F0007BF8200040B210FB07F0404400214182EE
:10240000200040B210FB07F058F80000002818D058
:10241000200040B210FB07F058F80090002064B292
:1024200014FB07F148F801004FF4006000902B0006
:1024300016F12D024946300003F00DF9484600F030
:10244000F6FD0020BDE8F28338B50400002518E051
:102450001821DFF82C262800C0B248431044007D24
:10246000C0B200280CD02800C0B201FB00F102EB82
:1024700001008068A04203D12800C0B2FFF7AEFD82
:102480006D1C2800C0B20A28E2DB31BDF8B586B069
:1024900007000C00002C0AD1DFF8E8354FF4227257
:1024A000DFF80016DFF8E405FFF7F0F960E07E687A
:1024B0003088B0F5807F08D13079062805D1707951
:1024C000042802D17088082803D0380000F0AFFD3E
:1024D0004EE0042216F10E0104AD280003F004F8CA
:1024E000042216F1180105AD280002F0FDFF606816
:1024F000002801D1002506E005986168884201D1D5
:10250000012500E000252800C0B2002801D00123E9
:1025100000E00223DBB216F1080204A92000FFF755
:1025200017FFF088B0F5807F03D0B0F5007F17D09B
:102530001BE0EDB2002D12D00220039004A80290FF
:1025400016F108000190201D009014F12D0316F1E2
:10255000080214F12D01200000F008FAFFE704E062
:1025600004A92000FEF74AF9FFE7380000F05FFDFC
:1025700007B0F0BD2DE9FC4180460C00170018257E
:10258000DFF8FC643800C0B268433044007D0228A4
:1025900009DADFF8F03440F2ED22DFF80C15DFF84D
:1025A000EC04FFF773F93800C0B268433044007D93
:1025B000022837D13800C0B268433044408A40F224
:1025C0001D11884210DB3800C0B268433044011D41
:1025D000404600F04FFA002824D13800C0B26843CA
:1025E0003044032101751DE03800C0B26843304417
:1025F000408AB0F5877F15DB3800C0B268433044AD
:1026000010F10C023800C0B268433044011D40464E
:1026100000F020FA002805D13800C0B268433044E9
:10262000032101754FF400600090FFB26F4306EB89
:10263000070010F10C0318F12D022100404603F0B1
:102640000AF8BDE8F681FEB504000D00160037005B
:10265000002C09D1DFF82C3440F21B32DFF844148F
:10266000DFF82804FFF712F9002D09D1DFF8143440
:102670004FF44772DFF83414DFF81004FFF706F95F
:10268000002E09D1DFF8FC3340F21D32DFF81014C0
:10269000DFF8F803FFF7FAF82100306801F048FC92
:1026A00000280BD0DFF808344FF40060009014F1DC
:1026B0002D022900200002F0CEFFFEBD307810F080
:1026C000F000E02815D101208DF8040000208DF8DD
:1026D00005005E208DF80600707810F07F008DF800
:1026E0000700B0788DF80800F0788DF8090001AB8C
:1026F000DAE73168A06801406268A0680240914250
:102700000AD0306880B24FF6A961884204D0E068F0
:10271000002819D014F10C071820DFF89813DFF8FF
:1027200060230B78434313441B7D022B0FDB3B6874
:102730000E78464316447668B34208D10A782900D9
:102740002000FFF717FFB8E77FF00300B5E700238D
:1027500000E05B1C1E0076B20A2E1ADA1E0076B26A
:1027600016FB00F61644367D022EF2DB3E689C46D0
:102770004FFA8CFC1CFB00FC9444DCF804C066455A
:10278000E7D10B701A00D2B229002000FFF7F2FE49
:1027900093E72A003900200000F001F88DE72DE9C9
:1027A000FE4F82460D0014001AF12D0001905FF0DB
:1027B000FF3B00265146286801F0BAFB002809D1EA
:1027C000287810F0F000E02804D0002D02D028680E
:1027D000002802D17FF00F00C6E0524601212800F8
:1027E000FFF784FC0700380040B2002802D538000B
:1027F00040B2B9E05FF01808DFF88492380040B2C8
:1028000010FB08F04844007D00280ED10126380056
:1028100040B210FB08F0484401210175380040B275
:1028200010FB08F04844C0F808A0380040B210FB84
:1028300008F04844007D01280ED0380040B210FB5B
:1028400008F04844007D022806DA8E4B40F2C93277
:1028500099498E48FFF71AF8002E01D1002C09D1B2
:102860002900504600F006F98346002C02D1584654
:1028700040B279E0002C06D1824B40F2DB328B492A
:102880008248FFF703F8380040B210FB08F04844D4
:10289000007D022811DB874807704FF4006000902C
:1028A0007FB217FB08F0484410F10C03019A210095
:1028B000504602F0D0FE834654E0380040B210FB90
:1028C00008F04844007D01284CD10026250000E096
:1028D0002D68002D11D068892989884209D128687E
:1028E000002806D0674B4FF47B7274496748FEF7A7
:1028F000CDFF287B0128EBD00126002E12D000222C
:102900002989022000F0F8F80500002D0ED02100E2
:10291000280000F064FC002808D0280000F087FBA5
:10292000002503E02500280000F000FC002D17D052
:10293000380040B210FB08F059F80000002807D01A
:10294000380040B210FB08F059F8000000F06FFBAF
:102950007FB217FB08F049F800505FF0000B01E070
:102960005FF0FF3B584640B2BDE8FE8F2DE9F14FC6
:1029700082B0894690469B4600208DF8040002985C
:10298000002806D13F4B4FF48B6246493F48FEF783
:102990007DFF00221C21022000F0AEF80400002C74
:1029A00002D15FF0FF3053E060891C2806DA354B16
:1029B00040F2644242493548FEF768FF0F98676865
:1029C00080B200F083F8F880029890F82C00062876
:1029D00006D02C4B40F26B423A492C48FEF756FF8A
:1029E0000E9DDDF834A00C9E5946062217F1080B07
:1029F000584602F079FD0622514617F1120A504658
:102A000002F072FD0422310017F10E06300002F0D0
:102A10006BFD0422290017F11805280002F064FD5F
:102A20004FF48070388008207880062038710420A8
:102A3000787140F60600009043464A46210002980D
:102A400002F009FE200000F0F2FA00209DF90400D7
:102A5000BDE8FE8FF8B50123039302911A49019155
:102A6000011D009110F12D0310F12D01FFF77EFFE4
:102A700005B000BD80B50E4AFFF7ECFF02BD0000B7
:102A8000B47000248CC5000814D1000894DA000842
:102A900050E7000884E9000840D70008F4DF000888
:102AA00058EA000868EA00085CD4000880EB0008D7
:102AB00070EC00086D780024BCDA0008E0E400083F
:102AC00024D30008CCCF000878EC000801000800EF
:102AD00080B2000A50EA012080B27047010008026B
:102AE00010F47F0050EA01600A00120A12F47F42DB
:102AF000104350EA116070472DE9F0410E001700B5
:102B0000C0B2002806D002281CD019D304281DD03A
:102B10001AD31DE036253800C0B2002800F0D98055
:102B2000022800F01281C0F01081032840F01E81BD
:102B3000082001F0DDFD0400002C15D10020C6E0C6
:102B40002225E8E70E25E6E70025E4E70025E2E791
:102B5000DFF894384FF48B72DFF88818DFF88C08B0
:102B6000FEF794FE0020B2E02773002020602800CA
:102B700080B220441030C01C800880006060207942
:102B800010F0030F09D0DFF8603840F22912DFF8A7
:102B90006018DFF85808FEF779FE2681300080B211
:102BA000290089B2C91C89088900D1F500718842C1
:102BB00001D2310007E0290089B2C91C4FF6FC7030
:102BC0000140D1F50071618114F50470616862897A
:102BD0001144884209D2DFF810384FF49872DFF8B8
:102BE0001418DFF80808FEF751FEADB2ED1CAD0871
:102BF000AD00D5F50075002D09D1DFF8EC374FF4A5
:102C00009972DFF8F417DFF8E407FEF73FFE0120C2
:102C1000E081A046B6B26089361A46E04FF40070F3
:102C20001BE02F730020687300202860C8F8005054
:102C30004FF6FF70864209DBDFF8AC374FF4A6721F
:102C4000DFF8B817DFF8A407FEF720FE2E8130006A
:102C500080B2B0F5007FE1D23000688115F110003C
:102C60006860287910F0030F09D0DFF87C374FF443
:102C7000A972DFF88C17DFF87407FEF707FE14F56A
:102C80000470616862891144884209D2DFF85837BC
:102C900040F25512DFF85C17DFF85007FEF7F6FD3B
:102CA0000120E8816889361AA846012E0ADB08202F
:102CB00001F01EFD0500002DB3D1200000F0B7F992
:102CC000002004E00120E081002060732000BDE8C6
:102CD000F08115F113004FF6FC710840320092B2FA
:102CE000D21C4FF6FC710A401018010089B2320064
:102CF00092B2D21C92089200914201D20020E6E7E3
:102D000080B200F026FD0400002C01D10020DEE797
:102D1000ADB204EB05001030C01C8008800060607C
:102D2000268120896081002020602773207910F09F
:102D3000030F09D0DFF8B03640F27712DFF8C4167F
:102D4000DFF8A806FEF7A2FDBCE7072001F0D0FCE3
:102D50000400002C01D10020B9E70020606026812A
:102D600020896081002020602773ABE7DFF8783688
:102D70004FF4C672DFF89016DFF87006FEF786FD96
:102D80000020A4E738B504001800E4B2002C06D0F7
:102D9000022C14D011D3042C15D012D315E03624F4
:102DA000059B9BB22500ADB2ED1CAD08AD0015FA38
:102DB00081F5AB4215D2002029E02224F0E70E2451
:102DC000EEE70024ECE70024EAE7DFF81C3640F2E7
:102DD000C512DFF83816DFF81406FEF757FD00209D
:102DE00015E0049B00250560002B06D0A4B2E41C6E
:102DF000A408A4002344436001E0002343600223AD
:102E0000437301810189418102730121C18132BD76
:102E100070B504000D00002C09D1DFF8CC3540F26C
:102E2000F312DFF8EC15DFF8C405FEF72FFD207B69
:102E3000032812D0207B01280FD0207B00280CD043
:102E4000207B022809D0DFF8A03540F2F712DFF826
:102E5000C415DFF89805FEF719FD2800218980B216
:102E6000884253D2280080B22689861B1FE06089E1
:102E70002D1A4FF6FF70864209DBDFF86C3540F201
:102E80000B22DFF89415DFF86405FEF7FFFC2089BC
:102E9000301820812468002C09D1DFF84C3540F22D
:102EA0000F22DFF87815DFF84405FEF7EFFC6089A4
:102EB000290089B28842DAD3207B00281BD1280060
:102EC000618980B2884216D0607B800713D4616824
:102ED000091B691889B2200000F095FB0400002C42
:102EE00009D1DFF8043540F21D22DFF83415DFF890
:102EF000FC04FEF7CBFC65816089208120680028F6
:102F000002D0206800F093F80020206070BD70B5FA
:102F100004000E001500002C09D1DFF8CC3440F27B
:102F20003F22DFF80015DFF8C404FEF7AFFC3000E5
:102F300000B2002801D0002C01D100204EE030006A
:102F400000B2002814D533001BB25B42608919001F
:102F500089B288420BD2DFF8903440F24722DFF882
:102F6000C814DFF88804FEF791FC012036E001E088
:102F700033009BB2217B6268080080B2002803D036
:102F8000080080B203280DD16068310009B24942BF
:102F900008446060606814F11001884217D26260D2
:102FA00001201BE0080080B2022802D089B201296A
:102FB00025D1300000B2002811D560899BB298421B
:102FC0000DD36068310009B24942084460606089ED
:102FD00030186081208936182681002070BD3000AD
:102FE00000B2012809DBEDB2002D06D06068310087
:102FF00009B2494208446060E9E70120EEE7DFF8E2
:10300000E83340F27722DFF82414DFF8E003FEF71C
:103010003DFC0120E2E780B5002209B2FFF777FF0F
:1030200002BD80B5012209B2FFF771FF02BDF8B5FC
:103030000400002C0DD1002C09D1DFF8AC3340F294
:10304000D222DFF8E013DFF8A403FEF71FFC002014
:1030500062E0207B002812D0207B01280FD0207B4B
:1030600002280CD0207B032809D0DFF87C3340F203
:10307000DE22DFF8BC13DFF87403FEF707FC00253F
:1030800004E0200000F07EFA6D1C3400002C41D0DA
:10309000E089002809D1DFF8503340F2EB22DFF855
:1030A0009413DFF84803FEF7F1FBE089401EE0814E
:1030B000E08980B200282BD12668207B617B8907BC
:1030C00011D527003869002809D1DFF81C3340F2F8
:1030D000F922DFF86413DFF81403FEF7D7FB2000B2
:1030E00039698847D0E7010089B2032904D121005A
:1030F000082001F026FBC7E7010089B2012902D0B0
:1031000080B20228BDD12100072001F01AFBBBE7E5
:103110000024BBE72800C0B2F2BD0100002001E09E
:10312000401C09680029FBD180B2704780B5002897
:103130000FD0C189491CC181C089002809D1DFF89D
:10314000A83240F23932DFF8F412DFF8A002FEF7BD
:103150009DFB01BD38B504000D00002C01D0002DF1
:103160000AD1DFF8843240F24D32DFF8D412DFF8B2
:103170007C02FEF78BFB28E004E0218928894118B6
:103180002181246820680028F7D12089618988423C
:1031900009D0DFF8543240F25532DFF8A812DFF8D8
:1031A0004C02FEF773FB2068002809D0DFF83832A4
:1031B00040F25632DFF89012DFF83002FEF766FB7D
:1031C0002189288941182181256031BD10B50C0065
:1031D0002100FFF7BFFF2000FFF7A8FF10BD2DE97A
:1031E000F84305000C0000270026002D05D0002C18
:1031F00003D02889218988420CD2DFF8EC3140F2D3
:10320000BD32DFF84812DFF8E401FEF73FFB7FF044
:103210000F0069E06989380080B2091A62893000BC
:1032200080B2121A914204DBB4F80A80B8EB0608A7
:1032300003E0B5F80A80B8EB0708424692B260682E
:10324000310089B2014468683B009BB200EB03097E
:10325000484602F049F918EB070718EB060668899B
:10326000390089B2884209D2DFF87C3140F2CD3290
:10327000DFF8DC11DFF87401FEF708FB608931002C
:1032800089B2884209D2DFF8603140F2CE32DFF8ED
:10329000C411DFF85801FEF7F9FA3000618980B2F5
:1032A000884201D3002624683800698980B28842A8
:1032B00005D100272D68002D01D1002C16D1002C3E
:1032C00006D060892189884202D12068002818D15F
:1032D000002D06D068892989884202D128680028F3
:1032E0001AD1002C96D10020BDE8F2833E4B4FF45A
:1032F0007672DFF864113D48FEF7C8FA7FF00F00E0
:10330000F2E7394B40F2DE32DFF850113748FEF772
:10331000BDFA7FF00500E7E7334B40F2E332DFF818
:103320003C113248FEF7B2FA7FF00500DCE72DE9E8
:10333000F04704000D0090460027002C08D12A4BCE
:1033400040F2FE3246492948FEF7A0FA002046E046
:10335000002D08D1244B40F2FF3242492348FEF7AA
:1033600095FA00203BE00026002C01D0002D01D171
:10337000002034E02BE0B4F80A90B9EB0309404692
:10338000494680B289B2884200D2C1464A4692B2CA
:1033900060689BB200EB0301300080B205EB000ACD
:1033A000504602F0A1F819EB070719EB0606B8EB37
:1033B000090800230AE0180080B20028DBD01800BA
:1033C000618980B28842D6D360891B1A246840463E
:1033D00080B2002801D0002CEDD1380080B2BDE8C9
:1033E000F0870000C0E5000844CC00089CDC000821
:1033F0001CD50008C0D30008F4D30008C0E90008B9
:103400004CD50008C4D70008DCE50008F0E000084F
:10341000C8E70008F8E50008D4E90008E0E700087C
:1034200014E6000834EC000894E30008A8EA000859
:10343000F8E7000810E8000814E10008E8E90008CF
:103440007CD200087CD50008B8EA0008ACD500089A
:1034500028E8000830E60008C8EA0008F0D70008AD
:10346000B4E3000838E1000870B50400DFF8305418
:103470002868844209D2DFF82C3440F25D12DFF86C
:103480002814DFF82804FEF701FADFF82464306816
:10349000844209D3DFF80C344FF4AF72DFF8141410
:1034A000DFF80804FEF7F2F92079002809D0DFF8E8
:1034B000F43340F25F12DFF80014DFF8F003FEF798
:1034C000E5F9208843F68161884209D3DFF8D433D7
:1034D0004FF4B172DFF8E413DFF8D003FEF7D6F94A
:1034E0002868218801448C4213D00879002810D123
:1034F000306881420DD0DFF8C80302688A4200D1EB
:103500000460088820802868201A2A6809881144E5
:103510004880286861880144A14210D008790028B9
:103520000DD1DFF89C030268A24200D1016020881F
:1035300008802868091A286822881044418070BDD4
:1035400010B4DFF85C13DFF87C03800880000860AB
:1035500008684FF47A5202800023438000230371ED
:10356000DFF84C030B6813440360012304682371E4
:1035700003681A80006842800868DFF84413086016
:1035800010BC704738B50400002C3BD014F0030089
:10359000002809D0DFF80C334FF4D672DFF8281377
:1035A000DFF80803FEF772F9BD4D2868844204D3A2
:1035B000DFF8FC020068844207D3BA4B40F2AF1236
:1035C000DFF80813B948FEF761F92868844203D38D
:1035D000B7480068844200D314E0083C20790028F2
:1035E00006D1B04B4FF4E072B949B048FEF74EF93E
:1035F00000202071B24801688C4200D20460200093
:10360000FFF732FF31BD2DE9F8430D00ADB2ED1CDF
:103610004FF6FC710D40290089B20C2900D20C250F
:10362000290089B243F68162914201D300208EE0E5
:103630000400DFF86C82D8F80000844203D39C4871
:103640000068844206D3974B4FF4FA72A149974819
:10365000FEF71CF9D8F80000844203D394480068B0
:10366000844201D3200072E0B4F10807D8F800606A
:10367000BE1B3988300080B2091AB1F108094846EA
:10368000290080B289B2884206D2864B40F20622D7
:1036900091498648FEF7FAF84846290080B289B277
:1036A000884201D2002052E02800494680B289B207
:1036B000884201D120004AE0D8F80000398801444E
:1036C0000879002820D10888AD1908357C4A13688C
:1036D0008B4205D1D8F800102B009BB21944116021
:1036E000D8F800102A0092B2114400220A71088012
:1036F0004E803D800888B0F57A5F27D0D8F800006A
:1037000009880844458021E01FFA89F9280080B221
:10371000143081451AD3AD190835D8F800002900B6
:1037200089B2084466490A68904200D208600021C4
:1037300001713988018046803D800188B1F57A5F4A
:1037400004D0D8F800100088084445802000BDE867
:10375000F283F8B50500280080B2002801D10020CE
:103760009DE0ADB2ED1C4FF6FC700540280080B224
:103770000C2800D20C25280080B243F681618842D3
:1037800001D300208BE046494D4A10680B68C31AEC
:1037900002E008689BB2C35A180080B22C00A4B2A1
:1037A000D4F57A54A04279D208681C00A4B204442B
:1037B00020790028EDD12688180080B2361A083EFC
:1037C000280080B28642E4D32688180080B2361AD8
:1037D000083E280080B21430864216D3E81808301C
:1037E0000E680700BFB23E44002737712788378034
:1037F00073802080012323713388B3F57A5F06D06C
:103800000B6836883344588001E00120207110682D
:1038100084421CD1136802E008681B8803441879AD
:10382000002803D0224800688342F5D11360106855
:103830001F49096888420AD010680079002806D01C
:10384000184B40F2CF2225491848FEF71FF81848B8
:10385000006814FA85F10831884206D2114B4FF402
:1038600035721F491148FEF711F814F003000028C3
:1038700006D00C4B40F2D6221A490C48FEF706F847
:1038800014F00300002806D0064B4FF43672164998
:103890000648FDF7FBFF14F1080000E00020F2BD30
:1038A000E0770024A0CA000868E7000824DC0008CC
:1038B000E477002450E500086CE5000898D700087C
:1038C000E8770024B300002460E0000880E70008E7
:1038D000ACE9000898E7000834E3000888E5000830
:1038E000BCD40008ECD4000884E0000862F30F2286
:1038F00062F31F42401810F0030308D0C91A1FD307
:10390000DB0748BF00F8012D28BF20F8022D130067
:1039100030B414461546103928BF20E93C00FAD8C7
:10392000490728BF20E90C0048BF40F8042D890052
:1039300028BF20F8022D48BF00F8012D30BC704789
:10394000C91818BF00F8012DCB0728BF00F8012DBA
:1039500070470268531C036011707047F0B5244C27
:10396000244A2078244B6FF0004150BB0820656842
:1039700003FB05250E46B5FBF6F601FB1655401E6A
:103980006560F4D11D4D2E461020676803FB0727A4
:103990008C46B7FBFCFC01FB1C77676046F8047B98
:1039A0008E4603FB0727B7FBFEFE01FB1E77676011
:1039B000401E46F8047BE8D1E86FC5F88000012579
:1039C0002570606803FB00220B46B2FBF3F301FB9A
:1039D00013210A4A616092F8803003F01F0352F805
:1039E0002300C2F8800042F8231020F04040F0BDD0
:1039F000140000245FF36E3C0D661900E07400248F
:103A00002DE9F84F0FF2FC4590461F4694B0D5E9DA
:103A100000230491CDE900231E9C944E8DF837407D
:103A2000002182460A914FF0FF3513E0C3464C4611
:103A30001BF8011B0498D0470028049000F0018176
:103A40000A98401C641E0A90F2D102E0EED54FF0B5
:103A50000109C84498F80000252805D1002100225A
:103A60000791089209910CE06A462946404601F008
:103A70005DFE8146B9F1000FE8D10A98F8E041F007
:103A8000010118F8010F2028F9D023280CD02B2889
:103A900004D02D2805D0302809D0D4E041F002010F
:103AA000EFE741F00401ECE741F00801E9E741F0FC
:103AB0001001E6E70C920AE00C98B04205DA00EB40
:103AC000800402EB4402303A0C9208F1010898F8A5
:103AD0000020A2F130000A28EED398F800002E282A
:103AE00018BF0B9526D118F8010F2A2808D138687D
:103AF000386008F1010850F8042B38600B9219E087
:103B00002D280CBF08F10108002000220B920BE0C9
:103B100040B90B9AB24205DA02EB820403EB44038C
:103B2000303B0B9308F1010898F80030A3F1300204
:103B30000A2AEDD3ADF834100FF2D03098F8001007
:103B400001F0F8FD08B118F8010B8DF836009DF86A
:103B50003600682804BF98F80010682904D1622054
:103B60008DF8360008F101080EA806903A4618F8BC
:103B7000013B03A9504600F0A9F8002861D10C9838
:103B80000799099A401A0899801AA0EB01099DF833
:103B90003400410710D42020B9F1000F8DF808003F
:103BA0000ADD4C46012302AA03A9504600F093F90E
:103BB000002846D1641EF5D1079C0DF1380B5CB18D
:103BC0001BF8011B0498D0470028049039D00A98AC
:103BD000401C641E0A90F3D1099C3020002C8DF803
:103BE000080008DD012302AA03A9504600F073F97A
:103BF00038BB641EF6D1DDF814B0089C54B11BF834
:103C0000011B0498D0470490D8B10A98401C641E48
:103C10000A90F4D19DF8340041077FF51BAF2020B6
:103C2000B9F1000F8DF808007FF714AF4C4601235F
:103C300002AA03A9504600F04EF910B9641EF6D14D
:103C400008E7284614E02A287FF434AF3A683A603F
:103C500052F8040B3A6000280C9003D540420C90B7
:103C600041F0040108F1010837E70000CBCCCC0C8F
:103C700015B0BDE8F08F62280ED0682819D1002A4F
:103C80000A680A60106803D0121D0A6000B217E0CB
:103C9000121D0A6080B217E0002A0A680A601068E4
:103CA00003D0121D0A6040B20AE0121D0A60C0B2C1
:103CB0000AE0002A0A680A60106803D0121D0A6030
:103CC000C1177047121D0A600021704770B51C466D
:103CD0000D46252CEE68114600F08480582C37D014
:103CE000632C0ED0642C18BF692C14D06F2C2FD0ED
:103CF000702C49D0732C53D0752C18BF782C27D03A
:103D000076E02869421C2A610A680A6052F8043B7E
:103D10000A60335476E095F82A000122FFF7ABFFE2
:103D20000028286004D52869411C29612D220DE056
:103D3000288D810704D52869411C29612B2205E0C3
:103D4000C0071CD52869411C29612022325416E085
:103D500095F82A000022FFF78EFF286095F82800CA
:103D600001070CD5286850B144F02001782906D10C
:103D7000286930213154401C421C2A6134542146A8
:103D800028693044A86007E00868086050F8042BF0
:103D900008602A60AE607821284600F035F831E0EE
:103DA0000868086050F8044B0860AC603CB900BF7C
:103DB00058A001F0CBFC4FF0FF34201A70BD2E6AE2
:103DC000002E04D5204601F0E1FC044608E032460E
:103DD0000021204601F0F6FC002814BF041B3446E5
:103DE0006C610FE02869411C29612522325409E0E9
:103DF0002969481C286125227254210002D0431CE5
:103E00002B613454002070BDF0B402466F29D46891
:103E100008BF082605D041F02000782814BF0A26E4
:103E2000102618251368642918BF6929184602D17D
:103E3000002B48BF4042F0B9136AE3B9082E39D1CC
:103E400092F82800010735D530201725E07531E0BC
:103E500000280ED592F8280000F01400102808D190
:103E6000546A11699069641A241AE31A012BA8BFD5
:103E70009361F0BC7047B0FBF6F706FB17003030DB
:103E80006D1EC3B23A2BA4BFA1F15103181860559F
:103E9000380003D093686719BB42ECD3082E09D1D0
:103EA00092F82800010705D5605D302802D06D1E0C
:103EB00030206055C5F11803106A536161198342BF
:103EC0009160C5DA118DC31A4FF6EF70014093610E
:103ED0001185F0BC7047F8B505460E4617461C46DE
:103EE000002074B117F8011B7068A847706030B1EA
:103EF000F069401CF0610020641EF3D1F2BD4FF068
:103F0000FF30F2BD0000000000000000686C747A11
:103F10004C0000007072696E74665F733A206261D3
:103F20006420257320617267756D656E74000000F2
:103F300010B40300C243002A01D0002801D101209F
:103F40001AE091F83320920701D4002014E04A6867
:103F5000904201D100200FE08A6813404C688A68C3
:103F60001440A34207D18A6890438968C9438842B4
:103F700001D1012000E0002010BC704780B5102264
:103F8000014900F003F802BDA4770024FCB500232A
:103F9000006800900C006D46002604E02E20207082
:103FA000641C6D1C761C3000C0B2042834DA002773
:103FB00095F800C05FF00A0E9CFBFEF00EFB10C0EF
:103FC00095F800C05FF00A0E9CFBFEFC85F800C06F
:103FD0000DF1040C3030BE465FFA8EFE0CF80E0078
:103FE0007F1C28780028E3D13800471EC0B2002883
:103FF0000CD01800431C904206DA3800C0B21CF8FE
:1040000000002070641CEFE7002009E01800431C4A
:104010009042C3DB002003E0601E00220270080013
:10402000F6BD00002DE9FE4F06000D00DFF85882B6
:10403000D8F808A09AF8000010F00F0080B25FEAEC
:104040008009484680B2142803DA3000FEF7EFFFFB
:1040500017E070890428F8D3706800780100C9B2AD
:10406000002902D0082901D09AE0B7E018F114071E
:1040700098F8140010F0F000E02804D13000FEF7AA
:10408000D6FFBDE8F78FD8F80010D8F81400FFF776
:104090004FFF0028F2D130890828D6D3300001F034
:1040A000F0FB002803D03000FEF7C1FFE9E719F16B
:1040B0000E0109B23000FEF7AEFF00285FD00022EB
:1040C000318919EB010189B20220FEF715FD0400C8
:1040D000002CD3D06089494689B20831884203D286
:1040E0002000FEF7A4FFC9E74A4692B2D4F804B014
:1040F0005146584601F0F8F9494689B2494209B299
:104100002000FEF788FF002809D0604BAF226049ED
:104110006048FDF7BBFB2000FEF789FFAEE73100EA
:104120002000FFF75CF8002803D02000FEF77FFF97
:10413000A4E73000FEF77BFF26007468494609B209
:104140003000FEF768FF002818D170683968C16038
:10415000D8F8101001610021217000216180FF2139
:104160000172002141810295012001900020009000
:10417000FF2300223900300000F0E6F92EE019F1AB
:104180000E0109B2494209B23000FEF744FF00288F
:10419000D3D03E4BC02240493E48FDF777FB6DE748
:1041A0000100C9B2032919D00100C9B20B2915D0E9
:1041B0000100C9B20C2911D00100C9B204290DD0E7
:1041C0000100C9B2052909D00100C9B20D2905D0E5
:1041D0000100C9B20E2901D0C0B211283000FEF78B
:1041E00026FF4EE780B50A00D2B2032100F008F89E
:1041F00001BD80B50A00D2B20B2100F001F801BD6B
:104200002DE9F84384B00700884691460022242116
:104210000120FEF771FC0400002C32D060892428B4
:1042200006D21A4B4FF4B1721C491A48FDF72EFB07
:104230007E68656885F8008085F801900020A88078
:104240000020E8801C227968606810F108073800B7
:1042500001F04AF9F068039003A800F021F8002863
:104260000CD0002169800290012001900020009074
:10427000FF2303AA0021200000F066F92000FEF7CA
:10428000D6FE05B0BDE8F08378770024D4C70008D7
:104290000CD2000834DB00088CD300086CD700086F
:1042A00010B40200DFF8AC03006808E090F83310A7
:1042B000890703D41168C368994214D000680028A4
:1042C00012D090F8331011F005010529F6D141689C
:1042D0000029F3D0136881680B40446881680C4062
:1042E000A342E3D113E012E0DFF86C130868002862
:1042F0000AD0086890F8330010F00500052803D1B3
:1043000008684068002801D1002000E0086810BC5F
:1043100070472DE9F84F060088460127D6F804902B
:1043200099F80000C0B20009C0B2042804D03000DF
:10433000FEF77DFE002005E199F8000010F00F0067
:1043400080B25FEA800AB9F80200FEF7BFFB040002
:104350002000318980B2884204D2210089B2300025
:10436000FEF756FD7089514689B2884207D33089DD
:10437000A4B2A04203D3504680B2142804DA30001D
:10438000FEF755FE0020DDE0D9F81000DFF8CCB2D2
:10439000CBF81400D9F80C00CBF810009BF81400EF
:1043A00010F0F000E02831D198F83300C0072BD589
:1043B000D8F80400002827D04446002C0CD199F8E6
:1043C0000900112808D1504680B248444088B0F511
:1043D000884F01D144460027002F42D0DBF810005F
:1043E00000283ED04146DBF81000FFF7A1FD002871
:1043F00005D19BF8100010F0F000E02831D130001A
:10440000FEF715FE00209DE00024D6E70125444676
:1044100094F83300C0070ED5606800280BD0DBF895
:1044200014006168884217D02100DBF81400FFF700
:104430007FFD002810D1002D11D09BF8140000F052
:10444000FF007F2809D0002582480468444500D138
:104450002468002CDCD1B0E7AFE70024ADE7246886
:10446000F4E7002C04D13000FEF7E1FD002069E004
:10447000B9F806004FF63F71084209D0300001F04C
:104480003BFC0600002E01D100205BE0D6F8049032
:10449000CBF80040CBF80480CBF8089099F80000E6
:1044A00010F00F0080B28000ABF80C00514609B24A
:1044B000494209B23000FEF7AEFD99F80900012823
:1044C0000DD0062806D011280ED141463000FDF748
:1044D0003FFA24E04146300001F050FE1FE0414623
:1044E0003000FFF79FFD1AE02100DBF81400FFF712
:1044F0001FFD002810D19BF8140010F0F000E028F8
:104500000AD0514609B23000FEF78BFDC6F8049080
:1045100002213000FFF766FE3000FEF788FD002024
:10452000CBF800000020CBF804000020CBF80800F6
:104530000020ABF80C000020CBF810000020CBF8D6
:1045400014000020BDE8F28F7FB50A9E0C00002AFF
:1045500005D0002902D00968002900D1341D09992D
:10456000089D0296C9B20191EDB20095DBB221001F
:1045700000F002F804B070BD2DE9F84306000D000C
:1045800014009846F089012806D0354B40F23332AA
:1045900034493548FDF77AF9002C42D05FF0140910
:1045A00014213000FEF737FD002802D07FF0010013
:1045B0004EE077687089142806D2294B40F26132A8
:1045C0002A492948FDF762F90998089987F808806F
:1045D0007872206838611FFA89F9042099FBF0F09D
:1045E00050F04000387079703089FEF76FFA7880AB
:1045F0000020F880DFF87880B8F80000FEF766FA4F
:10460000B880B8F80000401CA8F80000002D03D1C5
:1046100018480068F86001E02868F8600020788198
:1046200003E07068016900916C460A9B588D002870
:1046300009D0588D3189884205D2220019003000F6
:1046400001F079FC04E02200310018005B69984712
:10465000BDE8F283107800241478002478770024D1
:1046600064C800088CEB000884DB00088CD40008C8
:104670005C78002490EC0008002182681160426898
:10468000D21C92089200002107E083681B68136027
:1046900083681A6003881A44491C43889942F4DBF2
:1046A000704710B5002407E03148210089B250F866
:1046B0002100FFF7E1FF641C200080B20928F3D33A
:1046C00010BD10B581680C68002C0FD0216880687F
:1046D000016014F00300002806D0264B40F2491276
:1046E00025492648FDF7D2F8200000E0002010BD43
:1046F00080B50100C9B2092908DB1E4B40F28712C0
:104700001F491E48FDF7C2F8002005E01849C0B255
:1047100051F82000FFF7D5FF02BD38B504000D00A9
:1047200015F00300002806D0124B40F29D121549E7
:104730001248FDF7ABF8A06800682860A068056023
:1047400031BD80B50200D2B2092A07DB094B40F225
:10475000DB120D490948FDF799F807E0002905D05B
:10476000034AC0B252F82000FFF7D7FF01BD000096
:10477000CCE000082CCB0008A8E000084CDC0008C6
:1047800054E3000874E30008A4E50008704780B50E
:1047900000F026FCDFF834080178491C017000782D
:1047A000C00701D500F026FA01BD05E0426F8A423C
:1047B00001D100224267C0680028F7D1704738B5A0
:1047C0000400002C08D1DFF81834C022DFF81414DC
:1047D000DFF8FC07FDF75AF8207D012808D0DFF844
:1047E0000034C122DFF80014DFF8E407FDF74EF8CB
:1047F000012508E02100DFF8600850F82500006876
:10480000FFF7D3FF6D1C042DF4D331BD1CB504009C
:10481000C9B200295BD0207D042802D0207D072862
:1048200055D1206F002804D1208D40F66831884290
:104830004DD0A07EC00609D4DFF8A43340F20F1299
:10484000DFF8A813DFF88807FDF720F8208B019028
:10485000E08A0090231D2200616AE06C03F098FA60
:10486000200000F047FDDFF888030168A14203D172
:104870000168C968016009E0006800E0C0680028BC
:1048800004D0C168A142F9D1E168C1600020E060B4
:104890000120DFF8CC170870207D042809D10A20F8
:1048A0002075DFF830070168E160046003F011FC57
:1048B0000BE0DFF824070068A04202D102F09DFE61
:1048C00003E021000120FFF73CFF002023E0207DD2
:1048D000002803D002282CD01ED338E0E08A00281C
:1048E00014D0DFF8F8060168A14203D10168C96855
:1048F000016009E0006800E0C068002804D0C168D9
:10490000A142F9D1E168C1600020E06021000120EE
:10491000FFF717FF002016BD2000FFF750FF210012
:10492000DFF8380700F00AFD21000220FFF709FF39
:10493000F0E72100DFF8B80200F000FD0120DFF809
:104940002017087021000120FFF7FBFEE2E720009E
:1049500000F001F8DFE738B50400002C09D1DFF8DA
:10496000803240F24D12DFF87C12DFF86406FCF76B
:104970008DFF207D032804D0042816D007281FD0DF
:1049800029E0200002F0C1FE0500280040B2002806
:1049900001D105202075280040B200281DD120003B
:1049A00003F050F8280040B232BD200002F0ADFE06
:1049B0000500280040B2002801D105202075EAE753
:1049C000200002F0A2FE0500280040B2002801D11C
:1049D00009202075DFE70020E6E728005FF0FF31BF
:1049E00040B28842DED1A07E50F00800A0760020C0
:1049F000DAE780B5017D012903D0817E51F01001F5
:104A000081760121FFF702FF02BD2DE9FE4F05006F
:104A10008B46287D012809D1DFF8C4314FF4F072AC
:104A2000DFF87017DFF8A805FCF730FF287D0A28AB
:104A300009D12900DFF89C0500F080FC2900012045
:104A4000FFF77FFE53E000240026EF6CD5F82480AA
:104A5000D5F88890D5F810A0287D002818D1E88ACC
:104A6000002820D0DFF874050168A94203D101684D
:104A7000C968016009E0006800E0C068002804D04F
:104A8000C168A942F9D1E968C1600020E8600AE084
:104A90005C46EE8A2900DFF8580100F04FFC012047
:104AA000DFF8BC150870E86E002802D0E86E00F050
:104AB0001FFBA86E002802D0A86E00F019FB002C86
:104AC00009D0288B0190B6B200962B1D2A004146D2
:104AD000380003F05DF9287D29000120FFF731FE41
:104AE0004846002803D07FF00C015046C847BDE877
:104AF000F78F80B50121FFF788FF01BD38B50400AD
:104B0000606A218D4018618E40F2B552914202DBFD
:104B100040F2B45100E0618EE26A821A511A002913
:104B200004D4218D6185E16A401A18E0616AE06A67
:104B3000091A012902DB002060850FE0E06A656A3E
:104B4000451BB5F5803F08D3254B4FF44272DFF883
:104B5000A017DFF84406FCF799FE6585002032BDFA
:104B600038B504000D00207D012808D11C4B4FF4FE
:104B70004872DFF85018DFF82006FCF787FE208D1A
:104B80002D182585208D40F66931884203DB40F6DB
:104B90006830208515E0208D002812D1207D07285F
:104BA00002D0207D092803D140F66830208508E036
:104BB0000B4B40F22D32DFF82018DFF8DC05FCF754
:104BC00065FE2000FFF79AFF40F2DA21884206DBFB
:104BD000A07E50F00200A076200002F033FF31BD2D
:104BE000D0CC000840EC000858E800084CE600086B
:104BF000287800242DE9FE4F0020DFF88488D8F8BB
:104C00000000401CC8F80000DFF8789899F8000010
:104C1000401C89F8000034E0DAF80000A84209D00E
:104C2000DFF8643840F28D42DFF86018DFF868057D
:104C3000FCF72CFEE868CAF80000F6B2002E09D096
:104C4000288B0190E88A00902B1D2A00696AE86C85
:104C500003F09EF82E69287D2900ED680120FFF7FA
:104C600070FDDFF8FCB300208BF80000380000284E
:104C700003D07FF00C013000B8479BF800000028FB
:104C800006D00024DFF808A8DAF8005000E0ED684C
:104C9000002D00F05281287D002809D1DFF8E83787
:104CA0004FF47C72DFF8EC17DFF8EC04FCF7EEFD54
:104CB000287D012809D1DFF8D03740F2F132DFF842
:104CC000D817DFF8D404FCF7E1FD287D0A2809D1C4
:104CD000DFF8B43740F2F232DFF8C017DFF8B8047B
:104CE000FCF7D4FD687F99F800108842CFD099F87E
:104CF0000000687700270026287D022805D195F856
:104D00004200062801DB7F1C7CE095F842000C285D
:104D100001DB7F1C76E095F89100002828D0DFF8B1
:104D2000800795F89110084410F8010C95F8901040
:104D30000200D2B2914204D295F89010491C85F835
:104D4000901095F89010C0B281425BD3280003F018
:104D50003DF9002856D1002085F8900095F8910083
:104D600007284FD295F89100401C85F8910049E042
:104D7000B5F93000002802D4288E401C2886E86E41
:104D800000283FD0B5F93000B5F94010884239DB32
:104D9000287D022814D095F842000C2802D295F8FC
:104DA000420000E00C20B5F93C10C910B5F93E20D6
:104DB0008918DFF8F026C0B210568140A5F84010DF
:104DC00000202886B5F84800B5F85C10884202D269
:104DD000B5F8480001E0B5F85C0080B24008A5F8DD
:104DE0004A00B5F84A00698E490089B2884203D268
:104DF000688E4000A5F84A00688EA5F84800280093
:104E000003F034F8287D062809D1A87EC00606D50F
:104E1000D8F80010286A091A292900D37F1C287A9B
:104E2000000734D5287D042802D0287D07282ED1FC
:104E3000D5F88C10DFF8700641184FF4FA70B1FB0A
:104E4000F0F1D8F80020286A121A914202D27F1C91
:104E5000761C1CE0D5F88C1095F89220DFF84C06F3
:104E600000FB02114FF4FA70B1FBF0F1D8F800200A
:104E7000286A121A91420AD2280003F07BF840B245
:104E8000002804D195F89200401C85F89200287DF6
:104E9000032806D1D8F80010286A091A292900D356
:104EA0007F1C287D092806D1D8F80010286A091A25
:104EB000F12900D37F1CFFB2002F17D0D5F88870DE
:104EC000280000F017FA002C3FF4A6AEDAF8000034
:104ED000854208D1DFF8B03540F28942DFF8D015BD
:104EE000AD48FCF7D3FCE868E060A6E62C00ED686E
:104EF000E07E401CE076E07E217F8842FFF4C8AE71
:104F00000020E076564E00203070D4F8840000284F
:104F100006D021002069D4F884209047010000E0E9
:104F20000021307800287FF4ACAE49B200297FF42C
:104F3000AFAE200002F086FDAAE60024254E3568BB
:104F400012E03068A84208D0DFF83C3540F2CF428A
:104F5000DFF860159048FCF799FCE868306029009C
:104F6000ED680120FFF7EDFB002D2DD0287D0A28EC
:104F700008D0DFF8143540F2BD42DFF83C15864812
:104F8000FCF784FC0020D8F80020296A521AF12A84
:104F900000D3401CC0B2002813D0280000F0AAF9AA
:104FA000002CCED03068854208D1DFF8DC3440F2E6
:104FB000CB42DFF808157848FCF768FCE868E06049
:104FC000CDE72C00ED68CFE7BDE8F78F70780024BF
:104FD000C4DC00082C7800244478002420780024C5
:104FE000F8B5DFF8A0542878401C287026E028780F
:104FF0006077A07EC0070AD5A07E50F00200A076A0
:10500000200002F01FFDA07E10F0FC00A076A07E24
:10501000000706D5A07E10F0F700A0762000FFF76D
:105020009AFCE668206F00280CD00D4F00203870E5
:10503000200000F017F83878002803D0DFF850047B
:10504000046800E03400002C05D0607F2978884295
:10505000CDD1E468F7E7F1BD08EB0008247800241F
:105060006F780024F8B50400206F467B256F002080
:105070002067E06F002806D000232A002100206965
:10508000E76FB84705E000232A002100002000F068
:1050900047F8010049B200291CD1B00626D5208D61
:1050A00040F66831884202D0208D401C2085E06F98
:1050B000002807D00023002221002069E46FA047C8
:1050C000010000E000217FF00C00020049B2914293
:1050D0000CD10CE07FF00C010A0040B2904201D1EB
:1050E000080004E025677FF0040000E00020F2BD26
:1050F00010B503E0046800F004F820000028F9D19E
:1051000010BD10B50400002C09D06068002802D042
:105110006068FDF78CFF21000320FFF712FB10BD34
:1051200010B508001400002C07D02189FFF718FDE6
:105130002000FDF77CFF002010BD5BB2002BFAD1F0
:10514000FFF757FCF8E770B50100C9B2802901DB11
:105150007F20FFE700240022DFF83413096811E004
:1051600003004D7DDBB2AB420BD3DFF814532E6846
:105170000B6AF61AA64204D328680C6A041B0A00BC
:10518000487DC9680029EBD1002A02D01000FFF742
:10519000B0FC70BD28D40008C4DC000870B5040061
:1051A0002000C0B208280DD02000C0B2092809D0C4
:1051B000DFF8D43240F2DC52DFF80413DFF80403E6
:1051C000FCF764FB00230022DFF8C402006810E053
:1051D000017D2500EDB2A9420AD1DFF8A4522E6864
:1051E000016A761A9E4203D32968036ACB1A020029
:1051F000C0680028ECD1002A03D000211000FFF77E
:1052000004FC70BD38B500230020DFF8BC1209682B
:105210000BE0DFF86C4225680A6AAD1A9D4203D3A1
:1052200020680B6AC31A0800C9680029F1D1002858
:1052300001D0FFF75EFC31BD70B505000120FFF71E
:1052400057FA0400002C21D1FFF7DCFF0120FFF703
:105250004FFA0400002C19D10920FFF79FFF01200D
:10526000FFF746FA0400002C10D10820FFF796FF44
:105270000120FFF73DFA0400002C07D12800C0B23E
:10528000FFF761FF0120FFF733FA0400002C2CD058
:105290009421002226003000FEF728FB657541F2BC
:1052A000D060A4F8600040F668316185618D218589
:1052B000FF21A1724FF4067161860621A4F8401007
:1052C0000621E1875FF0FF3121860121A4F8481013
:1052D0006B49096821626B4909786177A4F84A0033
:1052E0007A48E0677A48C4F88C00200070BD00005E
:1052F00068E6000810B50400207D00281DD0207D40
:105300000A281AD0207D012817D0206F002804D049
:10531000206FFDF78CFE002020675FF0FF302086B5
:10532000A06EFFF7E5FEE06EFFF7E2FE0020A0664C
:10533000A06EE0660020A4F8640010BD10B50C005B
:105340000168A14203D10168C968016009E00068F1
:1053500000E0C068002804D0C168A142F9D1E1682A
:10536000C1600020E0602000FFF7C4FF207D0A2814
:105370000CD0207D012809D0A07EC00706D5A07ED4
:1053800050F00200A076200002F05CFB207D012896
:1053900013D0A06E002806D03B4B40F253724D490B
:1053A0004848FCF773FAE06E002806D0364B40F20E
:1053B000547249494348FCF769FA002020750020DF
:1053C000E08210BDECDC000844490A682C48006803
:1053D00082180A60086870475CE1000810B5040094
:1053E0000800FEF75DFF002802D1200080B210E027
:1053F000B0F92A10080000B2002808D0B1F1280046
:105400002100020089B292B2914200D30400200030
:1054100080B210BD38B50400080003E0C568FFF78E
:1054200068FB2800002805D0016822689142F5D069
:10543000C068F7E731BD38B504000D00002C1ED060
:10544000206800281BD0124801682000FFF7E2FF07
:10545000234801682000FFF7DDFF002D0FD02868EA
:1054600000280CD01F48006807E0C1680268236864
:105470009A4201D12A68026008000028F5D131BDA6
:105480001C78002471780024D0CC0008A0D8000833
:10549000287800241CD8000848D80008DCD500086B
:1054A00088EC0008F8EA0008B84C0A00F82401006B
:1054B00074D800083CDD00080CD6000814DD000894
:1054C000E8EA0008C4DC00082C7800242151000818
:1054D00000DD6D0070E8000884E60008100000247C
:1054E000207800242478002462B38B0708D0521E51
:1054F00011F8013B00F8013B00F024808B07F6D146
:10550000830740F0208000BF103A07D330B4B1E8E1
:105510003810103AA0E83810F9D230BC530724BF35
:10552000B1E80810A0E8081044BF51F8043B40F867
:10553000043BD20724BF31F8022B20F8022B44BFD2
:105540000B7803707047121F17D35B0009D151F815
:10555000043B20F8023B1B0C121F20F8023BF6D242
:105560000BE051F8043B00F8013B1B0A20F8023B1A
:105570001B0C121F00F8013BF3D238BF121D521E44
:1055800024BF11F8013B00F8013BF8D87047000038
:10559000F8B504000D000E2660890F2804DA2000FB
:1055A000FDF745FD0020F2BD63689F891878C007AC
:1055B00018D5187801280AD15878002812D198787F
:1055C0005E280FD1607B50F0100060730AE0062265
:1055D0003B49180002F052FE002803D1607B50F0D6
:1055E00008006073BFB2082F03D0B7F5C16F19D0A0
:1055F00030E095F833000007D1D56089310009B259
:10560000884208DB36B27642310009B22000FDF74D
:1056100002FD002800D0C2E729002000FEF779FE35
:105620000020C0E795F833000007B8D56089310045
:1056300009B2884208DB36B27642310009B2200056
:10564000FDF7E9FC002800D0A9E729002000FCF7BD
:105650001DFFE5E7A3E72DE9F84304000D00160060
:105660009846089880B2FDF731FA81460E2128004D
:10567000FDF7D1FC002802D07FF001001DE06F682B
:10568000A7F80C900622B94641464846FFF72CFF82
:105690000622BF1D31003800FFF726FF94F82C00CA
:1056A000062806D0074B4FF4967207490748FCF7C7
:1056B000EDF829002000A2699047BDE8F2830000C0
:1056C00070EC000844C7000858D30008E4DA00086A
:1056D00070B45368D418042B09DA41B1057804F882
:1056E000015B10F8016B16B15B1C491EF3E75360B8
:1056F00070BC704738B514461D4661B1FFF7E8FF2E
:1057000061686A6B204690476FF00102811A02D0EF
:10571000491E01D001E003E005E00021616032BDD7
:105720006FF0010032BD4FF0FF3032BD004BE1E7BA
:10573000640000240278C9B28A421AB11CBF10F872
:10574000012FF9E718BF00207047000080B500B9AD
:1057500006A005490B681BB122220021984701E0F1
:1057600002F0C0FD222002BD58780024636F6E73E2
:10577000747261696E742068616E646C65723A203F
:10578000626164206D6573736167650000F10103F8
:10579000810704D010F8011B820781B1FAD1026899
:1057A000A2F10131914311F0803104BF50F8042F70
:1057B000F6E709BAB1FA81F100EBD100401CC01A3A
:1057C00070470000C9B2830706D0521E22D310F8DA
:1057D000013B9942F7D11FE0083A13D302F10402CA
:1057E00041EA012141EA014150F8043B121F21BF67
:1057F0004B40A3F1013C2CEA030C1CF0803FF3D09A
:10580000C9B2001F083210F8013B521E28BF91EAAE
:10581000030FF8D818BF0120401E704718B40022AB
:10582000ADF80020002310F00102002A06D0012963
:1058300004DB04788DF80140401C491E04E0048814
:1058400013FA84F3801C891E0229F8DA012902DB8D
:1058500000788DF80000BDF8000013FA80F081B2E6
:1058600011EB104188B210EB1140002A06D0020261
:1058700012F47F42C0F307211000084380B212BC2B
:10588000704770B50400002600251BE06189606840
:10589000FFF7C4FF16FA80F00600B6B216EB10460A
:1058A0006089022190FBF1F201FB1200002808D070
:1058B000D5F10105310211F47F41C6F307200E0036
:1058C00006432468002CE1D1EDB2002D06D0310250
:1058D00011F47F41C6F307200E000643F643300063
:1058E00080B270BD38B50025DFF84008046804E0D8
:1058F000E07F401EE07725002468002C08D0E07F80
:105900000028F5D120002468290000F002F8F4E70F
:1059100031BD2DE9F84306000D000027B54208D13E
:10592000DFF80C38AB22DFF80C18DFF80C08FBF7B7
:10593000ADFF002D0BD02868B04208D0DFF8F0375B
:10594000AD22DFF8F817DFF8F007FBF79FFF70686C
:1059500041688888002827D174680868706014221C
:1059600016F10801D4F804804046FFF7BDFD01217F
:105970002000FEF73EFC2000FDF7CFFB80464046AE
:1059800080B210FA87F0B0F5803F08DBDFF8A0376F
:10599000BC22DFF8AC17DFF8A007FBF777FF18EBA6
:1059A00007072000FDF743FB74681BE06068A04612
:1059B00004684046FDF7B1FB8146484680B210FAC4
:1059C00087F0B0F5803F08DBDFF86437CC22DFF8E2
:1059D0007017DFF86407FBF759FF19EB070740461C
:1059E000FDF725FB002CE1D12900300000F085F8FF
:1059F000DFF850472088390089B2884208D2DFF8A2
:105A00003037D222DFF84017DFF82C07FBF73EFFD4
:105A10002088C01B2080BFB23800BDE8F283F8B5F3
:105A200004000D00002600205FF0000C002300277A
:105A3000DFF8F816096814E0C27F91F81FE072459C
:105A40000AD30800634607E00022002A04D07F1C26
:105A50000028F1D1080063460A68002A00D08C466D
:105A60000968002910D0E268D1F814E0964509D100
:105A70002269D1F818E0964504D18A89B4F804E087
:105A80007245E1D00122E0E7002803D01900FFF7BA
:105A900040FF8619AE4201DA022FC4DA3000F2BDAF
:105AA00070B505000E000420FEF722FE0400002C55
:105AB0000DD131002800FFF7B2FFB04203DB042014
:105AC000FEF716FE0400002C01D1002014E0202176
:105AD000002226003000FDF709FF0320E077DFF801
