:020000040800F2
:1000000038B004201D020008C52100089320000814
:10001000C121000801030008F124000800000000CD
:10002000000000000000000000000000A122000805
:100030007D03000800000000012200085923000889
:1000400037020008370200083702000837020008AC
:10005000370200083702000837020008370200089C
:10006000370200083702000837020008370200088C
:10007000370200083702000837020008370200087C
:10008000370200083702000837020008370200086C
:10009000370200083702000837020008370200085C
:1000A000370200083702000837020008370200084C
:1000B00037020008C523000837020008370200088D
:1000C000370200083702000837020008370200082C
:1000D000370200083702000837020008370200081C
:1000E000370200083702000837020008370200080C
:1000F00037020008370200083702000837020008FC
:1001000037020008370200083702000837020008EB
:1001100037020008370200083702000837020008DB
:1001200037020008370200083702000837020008CB
:1001300037020008090400083702000837020008E7
:1001400037020008370200083702000837020008AB
:10015000370200083702000837020008370200089B
:10016000370200083702000837020008370200088B
:10017000370200083702000837020008370200087B
:10018000370200083702000837020008370200086B
:10019000370200083702000837020008370200085B
:1001A000370200083702000837020008370200084B
:1001B000370200083702000837020008370200083B
:1001C000370200083702000800000000370200086C
:1001D000370200083702000837020008370200081B
:1001E000370200083702000837020008370200080B
:1001F0003702000837020008DFF80CD000F06EF874
:1002000000480047076E000838B0042030BF72B6BF
:10021000704762B6704780F3088870470648804789
:1002200006480047FEE7FEE7FEE7FEE7FEE7FEE7DB
:10023000FEE7FEE7FEE7FEE761230008F90100089C
:1002400040EA01039B0703D009E008C9121F08C058
:10025000042AFAD203E011F8013B00F8013B521ED8
:10026000F9D27047D2B201E000F8012B491EFBD24F
:1002700070470022F6E710B513460A4604461946B1
:10028000FFF7F0FF204610BD421C10F8011B0029AB
:10029000FBD1801A704730B504460020034600E0C9
:1002A0005B1C934203D2E05CCD5C401BF8D030BDB8
:1002B00030B50B46014600202022012409E021FA36
:1002C00002F59D4205D303FA02F5491B04FA02F533
:1002D0002844151EA2F10102F1DC30BD064C074D89
:1002E00006E0E06840F0010394E807009847103406
:1002F000AC42F6D3FFF784FF08DE000828DE0008D2
:1003000000BFFEE710B500BF00BF00BF00BF00BFC9
:10031000BFF34F8F00BF00BF00BF00BF00BF00BFD3
:10032000BFF36F8F00BF00BF00BF002011490860FE
:100330001148006840F400300F49086000BF00BF5A
:1003400000BFBFF34F8F00BF00BF00BF00BF00BFA3
:1003500000BFBFF36F8F00BF00BF00BF00BF01F041
:1003600051FF04484C30006840F0040001494C3112
:10037000086010BD50EF00E014ED00E07047016828
:1003800001F58051896941F00202016801F580514F
:100390008A617047016801F58051896941F4005212
:1003A000016801F580518A61704738B50446002024
:1003B0000090206800F58050806940F4801120682A
:1003C00000F580508161206800F5805080690090C0
:1003D000012000F089FA0099206800F580508161C1
:1003E00038BD014600200A6802F0004252B90A688E
:1003F00002F4004232B90A6802F4807212B10A684B
:10040000C2F30D407047000010B501E006F0C4FCD7
:100410000949886AFFF7E5FF0028F7D14FF48031DA
:100420000548006800F5805041614021024800689D
:1004300000F58050416110BDFC00022030B503463C
:100440001479557944EA0520084C0C442064D4788A
:100450002406957844EA0544557844EA052415783D
:1004600044EA0500014C0C44606430BD0080024049
:1004700070B5AEB004460E46002526B14FF40061BB
:10048000E160C900A16000201190129013901490B7
:1004900015901690E06918B94FF48060179001E04C
:1004A000002017904FF400701890002019901A90B7
:1004B0001B901C901D9040201E9000201F902090AB
:1004C00021902290239024902590269080202790A0
:1004D0000020289029902A902B902C902D90206815
:1004E000056871480540DDE9110108431399084387
:1004F00014990843A16808431599084316990843BD
:10050000E168084317990843189908431999084363
:100510001A9908431B990843054320680560206821
:100520000568012000F0E0F920680560DDE91C01A4
:1005300008431E9908431F990843209908432199AD
:10054000084322990843239908432168486020689A
:100550004568012000F0C8F92068456024982168AA
:10056000886025982168C860206885694FF64170C9
:100570000540DDE9261040EA014028990843299901
:1005800008432A9908432B9908430543206885614D
:1005900020688569012000F0A7F920688561DDE900
:1005A0002C0108432168C8612068C569012000F05A
:1005B0009BF92068C561002001904FF00070029007
:1005C000002003904FF40010049000200590069046
:1005D0000790089004200990C0050A9040120B90E3
:1005E00080010C9040120D9080200E9000200F9002
:1005F0001090206800F5805085692C480540DDE9A1
:1006000001010843039908430499084305990843E5
:10061000069908430799084308990843099908432C
:100620000543206800F580508561206800F5805002
:100630008569012000F058F9206800F58050856137
:10064000DDE90A0108430C9908430D9908430E9906
:1006500008430F9940EA81001099084340F40001D3
:10066000206800F580500160206800F58050056822
:10067000012000F039F9206800F580500560A0697C
:10068000012809D1206800F58050C0690849084355
:10069000216801F58051C861002120466269FFF799
:1006A000CDFE2EB070BD00000F8120FF233FDEF88D
:1006B0004000010038B50446002000902068006822
:1006C00040F0040021680860206800680090012064
:1006D00000F00AF900982168086038BD38B5044672
:1006E000002000902068006840F008002168086041
:1006F000206800680090012000F0F6F8009821685A
:10070000086038BD10B5A021022007F073F80E492B
:100710000860A021022007F06DF80C49086041F63E
:10072000C451022007F066F80949086041F6C45137
:10073000022007F05FF80749086000BF00BF00BF54
:1007400000BF002010BD00000C000220100002209D
:10075000140002201800022070B504461D46002334
:10076000B5F5804F13D154F822300C480340D1E93D
:10077000000640EA06108E6840EA06208E8940EAAC
:1007800006408E693043034344F8223003E06FF0A3
:10079000704044F82200002070BD00000000F0CF3F
:1007A00010B502460023086852F820301B48034069
:1007B000D1E901042043CC6820430C6920434C69F3
:1007C00020438C692043CC6920430C6A20434C6A47
:1007D00020438C6A2043CC6A20430C6B20438C6BF3
:1007E00020434C6B204303438868082801D143F021
:1007F0004003086842F82030086BB0F5801F05D12F
:10080000086818B110680C6B20431060086818B1B4
:1008100010684C6B20431060002010BD8004C0FFA6
:1008200030B5034614460022601C53F8202002F025
:100830004042D1E9000540EA05108D6840EA0520F4
:100840008D8940EA0545088A401E45EA0055087D25
:10085000801E45EA00608D6928430243601C43F80E
:100860002020186800F4801038B1586820F4700215
:10087000088A401E42EA00525A60002030BD000043
:1008800000B587B04FF02040154908601548486012
:10089000022000900120019002200290012003908C
:1008A000022004900590002006900420886000211A
:1008B0000B48C16001611021416100218161C1616A
:1008C00001624FF48051416200218162C162016383
:1008D000416381636A46694601F0CEF907B000BD05
:1008E000A0A90420040100A031B5002400F030FDCF
:1008F000044600BF00F02CFD001B00998842F9D38C
:1009000038BD70B504460D461646002200BF94F867
:100910004500012801D1022070BD012084F8450066
:1009200000BF022084F84400A56200221FE005EB0E
:1009300042114FF00040086044F2F4504860C2EBAE
:10094000C21000EB400006EB80008860A06901281F
:1009500003D1486820F000404860581E904204D9F6
:1009600005EB42102030C86000E0CD60521C9A4276
:10097000DDD3206800F58050C560012084F8440074
:1009800000BF002084F8450000BF00BFC4E770B579
:1009900004460D461646002200BF94F84500012883
:1009A00001D1022070BD012084F8450000BF022063
:1009B00084F84400E56200221BE005EB42114FF48D
:1009C00080100860C2EBC21000EB400006EB800014
:1009D0008860E06918B9086840F440000860581E53
:1009E000904204D905EB42102030C86000E0CD6091
:1009F000521C9A42E1D3206800F580500561012025
:100A000084F8440000BF002084F8450000BF00BF08
:100A1000C8E70146002200BF91F84500012801D136
:100A200002207047012081F8450000BF022081F8B4
:100A30004400886A006800F00040002838D1886AC5
:100A4000006800F48070F0B1886B401C8863886B8C
:100A5000012801D1886A08638B6A4B63886A006841
:100A6000C0F30D40021FCA63086B83680B64886A79
:100A7000C0688862012081F8440000BF002081F82E
:100A8000450000BFCDE7886A006800F4007048B1F7
:100A9000886A086300234B6301238B63886AC068FC
:100AA000886205E0886B401C8863886AC068886239
:100AB000012081F8440000BF002081F8450000BFFC
:100AC0000120AEE72DE9FC410446002500200190FD
:100AD0009C4E0027804614B90120BDE8FC8194F8A3
:100AE000440028B9002084F84500204600F038F979
:100AF00000BF9548006840F480409349086008466C
:100B0000006800F48040009000BF00BF8F4800687C
:100B100020F400008D49086008460068216A0843F7
:100B20008A490860206800F58050006840F00101A3
:100B3000206800F58050016000F00AFC07460FE0D5
:100B400000F006FCC01BB0F5FA7F09D9032084F839
:100B5000440000BF002084F8450000BF0320BCE72C
:100B6000206800F58050006800F001000028E7D1FF
:100B70002068056925F01C0500F0A2FD06467448B2
:100B8000864205D37348864202D245F008051AE032
:100B90007048864205D36B48864202D245F00C0568
:100BA00011E06848864203D36B48864200D20AE0CF
:100BB0006948864205D36948864202D245F0040559
:100BC00001E045F01005206805614FF40042002166
:100BD000204600F05EFA48B14FF001084146204639
:100BE000FFF746FC012084F8440076E740F6FF70EA
:100BF000FFF77AFE6068002871D000F0A9FB074675
:100C000000BF01AA0121204600F032F900F0A0FB4C
:100C1000C01B41F2883188420FD94FF0010841468C
:100C20002046FFF725FC012084F8440000BF002087
:100C300084F8450000BF03204FE7019800F004004E
:100C40000428DED182020021204600F022FA48B1B9
:100C50004FF0010841462046FFF70AFC012084F8C6
:100C600044003AE700F074FB074600BF01AA0121E7
:100C7000204600F0FDF800F06BFBC01B41F288310C
:100C800088420FD94FF0010841462046FFF7F0FB9C
:100C9000012084F8440000BF002084F8450000BF14
:100CA00003201AE7019800F020002028DED101AAD5
:100CB0001F21204600F0DCF848B14FF00108414602
:100CC0002046FFF7D5FB012084F8440005E7019892
:100CD00000F0100020B14FF40061E16002E00DE08F
:100CE0000021E160019800F00400042802D10021F5
:100CF000A1601EE04FF48041A1601AE0E068C0F3FB
:100D0000CF00A168C1F34F0140EA01020021204653
:100D100000F0BFF948B14FF0010841462046FFF707
:100D2000A7FB012084F84400D7E640F6FF70FFF7E8
:100D3000DBFD41462046FFF79BFB012084F8440081
:100D40000020CAE60087930344380240043801407B
:100D5000002D3101C00E160200E1F50580D1F0082A
:100D600010B586B0044600BF00BF3D48006840F0A3
:100D700000703B4908600846006800F00070009071
:100D800000BF00BF00BF0846006840F080600860F8
:100D90000846006800F08060009000BF00BF00BF00
:100DA0000846006840F0006008600846006800F0EF
:100DB0000060009000BF00BF00BF00BF0846006891
:100DC00040F0010008600846006800F00100009053
:100DD00000BF00BF00BF0846006840F00400086084
:100DE0000846006800F00400009000BF00BF00BF8C
:100DF0000846006840F0400008600846006800F0BF
:100E00004000009000BF00BF8620019002200290A9
:100E100000200390032004900B20059001A91148A5
:100E200000F080F94FF40060019001A90E4800F035
:100E300079F93220019001A90C4800F073F94FF4C0
:100E4000C040019001A9084800F06CF90022114649
:100E50003D2000F0C1FA3D2000F0B1FA06B010BD0F
:100E600030380240000002400018024000080240F2
:100E70002DE9F04104460E4617460025A84694F891
:100E80004400822802D10220BDE8F081822084F84B
:100E900044002068056905F01C05208A4FF478415C
:100EA00001EAC0200543481100EA8610054325F0F9
:100EB000020545F001052068056100F049FA804609
:100EC00012E000F045FAA0EB0800B0F5803F09D32E
:100ED000012084F8440000BF002084F8450000BFD2
:100EE0000320D1E72068056905F001000028E8D15A
:100EF0002068406980B23860012084F844000020F6
:100F0000C2E710B5044600BF94F84500012801D19E
:100F1000022010BD012084F8450000BF022084F8A3
:100F200044002046FFF7DAFB2046FFF7C3FB2046CC
:100F3000FFF73BFA2046FFF72DFA2046FFF71FFA8E
:100F4000012084F8440000BF002084F8450000BF61
:100F500000BFDEE770B5024600230025002400BF75
:100F600092F84500012801D1022070BD012082F8CD
:100F7000450000BF022082F8440049B9012082F8F0
:100F8000440000BF002082F8450000BF0120ECE7CC
:100F9000D06A006800F0004048B1122082F8440096
:100FA00000BF002082F8450000BF0120DDE740F2CD
:100FB000F450814208D9B1FBF0F3B1FBF0F600FB2D
:100FC000161010B15B1C00E00123012B13D1D06A75
:100FD000006840F04050D66A3060C1F30C00D66A19
:100FE0007060D06A006840F00040D66A3060D06A15
:100FF000C068D06232E000242EE0D06A006820F0A1
:101000004050D66A30602CB9D06A006840F08050F9
:10101000D66A306040F2F450D66A7060581EA04222
:1010200010D1D06A006840F00050D66A3060581E77
:10103000C0EBC01000EB4000A1EB8005C5F30C0035
:10104000D66A7060D06A006840F00040D66A3060AE
:10105000D06AC068D062641C9C42CED3106800F590
:101060008050406900F0040048B10426106800F583
:10107000805046610026106800F5805046600120CF
:1010800082F8440000BF002082F8450000BF00BF86
:101090006BE72DE9F04104460E4617460025A846A9
:1010A00094F84400422802D10220BDE8F081422099
:1010B00084F844002068056905F01C05208A4FF477
:1010C000784101EAC0200543481100EA8610054333
:1010D00045F0020545F00105B8B221684861206875
:1010E000056100F035F9804612E000F031F9A0EB1F
:1010F0000800B0F5803F09D3012084F8440000BF08
:10110000002084F8450000BF0320CEE72068056971
:1011100005F001000028E8D1012084F844000020F7
:10112000C3E70000F8B502460B4600210025002465
:10113000002000BFE4E0012606FA01F51E6806EA79
:101140000504AC4271D15E68022E02D05E68122E98
:1011500013D1CF0802F1200656F827004E07F70EEC
:101160000F26BE40B0434F07FF0E1E69BE403043FE
:10117000CF0802F1200646F8270010684F0003262A
:10118000BE40B0431E7906F003064F00BE40304318
:1011900010605E68012E08D05E68022E05D05E6881
:1011A000112E02D05E68122E13D190684F000326D4
:1011B000BE40B0434F00DE68BE4030439060506890
:1011C00001268E40B0431E79C6F300168E40304390
:1011D0005060D0684F000326BE40B0434F009E6869
:1011E000BE403043D0605E6806F08056B6F1805F46
:1011F000A8D100BF444E366846F48046424F3E6058
:101200003E46366806F48046009600BF00BF3F4E5B
:101210008F0856F827008E07370F0F26BE40B043C1
:101220003B4EB24202D100262EE068E0394EB24277
:1012300001D1012628E0384EB24201D1022623E036
:10124000364EB24201D103261EE0354EB24201D1E4
:10125000042619E0334EB24201D1052614E0324E85
:10126000B24201D106260FE0304EB24201D107262C
:101270000AE02F4EB24201D1082605E02D4EB242BF
:1012800001D1092600E00A268F073F0FBE403043F8
:101290001E4E8F0846F82700274E3068A0435E6830
:1012A00006F48036B6F5803F00D12043224E3060F0
:1012B000361D3068A0435E6806F40036B6F5003F80
:1012C00000D120431C4E361D3060361D3068A043CF
:1012D0005E6806F48016B6F5801F00D12043164ED6
:1012E00008363060361D3068A0435E6806F400168C
:1012F000B6F5001F00D120430F4E0C363060491C5C
:101300001029FFF418AFF8BD4438024008380140F6
:10131000000002400004024000080240000C0240AD
:10132000001002400014024000180240001C02405D
:101330000020024000240240003C014042694A4033
:10134000426170470AB1816101E00B04836170471B
:10135000014800687047000004000220024800684D
:10136000401C0149086070470400022010B508487D
:10137000006840F4007006490860052000F06AF833
:101380000F2000F007F800F019F8002010BD000051
:10139000003C024070B50446074800684FF47A717B
:1013A000B0FBF1F5284600F01FFD00222146501E3B
:1013B00000F012F8002070BD00000220704700BF4E
:1013C00000F01F02012191404209920002F1E02247
:1013D000C2F8001100BF70472DE9F05F80460D464E
:1013E0001646002700F0F0FE074639462A463346E7
:1013F00001F00700C0F1070ABAF1040F02D94FF05B
:10140000040A01E0C0F1070AD14600F1040ABAF16A
:10141000070F02D24FF0000A01E0A0F1030AD44600
:101420004FF0010A0AFA09FAAAF1010A0AEA020AC5
:101430000AFA0CFA4FF0010B0BFA0CFBABF1010BA3
:101440000BEA030B4AEA0B042146404600F0C4FEB7
:10145000BDE8F09F00BF00F00702064B19684FF689
:10146000FF031940044B0B4343EA0221014B19606F
:1014700000BF70470CED00E00000FA0538B500240D
:1014800000BF2048006840F080501E4908600846B0
:10149000006800F08050009000BF00BF1A4800684C
:1014A00040F4803018490860FFF752FF044607E017
:1014B000FFF74EFF001BB0F57A7F01D9032038BD3E
:1014C0001148406800F48030B0F5803FF0D10E48FC
:1014D000006840F400300C490860FFF739FF04460B
:1014E00007E0FFF735FF001BB0F57A7F01D9032035
:1014F000E5E70548406800F40030B0F5003FF0D162
:101500000020DCE7403802400070004070B504461F
:101510000D4600266648006800F00F00A8420ED273
:101520006348006820F00F002843614908600846BE
:10153000006800F00F00A84201D0012070BD2078A3
:1015400000F00200022807D15A48006820F0F0009D
:10155000A168084357490860207800F0010000287E
:1015600060D06068012807D1524808380068C0F38D
:101570004040A0B90120E1E76068022807D14D484A
:1015800008380068C0F3406048B90120D6E74948F0
:1015900008380068C0F3400008B90120CEE745488C
:1015A000006820F003006168084342490860FFF7C3
:1015B000CFFE06466068012810D108E0FFF7C8FE9C
:1015C000801B41F28831884201D90320B6E73948AF
:1015D000006800F00C000428F0D123E060680228C5
:1015E00010D108E0FFF7B4FE801B41F28831884239
:1015F00001D90320A2E72F48006800F00C0008285A
:10160000F0D10FE008E0FFF7A3FE801B41F2883124
:10161000884201D9032091E72648006800F00C00B9
:101620000028F0D12248006800F00F00A8420ED92F
:101630001F48006820F00F0028431D490860084635
:10164000006800F00F00A84201D0012076E7207862
:1016500000F00400042807D11648006820F4E05088
:10166000E168084313490860207800F00800082862
:1016700008D11048006820F46040216940EAC100A8
:101680000C49086000F022F80A49096801F0F001ED
:10169000F02292FAA2F2B2FA82F2D140064A515CEA
:1016A000C840064908600F20FFF774FE002045E798
:1016B000003C024008380240A0DB00080000022085
:1016C00001480068704700000000022070B500214A
:1016D000002200230020274C246804F00C0424B1CD
:1016E000042C04D0082C41D103E0234840E02348D7
:1016F0003EE0204C241F246804F03F011D4C241FB1
:10170000246804F4800484B11C4CB4FBF1F5194C3A
:10171000241F246847F6C076344096FAA6F6B6FA37
:1017200086F6F44005FB04F20FE0134CB4FBF1F530
:10173000104C241F246847F6C076344096FAA6F66B
:10174000B6FA86F6F44005FB04F20A4C241F24681E
:1017500004F440344FF4403595FAA5F5B5FA85F513
:10176000EC40641C6300B2FBF3F001E0024800BFF0
:1017700000BF70BD083802400024F40040787D01AD
:10178000F8B5044600250026207800F00100002866
:1017900071D0FD48006800F00C0004280DD0FA4814
:1017A000006800F00C00082813D1F748001F0068FB
:1017B00000F48000B0F5800F0BD1F34808380068C2
:1017C000C0F34040002869D06068002866D101203D
:1017D000F8BD00BF6068B0F5803F08D1EA4808381E
:1017E000006840F48030E849083908602EE06068FD
:1017F00068B9E5480838006820F48030E2490839C3
:1018000008600846006820F4802008601EE06068D8
:10181000B0F5A02F0DD1DC480838006840F48020D6
:10182000D949083908600846006840F480300860EB
:101830000CE0D5480838006820F48030D2490839D7
:1018400008600846006820F48020086000BF6068D7
:1018500090B1FFF77DFD054606E0FFF779FD401BDF
:10186000642801D90320B3E7C74808380068C0F3EB
:1018700040400028F1D011E0FFF76AFD054606E080
:10188000FFF766FD401B642801D90320A0E7BE488E
:1018900008380068C0F340400028F1D1207800F0FB
:1018A0000200022873D1B848006800F00C0058B15B
:1018B000B548006800F00C00082821D1B248001F8C
:1018C000006800F48000D8B9AF4808380068C0F359
:1018D000400020B1E068012801D0012078E7AA4843
:1018E0000838006820F0F800F82292FAA2F2B2FA62
:1018F00082F2216991400843A3490839086046E013
:10190000E06850B3A0480838006840F001009E49E4
:1019100008390860FFF71CFD054606E0FFF718FDD3
:10192000401B022801D9032052E797480838006875
:10193000C0F340000028F1D093480838006820F038
:10194000F800F82292FAA2F2B2FA82F221699140EA
:1019500008438D490839086019E08B480838006849
:1019600020F00100884908390860FFF7F1FC0546BE
:1019700006E0FFF7EDFC401B022801D9032027E712
:10198000814808380068C0F340000028F1D1207871
:1019900000F00800082836D16069D0B17A486C3070
:1019A000006840F0010078496C310860FFF7D0FC16
:1019B000054606E0FFF7CCFC401B022801D90320B6
:1019C00006E771486C300068C0F340000028F1D091
:1019D00019E06D486C30006820F001006A496C31F4
:1019E0000860FFF7B5FC054606E0FFF7B1FC401BB9
:1019F000022801D90320EBE663486C300068C0F38D
:101A000040000028F1D1207800F00400042874D1AF
:101A10005D483830006800F0805080B900BF5A48F7
:101A20003830006840F08050574938310860084627
:101A3000006800F08050009000BF00BF01265348AE
:101A4000006800F48070B0B95048006840F48070BD
:101A50004E490860FFF77CFC054606E0FFF778FC7E
:101A6000401B642801D90320B2E64848006800F40E
:101A700080700028F2D000BFA068012808D1424839
:101A80006830006840F001003F49683108602DE08F
:101A9000A06868B93C486830006820F001003A4905
:101AA000683108600846006820F0040008601DE006
:101AB000A06805280DD134486830006840F0040063
:101AC0003149683108600846006840F0010008604C
:101AD0000CE02D486830006820F001002A49683188
:101AE00008600846006820F00400086000BFA06895
:101AF000A8B1FFF72DFC054609E02EE0FFF728FC12
:101B0000401B41F28831884201D9032060E61E481B
:101B100068300068C0F340000028EFD013E0FFF702
:101B200017FC054608E0FFF713FC401B41F2883123
:101B3000884201D903204BE6134868300068C0F39F
:101B400040000028EFD1012E07D10F48383000683F
:101B500020F080500C4938310860A069F0B30A4881
:101B6000006800F00C0008287FD0A069022863D12B
:101B700005480838006820F080700349083908607B
:101B8000FFF7E6FB05460AE0083802400070004017
:101B9000FFF7DEFB401B022801D9032018E6354879
:101BA0000068C0F340600028F2D1D4E9070108437F
:101BB00047F6C07292FAA2F2B2FA82F2616A9140DA
:101BC00008430122A16AC2EB51014FF4403292FA5C
:101BD000A2F2B2FA82F29140084300E047E04FF0EF
:101BE000706292FAA2F2B2FA82F2E16A914008437C
:101BF0004FF0E04292FAA2F2B2FA82F2216B9140E7
:101C000008431C49091D0860081F006840F08070E7
:101C1000091F0860FFF79CFB054606E0FFF798FBED
:101C2000401B022801D90320D2E512480068C0F306
:101C300040600028F2D01AE00E48006820F0807062
:101C40000C490860FFF784FB054607E00DE0FFF74D
:101C50007FFB401B022801D90320B9E50548006835
:101C6000C0F340600028F2D101E00120B0E500207F
:101C7000AEE500000038024070B504460E46154639
:101C80000CB9012070BD94F8450028B9002084F8F3
:101C90004400204600F01CF804F108012068FEF71B
:101CA0007FFD3146A2682068FEF7BAFD2946E36A47
:101CB000D4E90102FEF750FDA168206850F8210028
:101CC00040F00100A268216841F822000020D9E715
:101CD00010B586B0044600BF3448006840F01000DC
:101CE000324908600846006800F01000009000BF0C
:101CF00000BF00BF0846006840F0080008600846C2
:101D0000006800F00800009000BF00BF00BF084658
:101D1000006840F0400008600846006800F040009D
:101D2000009000BF00BF00BF0846006840F02000E0
:101D300008600846006800F02000009000BF00BF67
:101D400000BF1A480830006840F001001749083108
:101D500008600846006800F00100009000BF00BF66
:101D60000220029001200390032004900C20059093
:101D70004FF69870019001A90D48FFF7D3F94FF67F
:101D80003370019001A90B48FFF7CCF940F23F40B6
:101D9000019001A90848FFF7C5F94FF23F000190F3
:101DA00001A90648FFF7BEF906B010BD3038024061
:101DB00000100240000C02400018024000140240D3
:101DC000042808D14FF0E021096941F004014FF0E7
:101DD000E022116107E04FF0E021096921F00401E0
:101DE0004FF0E0221161704770B504462546681E29
:101DF000B0F1807F01D301200FE0681E4FF0E02199
:101E000048610F214FF0FF3000F0E6F900204FF05D
:101E1000E021886107200861002070BD704770478D
:101E200010B504460CB9012010BD94F83D0028B946
:101E3000002084F83C00204600F00CF8022084F8D2
:101E40003D00211D206800F0DBFA012084F83D00F0
:101E50000020E9E738B504460D492068884215D1CD
:101E600000BF0C48006840F002000A4908600846BC
:101E7000006800F00200009000BF00BF03220121B3
:101E80001D20FFF7A9FA1D20FFF799FA38BD0000C1
:101E9000000400404038024001460868C06840F035
:101EA00001000A68D0600868006840F001000A6814
:101EB000106000207047704710B504462068006924
:101EC000C0F34000D8B12068C068C0F34000B0B192
:101ED0006FF0020021680861012020772068806986
:101EE00000F0030018B12046FFF7E5FF05E02046AB
:101EF00000F0BEF8204600F0BCF8002020772068F3
:101F00000069C0F38000D8B12068C068C0F38000C9
:101F1000B0B16FF0040021680861022020772068CA
:101F2000806900F4407018B12046FFF7C4FF05E057
:101F3000204600F09DF8204600F09BF80020207716
:101F400020680069C0F3C000D8B12068C068C0F341
:101F5000C000B0B16FF0080021680861042020774C
:101F60002068C06900F0030018B12046FFF7A3FF06
:101F700005E0204600F07CF8204600F07AF80020CA
:101F8000207720680069C0F30010D8B12068C068CD
:101F9000C0F30010B0B16FF0100021680861082094
:101FA00020772068C06900F4407018B12046FFF720
:101FB00082FF05E0204600F05BF8204600F059F86B
:101FC000002020772068006900F0010058B12068E7
:101FD000C06800F0010030B16FF0010021680861B5
:101FE000204600F047F820680069C0F3C01058B1DF
:101FF0002068C068C0F3C01030B16FF08000216865
:1020000008612046FFF70AFF20680069C0F300203E
:1020100058B12068C068C0F3C01030B16FF08000C4
:10202000216808612046FFF7F9FE20680069C0F3C7
:10203000801058B12068C068C0F3801030B16FF0D4
:10204000400021680861204600F022F820680069FD
:10205000C0F3401058B12068C068C0F3401030B1E0
:102060006FF02000216808612046FFF7D8FE10BD00
:10207000704770470449884204D1044909680A310D
:10208000024A11607047000060A90420E8000220A5
:10209000704700BFFEE700001CB5FEF7B8F800224D
:1020A0004FF400412148FFF74DF9642000F036FB62
:1020B0000122D1031D48FFF745F9642000F02EFBF3
:1020C000FEF7A7F81A4800788DF800001848407805
:1020D0008DF80100164880788DF802001448C07809
:1020E0008DF80300124800798DF8040010484079FB
:1020F0008DF805000F4810490860012048608103F1
:102100000D488160C910C16000210182C0F814D05F
:10211000012181610021C1614FF400010162FEF7DC
:10212000D1FC08B900201CBD0120FCE700040240DE
:1021300020AB042000800240FC00022000B587B0E4
:1021400000BF1C48006840F008001A4908600846B3
:10215000006800F00800019000BF00BF00BF084603
:10216000006840F0020008600846006800F00200C5
:10217000019000BF00BF082002900120039004904E
:102180000320059002A90C48FEF7CCFF4FF4004055
:10219000029002A90948FEF7C5FF0122082106485E
:1021A000FFF7D0F80122D1030448FFF7CBF807B0BE
:1021B00000BD000030380240000C02400004024024
:1021C00000BFFEE77047000002480068C0F302202D
:1021D000704700000CED00E010B5002807DA0A0790
:1021E000140E054A00F00F031B1FD45403E00A0726
:1021F000130E024A135410BD18ED00E000E400E095
:102200007047000010B50023234C236000BF00BFBF
:1022100000BFBFF34F8F00BF00BF00BF231F186870
:10222000C0F34E3100BFC0F3C90200BF43F6E073F4
:1022300003EA41134FF0404404EA82742343174CED
:10224000236000BF00BF131EA2F10102EED10B1EDE
:10225000A1F10101E7D100BF00BF00BFBFF34F8F65
:1022600000BF00BF00BF0C4B703B1B6843F48033C2
:10227000094C703C236000BF00BF00BFBFF34F8F0D
:1022800000BF00BF00BF00BF00BF00BFBFF36F8F24
:1022900000BF00BF00BF10BD84ED00E060EF00E0B4
:1022A000704700002DE9F04194B005468846164677
:1022B0001F46002400BF2648006840F08050244993
:1022C00008600846006800F08050019000BF00BF21
:1022D00000BF2048006840F440401E49086008469E
:1022E000006800F44040019000BF00BF012007904B
:1022F0000004089002200D9041050E91CDF83C801D
:1023000010951196129707A8FFF73AFA04460CB1F8
:1023100000BFFEE7FFF7B2F804460CB100BFFEE7CE
:102320000F20029002200390002004904FF4A05050
:1023300005904FF480500690072102A8FFF7E6F8B9
:1023400004460CB100BFFEE714B0BDE8F081000008
:10235000403802400070004010B5FEF7FFFF10BD8E
:102360001448006840F47000124908601248006880
:1023700040F001001049086000200F490831086052
:102380000D4800680D4908400B4908600C48091DBC
:102390000860081F006820F48020091F08600020E2
:1023A00005490C3108604FF000600249803908602F
:1023B0007047000088ED00E000380240FFFFF6FEA5
:1023C0001030002410B50248FFF776FD10BD000064
:1023D00060A9042070B505460C4607480749086007
:1023E0000846446000218160C5600161FFF718FD67
:1023F0000248FFF751FD70BD0004004060A90420B1
:1024000010B5002202682F4B98420ED0B0F1804FD9
:102410000BD02D4B984208D02C4B984205D02C4B1A
:10242000984202D02B4B984201D1012300E00023B7
:102430001BB122F070024B681A43224B984220D005
:10244000B0F1804F1DD0204B98421AD01F4B9842BC
:1024500017D01F4B984214D01E4B984211D01E4BE0
:1024600098420ED01D4B98420BD01D4B984208D07D
:102470001C4B984205D01C4B984202D01B4B9842F3
:1024800001D1012300E000231BB122F44072CB688C
:102490001A4322F080034C6943EA040202608B680D
:1024A000C3620B688362074B984202D0094B984283
:1024B00001D1012300E000230BB10B690363012369
:1024C000436110BD000001400004004000080040CE
:1024D000000C004000040140004001400044014065
:1024E0000048014000180040001C0040002000404F
:1024F00000BFFEE70FB4054B10B503A9044A0298CC
:1025000000F018F810BC5DF814FB0000155300082B
:10251000F800022002E008C8121F08C1002AFAD100
:1025200070477047002001E001C1121F002AFBD153
:10253000704700002DE9FF4F8BB09A460F460546C5
:10254000002606E025280BD052460D9990476D1CB9
:10255000761C28780028F5D10FB03046BDE8F08F02
:102560000024A0460122604900E0044315F8013F21
:10257000203B02FA03F00842F7D128782E2817D121
:1025800015F8010F44F004042A280ED06FF02F0232
:102590002878A0F1300109290AD808EB880102EB5C
:1025A000410100EB01086D1CF2E757F8048B6D1C2C
:1025B000287869283ED006DC0028CDD063280BD0CF
:1025C000642804D136E0732810D075284BD05246C9
:1025D0000D999047761C85E017F8040B8DF80000E4
:1025E00000208DF80100E946012003E057F8049B24
:1025F0004FF0FF3061074FF0000401D40AE0641C83
:1026000044450DDA8442FADB19F804100029F6D1AA
:1026100006E0641C8442FCDB19F804100029F8D1A0
:10262000264404E019F8010B52460D999047641EA8
:10263000F8D257E001CF4FF00A0B002802DA4042EF
:102640002D2102E0210504D52B218DF82410012134
:1026500003E0E10705D02021F7E70DF120090891FB
:102660000CE00021F9E701CF4FF00A0BF9E75946DA
:10267000FDF71EFE01F1300209F8012D0028F6D108
:10268000ADEB090000F1200B600701D44FF0010809
:10269000D84502DDA8EB0B0000E0002080460024B6
:1026A00006E009A85246005D0D999047641C761C0F
:1026B00008988442F5DB04E0302052460D9990479B
:1026C000761CB8F10001A8F10108F5DC05E019F865
:1026D000010B52460D999047761CBBF10001ABF1FE
:1026E000010BF4DC6D1C34E70928010010B5044629
:1026F00002F01CFC0022034941F2883006F008FB7E
:1027000010BD0000ED26000810B504460420FFF7B8
:1027100057FB0148046010BD0800022030B5044694
:10272000002504E04FF47A7000F004F86D1CA54217
:10273000F8D330BD70B5034600224FF0E02675692E
:102740000D4E366803FB06F44FF0E026B16910E049
:102750004FF0E026B06988420BD0884202D20E1AB0
:10276000324402E02E1A0E4432440146A24200D303
:1027700000E0EDE700BF70BD0800022070B5044620
:102780000D4600BF4CB900BF0CA340F2253214A186
:1027900017A0FFF7AFFE00BF70BD00BF206A58B1A1
:1027A000206A007B082807D12868216A496A884284
:1027B00002D1204600F0A2FA00BFEDE72E2E5C4CBD
:1027C0005749505C6C7769702D312E342E315C7313
:1027D00072635C636F72655C646863702E63000093
:1027E0006E6574696620213D204E554C4C000000FA
:1027F000417373657274696F6E202225732220669F
:1028000061696C6564206174206C696E6520256463
:1028100020696E2025730D0A000000007CB5064675
:1028200000BF4EB900BF3FA34FF4697246A14DA04F
:10283000FFF760FE00BF7CBD00BF346A00BF4CB92B
:1028400000BF38A340F2A63251A146A0FFF752FEC6
:1028500000BFF0E700BF606B401C70B1606B1E30C2
:102860003C21B0FBF1F5B5F5803F01D34FF6FF7584
:10287000A583A08B08B90120A083A06B401C70B178
:10288000A06B1E303C21B0FBF1F5B5F5803F01D3C4
:102890004FF6FF75E583E08B08B90120E083A08B3C
:1028A000E18B884204DBE08B002801DD0020A0835F
:1028B000A07B10B1A06A019010E094F824007F285A
:1028C00002DCFF21019108E0C02803DB6FF07F41AB
:1028D000019102E04FF6FF71019100BFE06A0090A4
:1028E000684608B1009838B9606A019908400090BC
:1028F000009840F08070009004F12401304605F00B
:1029000043F801A9304605F07BF86946304605F0EA
:1029100034F8304605F07AF80A21204601F0C6FA6C
:1029200000BF88E72E2E5C4C5749505C6C7769706D
:102930002D312E342E315C7372635C636F72655C73
:10294000646863702E630000646863705F62696E20
:10295000643A206E6574696620213D204E554C4CCA
:1029600000000000417373657274696F6E20222548
:102970007322206661696C6564206174206C696EE5
:102980006520256420696E2025730D0A0000000073
:10299000646863705F62696E643A20646863702083
:1029A000213D204E554C4C002DE9F04105462C6A46
:1029B0000821204601F07AFA002204F12401284679
:1029C00002F04EF80746607B401C60734FF4FA76C5
:1029D00006F2F310314690FBF1F06083BDE8F08120
:1029E00010B50F48046817E0206AA0B1206AC18BB7
:1029F000481E226AD083012903D1204601F0B0FB92
:102A000009E0206A818B481E226A9083012902D145
:102A1000204601F095FB2468002CE5D110BD000094
:102A2000780002202DE9F04106460C46174600BF0B
:102A3000002E0CD100BF67A340F27C626EA176A08D
:102A4000FFF758FD00BF6FF00D00BDE8F08100BF3B
:102A500000BF002C0AD100BF5EA340F27D6279A1C5
:102A60006DA0FFF747FD00BFA01FEEE700BF00BF4E
:102A70002069002808D000BF56A340F27E6279A1E9
:102A800065A0FFF737FD00BF00BF00BF60690028E9
:102A900008D000BF4FA340F27F627CA15EA0FFF789
:102AA00029FD00BF00BF00224FF49A71104604F0C8
:102AB000C9FF2061206910B94FF0FF30C5E700BFA2
:102AC00020694089B0F59A7F08D200BF41A340F247
:102AD000866278A150A0FFF70DFD00BF00BF607BAC
:102AE00020B984480068401C824908608148006819
:102AF0002060206940686061012061690870616937
:102B0000487096F826006169887000206169C87075
:102B1000206804F0DFF8616948600020616908817D
:102B2000616948816169C860082F09D0042F07D006
:102B3000032F08D1207B052802D0207B042802D156
:102B400070686169C86000206169086161694861F5
:102B50006169886100250DE096F82600A84203DD32
:102B600006F12700405D00E0002061691C314855F6
:102B7000681C85B2102DEFD3002505E000216069A7
:102B80002C304155681C85B2402DF7D3002505E057
:102B9000002160696C304155681C85B2802DF7D3E7
:102BA00055486169C1F8EC0000202083002504E04D
:102BB0006069F0304555681C85B2442DF8D3012278
:102BC0003521204600F064FA3946204600F0ACFA80
:102BD00000203AE72E2E5C4C5749505C6C776970A8
:102BE0002D312E342E315C7372635C636F72655CC1
:102BF000646863702E630000646863705F6372656D
:102C00006174655F6D73673A206E65746966202133
:102C10003D204E554C4C0000417373657274696FD2
:102C20006E2022257322206661696C6564206174C0
:102C3000206C696E6520256420696E2025730D0A5D
:102C400000000000646863705F6372656174655FB3
:102C50006D73673A206468637020213D204E554CA7
:102C60004C000000646863705F6372656174655F47
:102C70006D73673A20646863702D3E705F6F757482
:102C8000203D3D204E554C4C0000000064686370B0
:102C90005F6372656174655F6D73673A2064686332
:102CA000702D3E6D73675F6F7574203D3D204E55EE
:102CB0004C4C0000646863705F6372656174655FAB
:102CC0006D73673A20636865636B20746861742074
:102CD000666972737420706275662063616E206825
:102CE0006F6C642073747275637420646863705FC2
:102CF0006D73670060000220638253632DE9F8431F
:102D000005462C6A00260C21204601F0CFF804224B
:102D100021462846FFF786FE0646FEB904223221E8
:102D2000204600F0B5F9606A03F0F5FF80464146A1
:102D3000204600F057FA204600F016FB228BF032B6
:102D400091B2206905F0F4FC009543230B4A2169F8
:102D500060680AF071FE204600F012F8607B401CAB
:102D6000607342F2107707F2F3104FF4FA7190FBA0
:102D7000F1F060833046BDE8F8830000ECDB00082A
:102D800010B5044600BF002C09D100BF17A340F2C4
:102D9000C9621FA126A0FFF7ADFB00BF10BD00BF99
:102DA00000BF2069002808D100BF10A340F2CA620A
:102DB0002AA11FA0FFF79EFB00BF00BF00BF6069F4
:102DC000002808D100BF09A340F2CB622DA118A0B2
:102DD000FFF790FB00BF00BF206910B1206905F02C
:102DE0002FFB00202061606100BFD7E72E2E5C4CD6
:102DF0005749505C6C7769702D312E342E315C73DD
:102E000072635C636F72655C646863702E6300005C
:102E1000646863705F64656C6574655F6D73673A61
:102E2000206468637020213D204E554C4C0000000A
:102E3000417373657274696F6E2022257322206658
:102E400061696C6564206174206C696E652025641D
:102E500020696E2025730D0A00000000646863700D
:102E60005F64656C6574655F6D73673A2064686361
:102E7000702D3E705F6F757420213D204E554C4C77
:102E800000000000646863705F64656C6574655F72
:102E90006D73673A20646863702D3E6D73675F6F72
:102EA000757420213D204E554C4C0000F8B5054668
:102EB0002C6A0026002060620621204600F0F6FF02
:102EC000012221462846FFF7ADFD0646002E30D1EF
:102ED00002223921204600F0DBF8A98C204600F0C0
:102EE000F9F904223721204600F0D2F801212046CA
:102EF00000F01AF90321204600F016F91C212046A3
:102F000000F012F90621204600F00EF9204600F0EC
:102F10002BFA228BF03291B2206905F009FC009562
:102F20004323124A216960680AF086FD2046FFF7B4
:102F300027FF607B401C6073607B062803DA617B9F
:102F40000120884000E03C2000EB4001C1EBC010B4
:102F50004FF6FF7101EAC00707F2F3104FF4FA7160
:102F600090FBF1F060833046F8BD0000ECDB000818
:102F700010B50F48046818E0206AA8B1206A408B99
:102F8000012805DD206A408B401E216A48830BE042
:102F9000206A408B012807D1206A408B401E216A9D
:102FA0004883204601F0ECF82468002CE4D110BDE1
:102FB0007800022070B505462C6A0020A062E0620D
:102FC0001848C07810B11848C068206315480079C7
:102FD00018B115480069606302E0206B4008606327
:102FE0001048407918B110484069A06301E0206B97
:102FF000A063A068006960620A48807938B10A4914
:10300000886903F067FEA0620120A07301E0002040
:10301000A0730448C07920B10349C86903F05AFE7F
:10302000E06270BDDCAA0420B4AA042070B5044696
:10303000256A204604F08CFC0949204604F0A4FCD3
:103040000749204604F099FC0549204604F0D8FCC5
:103050000C21284600F02AFF2046FFF727FF70BD0D
:10306000E8DB000870B505462C6A0748807850B147
:103070000649886803F02EFE2062A068006960623D
:10308000284600F099FE70BDDCAA0420B4AA0420F2
:1030900070B504460E46154600BF208B801C2844A0
:1030A000442808D900BF0BA340F2F642124913A0EE
:1030B000FFF720FA00BF00BF218B481C2083606906
:1030C000F0304654218B481C20836069F030455411
:1030D00070BD00002E2E5C4C5749505C6C776970B7
:1030E0002D312E342E315C7372635C636F72655CBC
:1030F000646863702E630000F0DC00084173736540
:103100007274696F6E2022257322206661696C6576
:1031100064206174206C696E6520256420696E20CE
:1031200025730D0A0000000070B504460D4600BF6F
:10313000208B442808D300BF07A340F201520FA1FF
:103140001DA0FFF7D7F900BF00BF218B481C2083CB
:103150006069F030455470BD2E2E5C4C5749505C70
:103160006C7769702D312E342E315C7372635C6321
:103170006F72655C646863702E63000064686370DE
:103180005F6F7074696F6E5F627974653A2064680E
:1031900063702D3E6F7074696F6E735F6F75745FCF
:1031A0006C656E203C20444843505F4F5054494F5B
:1031B0004E535F4C454E0000417373657274696FE6
:1031C0006E2022257322206661696C65642061741B
:1031D000206C696E6520256420696E2025730D0AB8
:1031E0000000000070B504460D4600BF208B001D96
:1031F000442808D900BF13A34FF4A2621AA12AA041
:10320000FFF778F900BF00BF290E228B501C2083E6
:103210006069F0308154C5F30741228B501C208334
:103220006069F0308154C5F30721228B501C208344
:103230006069F0308154228B501C20836069F0302B
:10324000855470BD2E2E5C4C5749505C6C7769706C
:103250002D312E342E315C7372635C636F72655C4A
:10326000646863702E630000646863705F6F7074DD
:10327000696F6E5F6C6F6E673A20646863702D3E95
:103280006F7074696F6E735F6F75745F6C656E20BD
:103290002B2034203C3D20444843505F4F5054493C
:1032A0004F4E535F4C454E00417373657274696FA6
:1032B0006E2022257322206661696C65642061742A
:1032C000206C696E6520256420696E2025730D0AC7
:1032D0000000000070B504460D4600BF208B801C26
:1032E000442808D900BF0BA34FF4A162124913A0D0
:1032F000FFF700F900BF00BF290A228B501C208372
:103300006069F0308154228B501C20836069F0305A
:10331000855470BD2E2E5C4C5749505C6C7769709B
:103320002D312E342E315C7372635C636F72655C79
:10333000646863702E630000ACDC00084173736541
:103340007274696F6E2022257322206661696C6534
:1033500064206174206C696E6520256420696E208C
:1033600025730D0A0000000010B5044600BF002CB4
:1033700009D100BF20A340F2DE6228A130A0FFF7F0
:10338000B9F800BF10BD00BF00BF6069002808D1B8
:1033900000BF19A340F2DF6234A129A0FFF7AAF809
:1033A00000BF00BF00BF208B442808D300BF12A37A
:1033B0004FF4DC6238A122A0FFF79CF800BF00BFE9
:1033C000FF21228B501C20836069F030815406E07D
:1033D0000021228B501C20836069F0308154208BA7
:1033E000442803D3207E00F0030010B1208B442832
:1033F000EED300BFC6E700002E2E5C4C5749505C50
:103400006C7769702D312E342E315C7372635C637E
:103410006F72655C646863702E630000646863703B
:103420005F6F7074696F6E5F747261696C65723A18
:10343000206468637020213D204E554C4C000000F4
:10344000417373657274696F6E2022257322206642
:1034500061696C6564206174206C696E6520256407
:1034600020696E2025730D0A0000000064686370F7
:103470005F6F7074696F6E5F747261696C65723AC8
:1034800020646863702D3E6D73675F6F75742021D3
:103490003D204E554C4C0A00646863705F6F707439
:1034A000696F6E5F747261696C65723A20646863FB
:1034B000702D3E6F7074696F6E735F6F75745F6CA3
:1034C000656E203C20444843505F4F5054494F4E56
:1034D000535F4C454E0A00002DE9F34F89B08946F1
:1034E0000020069005900A21F648FCF7C2FEB9F8C4
:1034F0000A002C2804DA6FF001000BB0BDE8F08F51
:10350000D9F80410099881604FF0F00BB9F8080061
:10351000079000BF4C460AE06089ABEB00001FFA41
:1035200080FB61890798401A80B20790246814B123
:1035300060895845F0DD14B96FF00100DDE75F46A2
:10354000DDF81CA060680890A0E10898C05D0490B8
:1035500000264FF0FF38B81C80B203906189781CB8
:10356000814203DD791C0898455C07E0206818B1AA
:1035700020684068007800E0002005462E46049848
:10358000342870D00BDC03282BD003DC80B1012859
:103590006AD113E0062838D03328F9D165E0352800
:1035A00072D0362871D03A2870D03B28F0D1BEE0D6
:1035B000002005460646781E87B2CDE000BF042DE8
:1035C0000BD000BFC0A340F27B52C8A1CAA0FEF737
:1035D00091FF00BF6FF005008FE700BF4FF00608B6
:1035E000BAE0042600BFB5420BDA00BFB6A34FF421
:1035F000B062CCA1C0A0FEF77DFF00BF6FF0050058
:103600007BE700BF4FF00708A6E000BFE91705EB16
:1036100091718910A5EB810159B100BFAAA340F2B5
:103620008552C5A1B4A0FEF765FF00BF6FF005008D
:1036300063E700BF082D01DA284600E008200646AF
:1036400000BFB5420BDA00BF9FA34FF4B162B5A132
:10365000A9A0FEF74FFF00BF6FF005004DE700BFC8
:103660004FF0080878E016E074E000BF042D0ED09B
:1036700000BF95A340F28C529CA19FA0FEF73AFF99
:1036800000BF6FF0050038E718E02AE03CE000BF1B
:103690004FF0030860E000BF012D0BD000BF8AA3EC
:1036A0004FF4B262A8A194A0FEF724FF00BF6FF010
:1036B000050022E700BF4FF000084DE000BF012DDC
:1036C0000BD000BF80A340F294529FA18AA0FEF7C6
:1036D00011FF00BF6FF005000FE700BF4FF00108BA
:1036E0003AE000BF042D0BD000BF77A34FF4B362C4
:1036F0007EA181A0FEF7FEFE00BF6FF00500FCE694
:1037000000BF4FF0020827E000BF042D0BD000BF20
:103710006DA340F29C5275A177A0FEF7EBFE00BFAF
:103720006FF00500E9E600BF4FF0040814E000BFA9
:10373000042D0BD000BF64A34FF4B4626BA16EA044
:10374000FEF7D8FE00BF6FF00500D6E600BF4FF0D1
:10375000050801E0002600BF00BFA81C384487B25E
:10376000002E71DD0020029000BF00BFB8F1000FF5
:1037700002DBB8F10A0F08DB00BF53A340F2AD52E1
:1037800074A15DA0FEF7B6FE00BF00BF4D4810F863
:103790000800002857D1042E01DA304600E004204A
:1037A000019002A92046039B019A04F0A3FD042E78
:1037B00027DD00BFF11706EB91718910A6EB81019F
:1037C00059B100BF40A340F2B35267A14AA0FEF72F
:1037D00091FE00BF6FF005008FE600BF0120394960
:1037E00001F80800029803F075FA644941F82800CE
:1037F000301FC6B20398001D80B2039008F1010883
:10380000B3E7042E04D1029803F085FA029012E087
:1038100000BF012E0BD000BF2BA340F2BD5258A118
:1038200035A0FEF767FE00BF6FF0050065E600BF3C
:103830009DF8080002900120224901F808004F4934
:10384000029841F8280000BF6089B8421DDC6089F9
:10385000381A87B26089AAEB00001FFA80FA574530
:1038600012DABAF1000F0FD0246800BF44B900BFCC
:1038700015A340F2C95247A11FA0FEF73BFE00BFAF
:1038800000BF6068089000E008E000BF34B108980D
:10389000C05DFF2802D05745FFF657AE00BF09486C
:1038A000007870B1354908680021064A1170012876
:1038B00002D1012106917DE0022876D101210591F6
:1038C00078E078E0DCAA04202E2E5C4C5749505C4E
:1038D0006C7769702D312E342E315C7372635C63AA
:1038E0006F72655C646863702E6300006C656E20A7
:1038F0003D3D203400000000417373657274696FB0
:103900006E2022257322206661696C6564206174D3
:10391000206C696E6520256420696E2025730D0A70
:10392000000000006C656E203E3D206465636F649E
:10393000655F6C656E0000006C656E20252034208C
:103940003D3D2030000000006C656E203D3D203183
:1039500000000000636865636B206465636F6465E5
:103960005F696478000000006465636F64655F6C84
:10397000656E20252034203D3D203000B4AA04206F
:10398000696E76616C6964206465636F64655F6C01
:10399000656E00006E6578742070627566207761D0
:1039A00073206E756C6C0000FFE7032802D10121C3
:1039B0000591069100BF069830B1002006904FF0A7
:1039C0006C0BEC200790A5E5059830B10020059020
:1039D0004FF02C0B6C2007909CE500208DE500003B
:1039E000F8B505462C6A0421204600F05FFA032250
:1039F00021462846FFF716F80646DEB9022239218D
:103A00002046FFF745FBA98C2046FFF763FC2046C4
:103A1000FFF7AAFC228BF03291B2206904F088FEF5
:103A2000009543230F4A216960680AF005F8204693
:103A3000FFF7A6F9607B401C6073607B0A2805DAFB
:103A4000607B4FF47A7110FB01F001E042F21070DC
:103A500087B207F2F3104FF4FA7190FBF1F0608334
:103A60003046F8BDECDB00082DE9F84305462C6A2A
:103A70000321204600F01AFA032221462846FEF7C9
:103A8000D1FF06464EBB022239212046FFF700FB3C
:103A90004FF410712046FFF71DFC0422322120460E
:103AA000FFF7F6FA606A03F036F980464146204691
:103AB000FFF798FB2046FFF757FC228BF03291B2BC
:103AC000206904F035FE00954323104A216960689F
:103AD00009F0B2FF2046FFF753F9607B401C60738A
:103AE000607B0A2805DA607B4FF47A7110FB01F0E5
:103AF00001E042F2107087B207F2F3104FF4FA714E
:103B000090FBF1F060833046BDE8F883ECDB000801
:103B10002DE9F05F81461546DDF828B04F463C6A36
:103B2000D5F804A000BFA06840B100BF3BA340F29D
:103B3000116243A147A0FEF7DDFC00BF00BF68890A
:103B40002C2800DA63E09AF80000022800D05EE03A
:103B500000260AE007F12700815D0AF11C00805D64
:103B6000814200D053E0701CC6B297F82600B042E4
:103B7000F0DCDAF8040003F0CEF82168884200D0C7
:103B800045E029462046FFF7A7FC00B13FE03C484E
:103B9000407800B93BE03B4890F80480B8F1050F4D
:103BA00016D1207B012806D13846FFF703FA3846A4
:103BB000FEF7FAFE2AE0207B032805D0207B0428AC
:103BC00002D0207B052821D13846FEF727FE1DE0D4
:103BD000B8F1060F0FD1207B032808D0207B0128E5
:103BE00005D0207B042802D0207B052803D138464D
:103BF000FFF71CFA0AE0B8F1020F07D1207B062874
:103C000004D1002060833846FFF72CFA00BF002063
:103C1000A060284604F014FCBDE8F09F2E2E5C4CFA
:103C20005749505C6C7769702D312E342E315C739E
:103C300072635C636F72655C646863702E6300001E
:103C40007265706C79207761736E27742066726577
:103C500065640000417373657274696F6E2022257C
:103C60007322206661696C6564206174206C696EE2
:103C70006520256420696E2025730D0A0000000070
:103C8000DCAA0420B4AA0420F8B505462C6A002159
:103C9000204600F00BF9002020626062A062E06222
:103CA000A06360632063072221462846FEF7BAFE20
:103CB00006469EB92046FFF757FB228BF03291B2A1
:103CC000206904F035FD0095432304F120022169A9
:103CD000606809F0B1FE2046FFF752F8607B401C97
:103CE0006073607B0A2805DA607B4FF47A7110FB01
:103CF00001F001E042F2107087B207F2F3104FF4C6
:103D0000FA7190FBF1F06083284603F021FE074929
:103D1000284603F039FE0549284603F02EFE0349E4
:103D2000284603F06DFE3046F8BD0000E8DB0008D1
:103D3000F8B505462C6A0521204600F0B7F80322A5
:103D400021462846FEF76EFE0646E6B902223921D4
:103D50002046FFF79DF9A98C2046FFF7BBFA2046C5
:103D6000FFF702FB228BF03291B2206904F0E0FCF5
:103D70000095432304F120022169606809F05CFE8C
:103D80002046FEF7FDFF607B401C6073607B0A28C5
:103D900005DA607B4FF4FA6110FB01F001E044F6B4
:103DA000206087B207F2F3104FF4FA7190FBF1F044
:103DB00060833046F8BD00002DE9F84305462C6AC3
:103DC0000121204600F072F8032221462846FEF722
:103DD00029FE0646002E4AD1022239212046FFF74D
:103DE00057F9A98C2046FFF775FA042232212046A4
:103DF000FFF74EF9606A02F08EFF8046414620468A
:103E0000FFF7F0F9042236212046FFF741F9206A36
:103E100002F081FF804641462046FFF7E3F9042285
:103E200037212046FFF734F901212046FFF77CF9BE
:103E300003212046FFF778F91C212046FFF774F98B
:103E400006212046FFF770F92046FFF78DFA228BF6
:103E5000F03291B2206904F06BFC00954323124AC2
:103E60002169606809F0E8FD2046FEF789FF607B64
:103E7000401C6073607B062803DA617B0120884068
:103E800000E03C2000EB4001C1EBC0104FF6FF7199
:103E900001EAC00707F2F3104FF4FA7190FBF1F05A
:103EA00060833046BDE8F883ECDB0008027B8A4281
:103EB00003D00173002242734283704770B50546F8
:103EC000002600BF5DB900BF3FA340F27A2247A1A0
:103ED0004AA0FEF70FFB00BF6FF00D0070BD00BFE2
:103EE00055F8204F687B20F008006873687B203D00
:103EF00000F0200010B96FF00D00EFE7A88CB0F5CE
:103F0000107F02DA4FF0FF30E8E74CB93C2003F0B5
:103F10007DF8044614B94FF0FF30DFE72C621EE055
:103F2000606810B1606809F067FD00BF206940B1AA
:103F300000BF25A340F29E223BA130A0FEF7DAFA93
:103F400000BF00BF00BFA06840B100BF1EA340F289
:103F50009F223BA129A0FEF7CDFA00BF00BF3C2164
:103F60002046FCF786F909F009FD6060606810B929
:103F70004FF0FF30B2E76068007A40F020006168DF
:103F8000087244223349606809F012FB4322314928
:103F9000606809F087FB2A462F49606809F028FD10
:103FA0002846FEF783FF06462EB1284600F056F855
:103FB0004FF0FF3092E795F82D0040F0080085F8AB
:103FC0002D0030468AE700002E2E5C4C5749505C8D
:103FD0006C7769702D312E342E315C7372635C63A3
:103FE0006F72655C646863702E6300006E6574694F
:103FF0006620213D204E554C4C00000041737365F6
:104000007274696F6E2022257322206661696C6567
:1040100064206174206C696E6520256420696E20BF
:1040200025730D0A000000007062756620705F6FD6
:104030007574207761736E277420667265656400FD
:104040007265706C79207761736E27742066726573
:1040500065640000E8DB0008113B000870B5054608
:1040600000BF4DB900BF16A340F2C7421DA124A056
:10407000FEF740FA00BF70BD00BF2C6A95F82D0016
:1040800020F0080085F82D00002C17D0606820B1C2
:10409000606809F0B1FC0020606000BFA06840B11A
:1040A00000BF07A340F2DA4220A115A0FEF722FAD2
:1040B00000BF00BF00212046FFF7F8FE00BFDAE78F
:1040C0002E2E5C4C5749505C6C7769702D312E3424
:1040D0002E315C7372635C636F72655C64686370DD
:1040E0002E630000646863705F73746F703A206EB3
:1040F0006574696620213D204E554C4C000000003F
:10410000417373657274696F6E2022257322206675
:1041100061696C6564206174206C696E652025643A
:1041200020696E2025730D0A000000007265706C16
:1041300079207761736E277420667265656400006C
:1041400070B505462C6A207B012805D0207B0A2803
:1041500002D0207B052802D12846FFF7E9FD70BD7B
:1041600070B505462C6A207B012805D0207B0A28E3
:1041700002D0207B052802D12846FFF731FC70BD14
:1041800070B505462C6A207B0C2802D0207B0628BF
:1041900003D12846FEF78AFE43E0207B01280DD19B
:1041A000607B052803DC2846FFF706FE39E0284639
:1041B000FFF76AFD2846FEF779FE32E0207B0828EB
:1041C0000AD1607B012803DC2846FEF7EDFB28E0DE
:1041D0002846FEF723FB24E0207B052803D1284650
:1041E000FFF7A6FD1DE0207B04280DD1607B082889
:1041F00003DC2846FFF7F4FB13E02846FFF744FDF5
:104200002846FEF753FE0CE0207B032809D1607B93
:10421000022803DA2846FFF727FC02E02846FEF7CB
:1042200045FE70BD10B50446FEF7DAFB00220349D7
:104230004EF6602004F06CFD10BD00002542000821
:1042400010B50446FEF794FE002203494FF4FA70BD
:1042500004F05EFD10BD0000414200082DE9FC475E
:1042600005468846164600BF55B900BF49A340F22F
:10427000BB2252A155A0FEF73DF900BFBDE8FC8767
:1042800000BF70892A2803DA304604F0D9F8F5E730
:10429000776807F10E042088B0F5807F08D1207977
:1042A000062805D16079042802D16088082803D047
:1042B000304604F0C5F8E1E7D4F80E000190A0699B
:1042C0000090281D08B1686810B94FF0000907E098
:1042D00000986968884201D1012000E000208146F1
:1042E000B9F1000F01D0012000E00220034604F1E3
:1042F000080201A9284600F05FFEE088B0F5807F43
:1043000003D0B0F5007F3ED138E0B9F1000F33D0D3
:10431000022002F0ECFCE080D4F80E00A061686896
:10432000C4F80E0000BF95F82600062808D000BF8C
:1043300018A340F21132304924A0FEF7DBF800BF89
:1043400000BFA068C4F81200A089E082A0683860AD
:10435000A089B880D8F80000A060B8F80400A08157
:10436000D8F80000C7F80600B8F804007881314694
:104370002846AA69904700E000BF05E001A9284649
:10438000FEF7FCF900E000BF00BF304604F058F82B
:1043900000BF73E72E2E5C4C5749505C6C776970F8
:1043A0002D312E342E315C7372635C6E65746966D8
:1043B0005C6574686172702E630000006E657469DC
:1043C0006620213D204E554C4C0000004173736522
:1043D0007274696F6E2022257322206661696C6594
:1043E00064206174206C696E6520256420696E20EC
:1043F00025730D0A0000000068DC000870B5054652
:10440000002412E004EB8400094901EB8000867C63
:104410004EB104EB840001EB80008068A84202D119
:10442000204600F071F9601CC4B20A2CEADB70BDB2
:10443000ECA904202DE9FE4F064688464FF00A09F4
:10444000CA460A270024002002900190BB46009033
:1044500000BF6BE004EB84006F4901EB8000857CBA
:104460000A2F02D10DB967B25EE0002D5CD000BF0B
:10447000012D0AD0022D08DA00BF68A340F22B12EA
:1044800070A180A0FEF736F800BF00BF5EB104EB5C
:104490008401614A02EB810130684968884202D197
:1044A00060B2BDE8FE8F012D2AD104EB84005A4989
:1044B00051F8200088B104EB840001EB8000C17C3E
:1044C0000098814230DB4FFA84FB04EB84005249B0
:1044D00001EB8000C07C009026E004EB84004E4994
:1044E00001EB8000C17C029881421DDB4FFA84F908
:1044F00004EB8400484901EB8000C07C029013E08B
:10450000022D11DB04EB8400434901EB8000C17CE8
:104510000198814208DB4FFA84FA04EB84003E499B
:1045200001EB8000C07C0190601CC4B20A2C91DBBE
:1045300008F0020020B90A2F05D108F0010010B9D7
:104540004FF0FF30ADE70A2F01DAFCB234E0BAF1E8
:104550000A0F12DA0AF0FF0400BF04EB84002E49B0
:1045600051F8200040B100BF2CA340F2711250A1BD
:1045700044A0FDF7BFFF00BF0EE0B9F10A0F02DA59
:1045800009F0FF0408E0BBF10A0F02DA0BF0FF04A8
:1045900002E04FF0FF3084E700BF0A2C08DB00BFC9
:1045A0001EA340F2831248A136A0FDF7A3FF00BF6F
:1045B00000BF204600F0A8F800BF0A2C08DB00BFAF
:1045C00016A340F2871240A12EA0FDF793FF00BF73
:1045D00000BF00BF04EB84000F4901EB8000807C2A
:1045E00040B100BF0DA34FF4C4723CA125A0FDF75C
:1045F00081FF00BF00BF36B104EB8401064A02EB25
:10460000810130684860002004EB8401024A02EB1B
:104610008101C87460B244E7ECA904202E2E5C4CE2
:104620005749505C6C7769702D312E342E315C7394
:1046300072635C6E657469665C6574686172702E25
:10464000630000007374617465203D3D204554484B
:104650004152505F53544154455F50454E44494E7A
:1046600047207C7C207374617465203E3D20455456
:10467000484152505F53544154455F535441424C5A
:1046800045000000417373657274696F6E202225C6
:104690007322206661696C6564206174206C696EA8
:1046A0006520256420696E2025730D0A0000000036
:1046B0006172705F7461626C655B695D2E71203D33
:1046C0003D204E554C4C000069203C204152505F2B
:1046D0005441424C455F53495A4500006172705F36
:1046E0007461626C655B695D2E7374617465203DF5
:1046F0003D204554484152505F53544154455F4515
:104700004D5054590000000010B5044604EB8400DD
:104710000C4951F8200060B104EB8401094A52F8B9
:10472000210003F08DFE002004EB8401054A42F8CD
:104730002100002004EB8401024A02EB810188740D
:1047400010BD0000ECA904202DE9FC4704460F46EB
:104750001546A94600BF44B900BF59A340F27532BF
:1047600061A165A0FDF7C6FE00BF00BF00BF47B94D
:1047700000BF53A340F276326AA15FA0FDF7BAFEF4
:1047800000BF00BF00BF45B900BF4DA340F2773264
:1047900067A159A0FDF7AEFE00BF00BF0E2138464D
:1047A00003F020FF18B16FF00100BDE8FC8721463F
:1047B000286801F009F810B1DFF8848177E02878E3
:1047C00000F0F000E02815D101208DF80000002055
:1047D0008DF801005E208DF80200687800F07F00FF
:1047E0008DF80300A8788DF80400E8788DF80500AE
:1047F000E8465BE02868A1680840D4E9011211404E
:10480000884210D0288880B24FF6A96188420AD029
:1048100004F10C0020B1E06810B104F10C0902E0D1
:104820006FF00300C1E74748007800EB800046497D
:1048300001EB8000807C022812DB4249097801EB01
:104840008101414A02EB8101D9F8000049688842A0
:1048500006D13C4802783946204600F077F8A4E7B4
:1048600000261BE006EB8600374901EB8000807CC8
:10487000022811DB06EB8601334A02EB8101D9F8ED
:1048800000004968884207D12E490E70F2B23946BD
:10489000204600F05BF888E7701C46B20A2EE1DB88
:1048A0003A464946204600F0DBF87EE700BF434623
:1048B00004F127023946204600F0E2FA75E70000CD
:1048C0002E2E5C4C5749505C6C7769702D312E341C
:1048D0002E315C7372635C6E657469665C657468C6
:1048E0006172702E630000006E6574696620213D60
:1048F000204E554C4C000000417373657274696F13
:104900006E2022257322206661696C6564206174C3
:10491000206C696E6520256420696E2025730D0A60
:10492000000000007120213D204E554C4C0000003D
:1049300069706164647220213D204E554C4C00002A
:10494000DCDB000840000220ECA9042070B505461D
:104950000E46144600BF04EB84001F4901EB8000A3
:10496000807C022808DA00BF1CA34FF4537225A1F3
:1049700030A0FDF7BFFD00BF00BF04EB8400164967
:1049800001EB8000807C022817D104EB840001EB4E
:104990008000C07CE42810DB04EB84000A4602EBB4
:1049A0008000011D284600F055FA30B9032004EBC1
:1049B0008401094A02EB8101887404EB84000649F2
:1049C00001EB800000F10C0305F127023146284677
:1049D00000F056FA70BD0000ECA904202E2E5C4CAD
:1049E0005749505C6C7769702D312E342E315C73D1
:1049F00072635C6E657469665C6574686172702E62
:104A0000630000006172705F7461626C655B61726B
:104A1000705F6964785D2E7374617465203E3D201B
:104A20004554484152505F53544154455F5354419B
:104A3000424C4500417373657274696F6E20222584
:104A40007322206661696C6564206174206C696EF4
:104A50006520256420696E2025730D0A0000000082
:104A60002DE9F05F80460F46164608F127094FF002
:104A7000FF3A4146386800F0A7FE38B9387800F0B0
:104A8000F000E02802D00FB1386818B96FF00D00BF
:104A9000BDE8F09F01213846FFF7CCFC0446002C0E
:104AA00001DA2046F4E704EB84005A4901EB800068
:104AB000807C30B9012004EB8401564A02EB81016D
:104AC000887400BF04EB8400524901EB8000807CB5
:104AD00001280FD004EB840001EB8000807C0228C9
:104AE00008DA00BF4CA340F2194255A15EA0FDF7C1
:104AF00001FD00BF00BF04EB8400464901EB8000CC
:104B0000807C012800D03EB93946404600F0A2F929
:104B100082460EB95046BBE700BF46B900BF3EA370
:104B200040F22D425BA150A0FDF7E4FC00BF00BFA6
:104B300004EB8400374901EB8000807C02280FDB06
:104B400057490C7004EB8400324901EB800000F1FE
:104B50000C034A463146404600F092F9824657E03F
:104B600004EB84002B4901EB8000807C01284FD1AD
:104B70004FF0000B354617E000BF6889298988424D
:104B80000AD1286840B100BF23A340F23E4245A1AC
:104B900035A0FDF7AFFC00BF00BF287B012802D085
:104BA0004FF0010B02E02D68002DE5D100BFBBF1F5
:104BB000000F10D029890022032002F043FF054690
:104BC0006DB13146284603F07DFA40B1284603F026
:104BD00037FC002503E03546284603F08BFEA5B1DF
:104BE00004EB84000B4951F8200030B104EB840140
:104BF000084A52F8210003F023FC04EB8400054925
:104C000041F820504FF0000A01E04FF0FF3A00BF9A
:104C100050463DE7ECA904202E2E5C4C5749505CD1
:104C20006C7769702D312E342E315C7372635C6E3B
:104C3000657469665C6574686172702E630000005B
:104C40006172705F7461626C655B695D2E73746123
:104C50007465203D3D2050454E44494E47206F72BB
:104C600020535441424C4500417373657274696F1F
:104C70006E2022257322206661696C656420617450
:104C8000206C696E6520256420696E2025730D0AED
:104C9000000000007120213D204E554C4C000000CA
:104CA000400002206E6F207061636B657420717527
:104CB0006575657320616C6C6F7765642100000019
:104CC0002DE9F84F0746884691469A46DDF828B008
:104CD0000020009000BF47B900BF37A340F2A542B3
:104CE0003FA143A0FDF706FC00BF00BF00222A2120
:104CF000032002F0A7FE05461DB94FF0FF30BDE8C6
:104D0000F88F00BF68892A2808DA00BF2AA34FF469
:104D1000966242A136A0FDF7EDFB00BF00BF6E68B2
:104D200006F10E040D9801F0E2FFE08000BF97F855
:104D30002600062808D000BF1FA34FF497624449FD
:104D40002BA0FDF7D7FB00BF00BFDAF80000A06082
:104D5000BAF80400A0810B980168C4F8121080888A
:104D6000E082D9F800003060B9F80400B080D8F8CB
:104D70000000C6F80600B8F804007081DBF80000F7
:104D8000C4F80E000C980068A0614FF48070208079
:104D90000820608006202071042060714FF4C160FB
:104DA000B08129463846BA6990470090284603F0FA
:104DB00047FB00250098A2E72E2E5C4C5749505C1B
:104DC0006C7769702D312E342E315C7372635C6E9A
:104DD000657469665C6574686172702E63000000BA
:104DE0006E6574696620213D204E554C4C000000D4
:104DF000417373657274696F6E2022257322206679
:104E000061696C6564206174206C696E652025643D
:104E100020696E2025730D0A000000006368656339
:104E20006B20746861742066697273742070627597
:104E3000662063616E20686F6C64207374727563A2
:104E400074206574686172705F68647200000000AD
:104E500068DC00087FB504460D460121064A201D86
:104E600004F127038DE825000391044A19462046E2
:104E7000FFF726FF04B070BDE2DB0008DCDB0008B2
:104E80002DE9F04104460E4617469846756800BF66
:104E900094F82600062808D000BF0EA340F2A31203
:104EA000164917A0FDF726FB00BF00BFD8F8000089
:104EB0002860B8F80400A8803868C5F80600B888EB
:104EC00068810820A88131462046A2699047BDE844
:104ED000F08100002E2E5C4C5749505C6C77697055
:104EE0002D312E342E315C7372635C6E657469668D
:104EF0005C6574686172702E6300000068DC0008F5
:104F0000417373657274696F6E2022257322206667
:104F100061696C6564206174206C696E652025642C
:104F200020696E2025730D0A0000000070B5002472
:104F30003DE004EB84001F4901EB8000857C25B334
:104F400004EB840001EB8000C07C401C04EB840176
:104F5000184A02EB8101C87404EB8400114601EB8E
:104F60008000C07CF0280DDA04EB840001EB8000A7
:104F7000807C01280AD104EB840001EB8000C07C16
:104F8000022803DB2046FFF7BFFB0EE004EB8400A2
:104F9000084901EB8000807C032806D1022004EB45
:104FA0008401044A02EB81018874601CC4B20A2C9B
:104FB000BFDB70BDECA904202DE9F04706460D4685
:104FC0001746984600BF96F82600062808D000BF6E
:104FD0002CA340F2C31235A13EA0FDF78BFA00BF0F
:104FE00000BF5DB1286848B13146286800F0ECFB8D
:104FF00020B9287800F0F000E02803D16FF00D0010
:10500000BDE8F08741462846FFF714FA0446002C15
:1050100001DA2046F4E7022004EB8401384A02EB6F
:105020008101887404EB8400114601EB80008660E6
:1050300004EB840001EB80003968C160B98801820B
:10504000002004EB840102EB8101C87404EB8400AE
:10505000114651F8200098B104EB840051F82090DB
:10506000002004EB840142F821003B4606F12702B0
:1050700049463046FFF704FF484603F0E1F900BF18
:105080000020BDE72E2E5C4C5749505C6C77697050
:105090002D312E342E315C7372635C6E65746966DB
:1050A0005C6574686172702E630000006E657469DF
:1050B000662D3E6877616464725F6C656E203D3D6D
:1050C000204554484152505F4857414444525F4C38
:1050D000454E0000417373657274696F6E2022251E
:1050E0007322206661696C6564206174206C696E4E
:1050F0006520256420696E2025730D0A00000000DC
:10510000ECA904202DE9F04104460E464FF00E08AC
:1051100060890E2800DC52E06568AF89287800F0CD
:105120000100B0B12878012809D1687888B9A87839
:105130005E280ED1607B40F01000607309E006220B
:1051400021492846FBF7A7F818B9607B40F0080012
:105150006073082F03D0B7F5C16F2BD11DE096F80F
:105160002D0000F0200000B929E0C8F1000001B2D4
:10517000204603F037FA58B100BF00BF13A340F236
:105180004F521CA124A0FDF7B5F900BF00BF16E0E7
:105190003146204600F0AAFC0DE096F82D0000F004
:1051A000200000B90BE0224606F127013046FFF748
:1051B00055F800E003E000BF0020BDE8F081204684
:1051C00003F03EF90020F8E7DCDB00082E2E5C4CF3
:1051D0005749505C6C7769702D312E342E315C73D9
:1051E00072635C6E657469665C6574686172702E6A
:1051F0006300000043616E2774206D6F7665206F39
:105200007665722068656164657220696E207061E0
:10521000636B657400000000417373657274696F9D
:105220006E2022257322206661696C65642061749A
:10523000206C696E6520256420696E2025730D0A37
:105240000000000010B5044600BF3CB900BF0BA32E
:10525000C02215A117A0FDF74DF900BF00BF6520C2
:1052600084F82E006E212F2001551D4860611D48D5
:10527000A061204601F0D8FA002010BD2E2E5C4C13
:105280005749505C6C7769702D312E342E315C7328
:1052900072635C6E657469665C65746865726E6580
:1052A0007469662E630000006E65746966213D4E68
:1052B000554C4C00417373657274696F6E202225E2
:1052C0007322206661696C6564206174206C696E6C
:1052D0006520256420696E2025730D0A00000000FA
:1052E00049470008B169000870B50446204601F03E
:1052F000DFFA064616B94FF0FF3070BD2146304642
:105300002269904705461DB1304603F099F8002602
:105310002846F2E738B504468DF8000069460320B8
:10532000ABBE204638BD70B505460C46224603216B
:10533000284600F087F970BD2DE9FE4F04468946E6
:10534000666830780007870E7942204603F04AF9F4
:1053500010B92089042800D2C7E0606890F800A046
:10536000BAF1000F03D0BAF1080F6CD100E0B7E03A
:1053700001256248007800F0F000E02800D1002507
:105380005E490868494600F01FFA00B1002525B9BA
:10539000204603F055F8BDE8FE8F2089082800D28A
:1053A000A3E0204600F0E5F918B1204603F048F8E4
:1053B000F1E72221204603F015F9002850D03946A4
:1053C000204603F00FF900280AD000BF00BF4CA30D
:1053D000982255A161A0FDF78DF800BF00BF88E0BD
:1053E00021890022022002F02DFB054605B980E04C
:1053F00000BF698907F10800814207D200BF40A3BE
:10540000A12261A155A0FDF775F800BF00BF21469C
:10541000284602F057FE50B100BF00BF38A3A522B6
:1054200067A14EA0FDF766F800BF00BF61E06E689F
:10543000784201B2284603F0D5F860B100BF00BF42
:105440002FA3AB2200E04AE067A144A0FDF752F889
:1054500000BF00BF4DE0204602F0F2FF2C4610E0F6
:105460006FF02101204603F0BDF850B100BF00BF2E
:1054700023A3B5225CA139A0FDF73CF800BF00BF13
:1054800037E0D4F804801D480068F0606348006885
:105490003061002088F80000A8F80200FF20307278
:1054A000002070813946204603F09CF848B100BFC7
:1054B00000BF13A3DA225AA128A0FDF71BF800BFF2
:1054C0000CE001200021FF230A46CDE901090091EB
:1054D0000A49204600F03EFC054600BF00E000BF40
:1054E00000BF204602F0ACFF55E7204602F0A8FFBF
:1054F00051E7204602F0A4FF00BF4CE75000022015
:105500002E2E5C4C5749505C6C7769702D312E34CF
:105510002E315C7372635C636F72655C69707634A4
:105520005C69636D702E630069636D705F696E7096
:1055300075743A206D6F76696E6720702D3E7061CC
:10554000796C6F616420746F206970206865616494
:105550006572206661696C65640A00004173736559
:105560007274696F6E2022257322206661696C65F2
:1055700064206174206C696E6520256420696E204A
:1055800025730D0A00000000636865636B20746872
:10559000617420666972737420706275662063613D
:1055A0006E20686F6C642073747275637420746805
:1055B000652049434D5020686561646572000000B4
:1055C00069636D705F696E7075743A20636F70798E
:1055D000696E6720746F206E657720706275662033
:1055E0006661696C65640A0069636D705F696E70FD
:1055F00075743A20726573746F72696E67206F728A
:105600006967696E616C20702D3E7061796C6F61A5
:1056100064206661696C65640A0000004C00022029
:1056200043616E2774206D6F7665206F76657220FA
:1056300068656164657220696E207061636B657472
:10564000000000002DE9FE4306460F46904600226A
:105650002421012002F0F6F905460DB9BDE8FE83CC
:1056600000BF6889242808D200BF18A34FF499729C
:1056700020A12BA0FCF73EFF00BF00BFD6F804908E
:105680006C68277084F801800020A080E080716839
:105690006A6802F108001C22FAF7D2FD002060803F
:1056A0006989204600F05BF86080D9F80C00029010
:1056B00001200021FF2302AACDE90010284600F0B6
:1056C000F1FA284602F0BCFE00BFC7E72E2E5C4C64
:1056D0005749505C6C7769702D312E342E315C73D4
:1056E00072635C636F72655C697076345C69636D6C
:1056F000702E6300636865636B2074686174206654
:105700006972737420706275662063616E20686FC1
:105710006C642069636D70206D65737361676500EB
:10572000417373657274696F6E202225732220663F
:1057300061696C6564206174206C696E6520256404
:1057400020696E2025730D0A0000000070B5054623
:105750000C4622460B212846FFF774FF70BD70B53A
:1057600004460D462946204601F01EFBC04380B288
:1057700070BD2DE9F041064600240027354617E0AC
:105780006989686801F010FB0444A0B200EB14447E
:10579000688900EBD0714910A0EB410139B1C7F124
:1057A0000100C7B2E0B2C4F3072141EA00242D682A
:1057B000002DE5D127B1E0B2C4F3072141EA00246E
:1057C000E04380B2BDE8F08118B502460092D043B4
:1057D00000B10AB9012018BD91F82D0000F00200B7
:1057E00008B90020F7E74868904201D10020F2E7AD
:1057F00000988B681840D1E901342340984208D1C1
:10580000886822EA00008C68E343984201D10120B5
:10581000E1E70020DFE700002DE9F74F8CB00446F8
:105820008946B9F824000890142004904FF000082D
:1058300060680B900B9EF08801F073FA0390039858
:10584000C0F30C000790039800F4005006902089E4
:10585000143880B209900899A1F11400C11700EB27
:105860005171C1F3CF010A91B0E008981438099939
:10587000884201DB012000E0002005900798C0F37A
:105880000C00069908430390059818B9039840F452
:1058900000500390059808B1099801E00A98C000EB
:1058A0001FFA80FB00221421022002F0CBF80546EB
:1058B00025B94FF0FF300FB0BDE8F08F00BF608911
:1058C000142808DA00BF44A340F2FB224DA155A0E2
:1058D000FCF710FE00BF00BF142268680B99FAF7AE
:1058E000AFFC6E6861680498084460606189049840
:1058F000081A6081CDF808B03FE0618902988142C2
:1059000001DD029800E060898046B8F1000F01D106
:10591000246832E000F09EF807462FB9284602F0CE
:105920008FFD4FF0FF30C6E760683B4602224146DC
:10593000CDE90008032002F08DFA8246BAF1000F8B
:1059400008D1384600F08CF8284602F079FD4FF077
:10595000FF30B0E7204602F0CDFF7C613C48386163
:105960005146284602F0F6FA0298A0EB080080B2F1
:105970000290029800B1246800BF02980028BCD1B0
:10598000CDF81080039801F0B2F9F0800BF114010A
:1059900088B201F0ACF9708000207081142130468B
:1059A000FFF7DDFE7081D9F81430294648460E9A7B
:1059B0009847284602F044FD0998A0EB0B0080B2FE
:1059C00009900A990798084480B20790099800281E
:1059D0007FF44BAF00BF6EE72E2E5C4C5749505CF6
:1059E0006C7769702D312E342E315C7372635C6379
:1059F0006F72655C697076345C69705F667261674E
:105A00002E63000074686973206E6565647320619D
:105A1000207062756620696E206F6E652070696502
:105A200063652100417373657274696F6E2022256E
:105A30007322206661696C6564206174206C696EF4
:105A40006520256420696E2025730D0A0000000082
:105A50006D67000810B5062001F082FD10BD000042
:105A600010B5044600BF44B900BF07A340F2792235
:105A700010A113A0FCF73EFD00BF00BF2146062089
:105A800001F0DEFC10BD00002E2E5C4C5749505C2E
:105A90006C7769702D312E342E315C7372635C63C8
:105AA0006F72655C697076345C69705F667261679D
:105AB0002E6300007020213D204E554C4C0000000C
:105AC000417373657274696F6E202225732220669C
:105AD00061696C6564206174206C696E6520256461
